:100000000C942A000C94A1030C94ED030C9467014A
:100010000C948D010C94C7030C94B3010C94D9017A
:100020000C94FF010C9413040C9425020C943704D7
:100030000C944B020C9471020C9497020C94BD0228
:100040000C94E3020C9409030C942F030C945503B5
:100050000C947B0311241FBECFE5D8E0DEBFCDBFDB
:1000600011E0A0E6B0E0E0EFF9E202C005900D92E9
:10007000AA3DB107D9F722E0AAEDB1E001C01D9277
:10008000A135B207E1F70E945B040C94F61420E05E
:1000900040E065E370E084E390E00E949B0421E08F
:1000A00040E063E370E084E390E00E94B8040895C8
:1000B000CF9380E090E00E9440078434B9F581E05E
:1000C00090E00E944007C82F82E090E00E94400725
:1000D0002C2F30E0322F2227282B3093360220930A
:1000E000350283E090E00E944007C82F84E090E052
:1000F0000E9440072C2F30E0322F2227282B3093EC
:1001000038022093370285E090E00E944007C82F14
:1001100086E090E00E9440072C2F30E0322F22270B
:10012000282B30933A022093390209C064E480E01E
:1001300090E00E94480780E790E00E94F211CF9182
:10014000089581E090E090933802809337021092F6
:100150003A0210923902A9988AE090E09093360210
:10016000809335020E9458000895CF93DF93C5E332
:10017000D2E088819981692F81E090E00E94480750
:100180006881798182E090E00E944807C7E3D2E06D
:1001900088819981692F83E090E00E9448076881F7
:1001A000798184E090E00E944807C9E3D2E0888129
:1001B0009981692F85E090E00E94480768817981E4
:1001C00086E090E00E9448078FB78F778FBF8091BD
:1001D000DA01882369F081E090E090933402809303
:1001E00033028091370290913802892B09F0A99A45
:1001F0008FB780688FBF8091370290913802892B2A
:1002000049F48091390290913A02892B11F0A99A10
:1002100001C0A9984091390250913A026091370289
:10022000709138028091330290913402209135020E
:1002300030913602660F771F880F991F880F991F1C
:10024000862B972B842B952B220F331F220F331FC6
:10025000220F331F822B932B90933C0280933B02FF
:10026000DF91CF9108958091DA01882329F180915F
:10027000DB019091DC0101969093DC018093DB011E
:1002800020913502309136028091DB019091DC01A2
:100290002817390788F41092DA011092DC011092C5
:1002A000DB01109234021092330280913702909158
:1002B0003802019709F4A9980895989B07C01092F5
:1002C000DC011092DB0181E08093DA0108951F9236
:1002D0000F920FB60F9211242F933F934F935F937A
:1002E0006F937F938F939F93AF93BF93EF93FF93FE
:1002F0008CE790E00E94F211FF91EF91BF91AF91D6
:100300009F918F917F916F915F914F913F912F912D
:100310000F900FBE0F901F9018951F920F920FB65F
:100320000F9211242F933F934F935F936F937F937B
:100330008F939F93AF93BF93EF93FF9386E890E0E3
:100340000E94F211FF91EF91BF91AF919F918F9118
:100350007F916F915F914F913F912F910F900FBEC1
:100360000F901F9018951F920F920FB60F921124A5
:100370002F933F934F935F936F937F938F939F93AD
:10038000AF93BF93EF93FF9380E990E00E94F21147
:10039000FF91EF91BF91AF919F918F917F916F915D
:1003A0005F914F913F912F910F900FBE0F901F9033
:1003B00018951F920F920FB60F9211242F933F930F
:1003C0004F935F936F937F938F939F93AF93BF935D
:1003D000EF93FF938AE990E00E94F211FF91EF9171
:1003E000BF91AF919F918F917F916F915F914F914D
:1003F0003F912F910F900FBE0F901F9018951F9255
:100400000F920FB60F9211242F933F934F935F9348
:100410006F937F938F939F93AF93BF93EF93FF93CC
:1004200084EA90E00E94F211FF91EF91BF91AF91A9
:100430009F918F917F916F915F914F913F912F91FC
:100440000F900FBE0F901F9018951F920F920FB62E
:100450000F9211242F933F934F935F936F937F934A
:100460008F939F93AF93BF93EF93FF938EEA90E0A8
:100470000E94F211FF91EF91BF91AF919F918F91E7
:100480007F916F915F914F913F912F910F900FBE90
:100490000F901F9018951F920F920FB60F92112474
:1004A0002F933F934F935F936F937F938F939F937C
:1004B000AF93BF93EF93FF9388EB90E00E94F2110C
:1004C000FF91EF91BF91AF919F918F917F916F912C
:1004D0005F914F913F912F910F900FBE0F901F9002
:1004E00018951F920F920FB60F9211242F933F93DE
:1004F0004F935F936F937F938F939F93AF93BF932C
:10050000EF93FF9382EC90E00E94F211FF91EF9144
:10051000BF91AF919F918F917F916F915F914F911B
:100520003F912F910F900FBE0F901F9018951F9223
:100530000F920FB60F9211242F933F934F935F9317
:100540006F937F938F939F93AF93BF93EF93FF939B
:100550008CEC90E00E94F211FF91EF91BF91AF916E
:100560009F918F917F916F915F914F913F912F91CB
:100570000F900FBE0F901F9018951F920F920FB6FD
:100580000F9211242F933F934F935F936F937F9319
:100590008F939F93AF93BF93EF93FF9386ED90E07C
:1005A0000E94F211FF91EF91BF91AF919F918F91B6
:1005B0007F916F915F914F913F912F910F900FBE5F
:1005C0000F901F9018951F920F920FB60F92112443
:1005D0002F933F934F935F936F937F938F939F934B
:1005E000AF93BF93EF93FF9381EE90E00E94F211DF
:1005F000FF91EF91BF91AF919F918F917F916F91FB
:100600005F914F913F912F910F900FBE0F901F90D0
:1006100018951F920F920FB60F9211242F933F93AC
:100620004F935F936F937F938F939F93AF93BF93FA
:10063000EF93FF938CEE90E00E94F211FF91EF9107
:10064000BF91AF919F918F917F916F915F914F91EA
:100650003F912F910F900FBE0F901F9018951F92F2
:100660000F920FB60F9211242F933F934F935F93E6
:100670006F937F938F939F93AF93BF93EF93FF936A
:1006800087EF90E00E94F211FF91EF91BF91AF913F
:100690009F918F917F916F915F914F913F912F919A
:1006A0000F900FBE0F901F9018951F920F920FB6CC
:1006B0000F9211242F933F934F935F936F937F93E8
:1006C0008F939F93AF93BF93EF93FF9382E091E05B
:1006D0000E94F211FF91EF91BF91AF919F918F9185
:1006E0007F916F915F914F913F912F910F900FBE2E
:1006F0000F901F9018951F920F920FB60F92112412
:100700002F933F934F935F936F937F938F939F9319
:10071000AF93BF93EF93FF938DE091E00E94F211AE
:10072000FF91EF91BF91AF919F918F917F916F91C9
:100730005F914F913F912F910F900FBE0F901F909F
:1007400018951F920F920FB60F9211242F933F937B
:100750004F935F936F937F938F939F93AF93BF93C9
:10076000EF93FF9388E191E00E94F211FF91EF91E6
:10077000BF91AF919F918F917F916F915F914F91B9
:100780003F912F910F900FBE0F901F9018951F92C1
:100790000F920FB60F9211242F933F934F935F93B5
:1007A0006F937F938F939F93AF93BF93EF93FF9339
:1007B00083E291E00E94F211FF91EF91BF91AF911E
:1007C0009F918F917F916F915F914F913F912F9169
:1007D0000F900FBE0F901F9018951F920F920FB69B
:1007E0000F9211242F933F934F935F936F937F93B7
:1007F0008F939F93AF93BF93EF93FF938EE291E01C
:100800000E94F211FF91EF91BF91AF919F918F9153
:100810007F916F915F914F913F912F910F900FBEFC
:100820000F901F9018951F920F920FB60F921124E0
:100830002F933F934F935F936F937F938F939F93E8
:10084000AF93BF93EF93FF930E943B12FF91EF9101
:10085000BF91AF919F918F917F916F915F914F91D8
:100860003F912F910F900FBE0F901F9018951F92E0
:100870000F920FB60F9211242F933F934F935F93D4
:100880006F937F938F939F93AF93BF93EF93FF9358
:100890000E943812FF91EF91BF91AF919F918F917C
:1008A0007F916F915F914F913F912F910F900FBE6C
:1008B0000F901F9018950E9472040E946004FDCF53
:1008C0000E94BD0E0E94B50092B380E2892782BBD0
:1008D000089525E040E060E370E081E390E00E944D
:1008E000B80408950F932FEF83ED90E321508040DB
:1008F0009040E1F700C0000000E020E040E061E04F
:1009000070E080E10E9460070E94FF0E0E9469046F
:100910000E949F100E9447000E94B8100E94A100F0
:100920000E94101281E491E00E94F2110E940A0FCD
:10093000959A0F910895FB01DC013C9161E070E014
:10094000022E02C0660F771F0A94E2F760953623E5
:100950003C93808168236083808150E0BA0102C0AB
:10096000660F771F2A95E2F79B01282B20830895B5
:10097000FB01DC013C9161E070E0022E02C0660FD9
:10098000771F0A94E2F7362B3C93808160956823A9
:100990006083808150E0BA0102C0660F771F2A95FC
:1009A000E2F79B01282B208308958FB9779BFECF18
:1009B0008FB10895CF93C62FC09880620E94D5044E
:1009C00080930F028C2F0E94D504C09A8FE99FE07C
:1009D0000197F1F700C00000CF910895C0980E94E0
:1009E000D50480930F028FEF0E94D504C09AEFE9DF
:1009F000FFE03197F1F700C000000895FF920F93D8
:100A00001F93CF93DF93F82E192F062FC09881E6FE
:100A10000E94D50480930F02002351F0CF2DD12FD7
:100A200010E08FEF0E94D50489931F5F1013F9CF58
:100A3000C09ADF91CF911F910F91FF900895FF927F
:100A40000F931F93CF93DF93F82E192F062FC09883
:100A500080EA0E94D50480930F02002349F0CF2D35
:100A6000D12F10E089910E94D5041F5F1013FACF97
:100A7000C09ADF91CF911F910F91FF900895C09878
:100A800081EE0E94D50480930F02C09A0895C09809
:100A900082EE0E94D50480930F02C09A0895C098F8
:100AA00080E60E94D50480930F028FEF0E94D50448
:100AB000C09A0895CF93DF931F92CDB7DEB787E03A
:100AC0000E94EE0489839981892F807496FF05C066
:100AD000698187E00E94DA0481E00F90DF91CF9175
:100AE0000895CF93DF931F92CDB7DEB787E00E94C2
:100AF000EE0489839981892F807295FF05C06981F1
:100B000087E00E94DA0481E00F90DF91CF91089591
:100B1000CF93DF931F92CDB7DEB787E00E94EE043C
:100B200089839981892F807194FF05C0698187E04D
:100B30000E94DA0481E00F90DF91CF910895CF9366
:100B4000DF931F92CDB7DEB780E00E94EE04898369
:100B500089818E7F8983698180E00E94DA040F9009
:100B6000DF91CF910895CF93DF931F92CDB7DEB77A
:100B700080E00E94EE048983898181608983698194
:100B800080E00E94DA040F90DF91CF910895FF92E8
:100B90000F931F93CF93DF93F62E172F042FC09838
:100BA000865F80620E94D50480930F02002349F083
:100BB000CF2DD12F10E089910E94D5041F5F101313
:100BC000FACFC09ADF91CF911F910F91FF900895B6
:100BD000FF920F931F93CF93DF93F82E192F062FB9
:100BE000C09880E30E94D50480930F02002349F04F
:100BF000CF2DD12F10E089910E94D5041F5F1013D3
:100C0000FACFC09ADF91CF911F910F91FF90089575
:100C10008093EE01682F85E00E94DA04089522E0B7
:100C200040E066E370E087E390E00E94B80420E0D3
:100C300040E066E370E087E390E00E94B80423E0C0
:100C400041E068E370E087E390E00E949B04089530
:100C50001F93CF93DF93C09A2FEF81EE94E0215042
:100C600080409040E1F700C00000E9EEF1E08AE04A
:100C70008083608180E00E94DA048FE39FE1019726
:100C8000F1F700C00000EAEEF1E013E010836081AC
:100C900081E00E94DA04EBEEF1E0C2E0C083608103
:100CA00082E00E94DA04C093EC01EDEEF1E085E30E
:100CB0008083608184E00E94DA04EEEEF1E0C0837C
:100CC000608185E00E94DA04EFEEF1E084E2808347
:100CD000608186E00E94DA0480E58093F8018093C9
:100CE000F9018093FA018093FB018093FC0145E0B8
:100CF00068EF71E081E00E94C705E7E0F2E080E282
:100D00008083C6E0D2E08883608182E10E94DA04B9
:100D1000688181E10E94DA04EDE0F2E010836081F5
:100D20008CE10E94DA04EEE0F2E084E080836081EE
:100D30008DE10E94DA0480E591E00E94F211209199
:100D40000F0230E040E050E060E070E080E090E0D2
:100D50000E94E010DF91CF911F910895EF92FF92D2
:100D60000F931F93CF93DF93EC01F62E8A01E22EAF
:100D7000C2988FE99FE00197F1F700C0000063E09F
:100D800082E00E94DA0460E787E00E94DA046F2DB7
:100D9000CE010E94E8054F2DBE0180E00E94C705EC
:100DA0000E943F050E949F056E2DC8010E941F05ED
:100DB000C29A8FE39FE10197F1F700C00000B39959
:100DC000FECFC29862E082E00E94DA040E947105C0
:100DD000D82F811110C00E948805C82F882331F0B8
:100DE00087E591E00E94F211CD2F06C084E691E0E4
:100DF0000E94F21101C0C1E08C2FDF91CF911F91B1
:100E00000F91FF90EF900895C2988FE99FE00197AE
:100E1000F1F700C0000060E787E00E94DA040E945A
:100E200047050E94B305C29A0895C2988FE99FE0D2
:100E30000197F1F700C0000060E787E00E94DA0444
:100E40000E94470508950F931F93CF93DF93EC0102
:100E50008B01B3990FC00E945A05882361F0C29894
:100E60000E944F05F8018083682FCE010E94FE0486
:100E700081E001C080E0DF91CF911F910F91089533
:100E8000E199FECF9FBB8EBBE298E09A8DB30895A7
:100E90001F93CF93DF93D82F192FC62F0E9440079F
:100EA0008C1751F0E199FECF1FBBDEBBCDBBE29AA0
:100EB000E098E19AE199FECFDF91CF911F910895DB
:100EC000FF920F931F93CF93DF93C62FF72ED42F4C
:100ED000122F882329F1803189F525E040E066E36F
:100EE00070E087E390E00E94B80424E040E066E30D
:100EF00070E087E390E00E94B80427E040E066E3FA
:100F000070E087E390E00E94B804C79870988EB1B3
:100F1000F82AFEB80065102BD12BCD2BCDB90EC011
:100F200026E040E066E370E087E390E00E94B804CA
:100F300070980064102BD12BCD2BCDB9DF91CF91C0
:100F40001F910F91FF9008950F930CBF13BE99B797
:100F50009C7F99BF93B7492B642B862B83BF89B79E
:100F6000282B29BF0F9108958CB52DB590E0922BB9
:100F700008958F92AF92CF92DF92EF92FF920F93EC
:100F80001F93CF93DF93CDB7DEB7D62E1FBC1EBC09
:100F90009FB530E4839FF0011124E92BEFBD9FB58D
:100FA00030E1639FF0011124E92BEFBD9FB5342F91
:100FB0003370932B9FBD9EB54C70440F492B4EBD93
:100FC0001BBD0ABDF9BCE8BC99B7937C99BF99B722
:100FD0003D85330F330F330FC32A880C880CC82884
:100FE000AA0CAC28AA0CAA0CA92AA9BE9EB5292B2A
:100FF0002EBD882341F025E040E060E370E081E30E
:1010000090E00E94B804DD2041F024E040E060E37D
:1010100070E081E390E00E94B8048FB588608FBDD6
:10102000DF91CF911F910F91FF90EF90DF90CF90C4
:10103000AF908F9008950E942806809160000E94D2
:1010400008060E94040708950E940F060895FF9263
:101050000F931F93CF93DF9300D0CDB7DEB78C01F2
:10106000FC018081F82FFF77FF2EF21342C0F801B8
:101070009181923008F03FC0662379F02281FA0115
:10108000908129133AC0D8011396319694E03D918E
:101090002191321334C09150D1F788235CF428E6B3
:1010A00030E04EEF4F0DBE016F5F7F4FC8010E94D1
:1010B000EF0D0AC020E132E04EEF4F0DBE016F5F31
:1010C0007F4FC8010E94600D39818F2D90E0F8019B
:1010D000E80FF91F32972081321313C02A81080FBD
:1010E000191FF801319781E09081291759F080E0AC
:1010F00009C080E007C080E005C080E003C080E058
:1011000001C080E00F900F90DF91CF911F910F9160
:10111000FF900895CF93DF9300D0CDB7DEB78AE07C
:101120008093170281E08093180280E58093190272
:1011300080931A0280931B0280931C0280931D02ED
:1011400086E080931E0220E132E048E0BE016F5F3E
:101150007F4F87E192E00E94600D898180931F029A
:101160008A81809320022AE047E152E065E08FED1A
:1011700091E00E94AE06882319F01092E40181E00C
:101180000F900F90DF91CF910895CF93DF9300D010
:1011900000D01F92CDB7DEB784E48B8328E630E021
:1011A00042E06FE172E0CE0101960E94450D8BE8AE
:1011B0008093170281E08093180280E580931902E2
:1011C00080931A0280931B0280931C0280931D025D
:1011D00088E080931E0228E630E041E06FE172E093
:1011E000CE0103960E942A0D28E630E049E0BE01B8
:1011F0006C5F7F4F87E192E00E94EF0D8C818093BE
:1012000020028D81809321022BE047E152E065E0CE
:101210008FED91E00E94AE06811107C099819093F5
:1012200010029A819093110209C089818093100263
:101230008A81809311021092E40181E00F900F9057
:101240000F900F900F90DF91CF910895CF93DF9380
:1012500000D000D0CDB7DEB784E4898320E132E04E
:1012600041E06FE172E0CE0102960E940C0D8BE02E
:101270008093170281E08093180280E58093190221
:1012800080931A0280931B0280931C0280931D029C
:101290008AE080931E0220E132E041E06FE172E0DB
:1012A000CE0101960E94EE0C20E132E049E0BE0141
:1012B0006D5F7F4F87E192E00E94600D8B8180938C
:1012C00020028C81809321022BE047E152E065E00F
:1012D0008FED91E00E94AE068823E1F0EA81F0E014
:1012E000E05AFF4F80810E9408061092E40181E7D6
:1012F00091E00E94F2112A8130E040E050E060E08D
:1013000070E080E090E00E94E0108FED90E00E949D
:10131000F21181E00F900F900F900F90DF91CF911D
:1013200008958F929F92AF92BF92CF92DF92EF92E9
:10133000FF92CF93DF93CDB7DEB72A970FB6F8941D
:10134000DEBF0FBECDBF20E132E044E06FE172E0CE
:10135000CE0101960E940C0D8AE08093170281E075
:101360008093180280E58093190280931A0280937B
:101370001B0280931C0280931D0281E180931E0258
:1013800020E132E048E0BE016B5F7F4F87E192E0F1
:101390000E94600D8D8180931F028E8180932002B8
:1013A0002AE047E152E065E08FED91E00E94AE0651
:1013B000882309F44FC08FB78F778FBFE981F0E0A2
:1013C000FE2FEE278A81E82B8B8190E0982F8827CB
:1013D0002C81822BEE0FFF1FE75DFD4F91838083F1
:1013E0008FB780688FBF1092E401898190E0982FB9
:1013F00088272A81822B98878F838B8190E0982F72
:1014000088272C81822B9A8789878DE891E00E941A
:10141000F2118F809884282D392D40E050E060E053
:1014200070E080E090E00E94E0108BE791E00E9485
:10143000F21189849A84282D392D40E050E060E033
:1014400070E080E090E00E94E0108FED90E00E945C
:10145000F21181E02A960FB6F894DEBF0FBECDBF21
:10146000DF91CF91FF90EF90DF90CF90BF90AF9042
:101470009F908F9008958F929F92AF92BF92CF923C
:10148000DF92EF92FF92CF93DF93CDB7DEB72A972B
:101490000FB6F894DEBF0FBECDBF20E132E042E0D0
:1014A0006FE172E0CE0101960E940C0D8FB78F772D
:1014B0008FBFE981F0E0FE2FEE278A81E82BEE0F47
:1014C000FF1FE75DFD4F808191819B83808191812A
:1014D0008C838FB780688FBF898190E0982F882791
:1014E0002A81822B9E838D838B8190E0982F882781
:1014F0002C81822B98878F838CE08093170281E068
:101500008093180280E58093190280931A028093D9
:101510001B0280931C0280931D0283E180931E02B4
:1015200020E132E042E06FE172E0CE0103960E94DA
:10153000EE0C20E132E04AE0BE01675F7F4F87E1B9
:1015400092E00E94600D8985809321028A858093B4
:1015500022022CE047E152E065E08FED91E00E942D
:10156000AE06882339F11092E40185E891E00E94EB
:10157000F2118D809E80282D392D40E050E060E0F2
:1015800070E080E090E00E94E0108BE791E00E9424
:10159000F2118F809884282D392D40E050E060E0D2
:1015A00070E080E090E00E94E0108FED90E00E94FB
:1015B000F21181E02A960FB6F894DEBF0FBECDBFC0
:1015C000DF91CF91FF90EF90DF90CF90BF90AF90E1
:1015D0009F908F900895CF92DF92EF92FF920F939A
:1015E0001F93CF93DF93CDB7DEB727970FB6F8944D
:1015F000DEBF0FBECDBF0E94820E9A83898388E929
:1016000091E00E94F21149E152E0FA018081809359
:1016100012022AE132E0F9018081809313028BE10A
:1016200092E0FC01608160931402ACE1B2E06C9145
:10163000609315020DE112E0F801608160931602DB
:101640006CE86093170261E06093180260E5FA01AC
:101650006083F9016083FC0160836C93F80160830F
:1016600082E080931E0289819A8190931F02898172
:101670009A818093200228E630E04AE0BE016D5F47
:101680007F4F87E192E00E94EF0D8B8180932102D2
:101690008C81809322028FE19EE40197F1F700C0D4
:1016A00000002CE047E152E065E082E192E00E9418
:1016B000AE06182F882309F4FBC089EA91E00E9446
:1016C000F2110E9404070F2ECC24CA94DC2CFFE0F8
:1016D000EF2EF12CF02D11C091E0C91AD108E108CC
:1016E000F108C114D104E104F10439F48CEA91E069
:1016F0000E94F2110E941507DBC06DED71E087E1D9
:1017000092E00E942307182F882331F380EB91E0A9
:101710000E94F2110E9415072091DD0142E152E082
:1017200061E087E192E00E942708182F882309F4DE
:10173000BFC080911E02833009F0B9C028E630E0B6
:1017400042E06FE172E0CE0105960E94450D2D81C9
:1017500089819A8130E0892F99272817390749F420
:101760002E8189819A8130E099272817390709F459
:1017700043C083EB91E00E94F21185E58F838BE8F3
:101780008093170281E08093180280E5809319020C
:1017900080931A0280931B0280931C0280931D0287
:1017A00084E080931E0228E630E041E06FE172E0C1
:1017B000CE0107960E942A0D28E630E049E0BE01DE
:1017C0006D5F7F4F87E192E00E94EF0D8B818093E8
:1017D00020028C8180932102EFE3FFE13197F1F742
:1017E00000C000002BE047E152E065E082E192E0BA
:1017F0000E94AE0610E05CC084E48F838BE8809387
:10180000170281E08093180280E58093190280938B
:101810001A0280931B0280931C0280931D0284E0B5
:1018200080931E0228E630E041E06FE172E0CE01D5
:1018300007960E942A0D28E630E049E0BE016D5F60
:101840007F4F87E192E00E94EF0D8B818093200211
:101850008C81809321028FE39FE10197F1F700C013
:1018600000002BE047E152E065E082E192E00E9457
:10187000AE06182F8823E1F0809112028093DF01D9
:10188000809113028093E001809114028093E10122
:10189000809115028093E201809116028093E3010A
:1018A00081E08093DE011092E40111E001C010E0BC
:1018B000812F27960FB6F894DEBF0FBECDBFDF9104
:1018C000CF911F910F91FF90EF90DF90CF900895EF
:1018D0008F929F92AF92BF92CF92DF92EF92FF9240
:1018E000CF93DF9300D0CDB7DEB78091DE018111B9
:1018F00010C080911E02813009F063C00E94EB0A83
:10190000882309F45EC08FEC91E00E94F211969A50
:1019100058C080911E02893009F441C028F48530F6
:1019200051F08730A9F04DC0803109F445C08231B3
:1019300009F445C046C089EB91E00E94F2110E9473
:101940008A088823F1F18BEB91E00E94F21139C0F3
:101950008EEB91E00E94F2110E94C508882389F164
:1019600083EC91E00E94F2118091100290E0982F98
:10197000882720911102822B9A83898389809A80FB
:10198000282D392D40E050E060E070E080E090E0EC
:101990000E94E0108FED90E00E94F21112C087ECDF
:1019A00091E00E94F2110E942609882351F089ECEF
:1019B00091E00E94F21105C00E94910902C00E94AC
:1019C0003B0A0F900F90DF91CF91FF90EF90DF9047
:1019D000CF90BF90AF909F908F9008950F931F93DB
:1019E000CF93DF93442399F0C82FD92FA62FB72F79
:1019F00050E06991052F017010E0C901800F911F1F
:101A0000FC01808186278D935F5F5413F2CFDF91B5
:101A1000CF911F910F9108950F931F93CF93DF9351
:101A2000442399F0C62FD72FA82FB92F50E06991E2
:101A3000052F017010E0C901800F911FFC0180810A
:101A400086278D935F5F5413F2CFDF91CF911F9163
:101A50000F910895CF93DF93F901442399F0382F24
:101A6000C62FD72FA82FB92F9D9121818081822742
:101A70002281822723818227892789938A2F831BAA
:101A8000841790F3DF91CF910895CF93DF93F901FD
:101A9000442399F0362FC82FD92FA62FB72F9D9109
:101AA00021818081822722818227238182278927A1
:101AB00089938A2F831B841790F3DF91CF91089528
:101AC0003F924F925F926F927F928F929F92AF92CE
:101AD000BF92CF92DF92EF92FF920F931F93CF931B
:101AE000DF938C017B01342E6901442309F444C047
:101AF000C0E0812C912C5401839444244A94542CAA
:101B0000612C712CF801EC0FF11DA081B0E0A50152
:101B100094010E94F913A30192010E94D7134B0173
:101B20005C01CE5FC31570F381E0831570F5E801A9
:101B300021960D5F1F4F3A943A943694832D90E08E
:101B4000880F991F080F191F61E070E080E090E096
:101B500044244A94542C612C712CA881B0E09B0140
:101B6000AC010E94F913A30192010E94D71322969F
:101B7000C017D10791F70DC0812C912C540183948B
:101B800061E070E080E090E004C061E070E080E03F
:101B900090E0682579258A259B252FEF3FEF40E0CF
:101BA00050E00E94D713F60180817827F7017083F7
:101BB000F60181816827F7016183DF91CF911F9141
:101BC0000F91FF90EF90DF90CF90BF90AF909F90DC
:101BD0008F907F906F905F904F903F9008953F92CD
:101BE0004F925F926F927F928F929F92AF92BF922D
:101BF000CF92DF92EF92FF920F931F93CF93DF93D9
:101C00008C016B01342E7901442309F444C0C0E0F7
:101C1000812C912C5401839444244A94542C612C9B
:101C2000712CF801EC0FF11DA081B0E0A501940129
:101C30000E94F913A30192010E94D7134B015C018A
:101C4000CE5FC31570F381E0831570F5E80121962E
:101C50000D5F1F4F3A943A943694832D90E0880F8D
:101C6000991F080F191F61E070E080E090E04424A4
:101C70004A94542C612C712CA881B0E09B01AC01DA
:101C80000E94F913A30192010E94D7132296C01754
:101C9000D10791F70DC0812C912C5401839461E000
:101CA00070E080E090E004C061E070E080E090E0EF
:101CB000682579258A259B252FEF3FEF40E050E0EE
:101CC0000E94D713F7019181808189277827F60137
:101CD0007083F7019381828189276827F6016183E8
:101CE000DF91CF911F910F91FF90EF90DF90CF90F8
:101CF000BF90AF909F908F907F906F905F904F902C
:101D00003F900895CF92DF92EF92FF920E94B40726
:101D1000C0906C00D0906D00E0906E00F0906F006D
:101D2000A0E0B0E09C01AD012F5F3F4F4F4F5F4FF0
:101D300064E474E484E090E00E94C7136C0D7D1DA0
:101D40008E1D9F1D2FEF3FEF40E050E00E94D71304
:101D500060936C0070936D0080936E0090936F00A1
:101D600080916C0090916D00A0916E00B0916F0019
:101D7000FF90EF90DF90CF900895CF93DF931F9265
:101D8000CDB7DEB76DED71E087E192E00E942307E9
:101D90008823C1F08EE391E00E94F21119828091B4
:101DA000DE01813009F489832091DD0169814FEDE5
:101DB00051E087E192E00E94270881110E94680C9F
:101DC0000E9404078091DE018130A9F48091E40132
:101DD0008A3089F41092E4011092DE010E94150706
:101DE000809160000E9408060E94040796988CEC7F
:101DF00091E00E94F2110F90DF91CF9108950E941F
:101E0000240826E040E060E370E081E390E00E9477
:101E1000B80408950E941B0808958091E4018A3057
:101E200029F08091E4018F5F8093E40108952F925F
:101E30003F924F925F926F927F928F929F92AF925A
:101E4000BF92CF92DF92EF92FF920F931F93CF93A7
:101E5000DF93CDB7DEB76A970FB6F894DEBF0FBE3B
:101E6000CDBF1C01098319872A8B3B8B4D8B852E97
:101E7000698F7A8F202F312F4A895B896D89782D60
:101E8000898D9A8DA0E00E94DB148CF48DE2F10123
:101E90008083898D0E949414298339874A8B5B8BB8
:101EA0006D8B872E898F9A8F9924939401C0912CE2
:101EB000298139854A895B896D89782D898D9A8D2B
:101EC000A0E00E94DB14C9F0A12C0F2EFAECBF2E6B
:101ED000F02D0F2EFAE9CF2EF02D0F2EFBE3DF2E83
:101EE000F02DE12CF12C00E010E00E940614B22F3E
:101EF000A0E00E94DB1431F0CFC080E3F1018083C9
:101F000081E004C10F2E412CFAEC5F2EFAE96F2E0E
:101F1000FBE37F2EF02D9A86388E2F8A9A883B8895
:101F20002D88C301B2012AE030E040E050E00E9479
:101F3000D71329013A0189019A01A02EB12EC22E90
:101F4000D32EE12CF12C00E010E029813985492DB8
:101F5000532D622D782D898D9A8D0E940614A0E054
:101F60000E94DB14F1F29A842F88388C930182014D
:101F700040E050E0BA017101E90CF11CF88EEF8AE3
:101F80004A861B872C873D874E875F87688B798BB6
:101F9000A42CB12EC22ED32EE12CF12C00E010E0A7
:101FA000298139854A895B896D89782D898D9A8D3A
:101FB0000E940614205DEF89F88D20839394298177
:101FC00039854A895B896D89782D898D9A8D0E9422
:101FD0000414822E39874A87E52E162F072FF82EF4
:101FE0009A8BF1E04F1651046104710409F086C028
:101FF00051C0C301B2012AE030E040E050E00E944D
:10200000D71329013A0159016A01E12CF12C87010A
:102010002983BA82CB82DC82ED82FE820F8318870D
:10202000CD88DE88EA8CCE0CD11CDC8ACB8ACB80B2
:10203000DC80E12CF12C00E010E0282D39854A8568
:10204000522D632D792D898D9A890E940614205D69
:10205000EB89FC892083FA8DFF5FFA8F282D398563
:102060004A85522D632D792D898D9A890E940414F9
:10207000822E39874A87252E362E972E898F9A8B66
:1020800001E0401651046104710409F0B2CF9A8C4A
:10209000892D3CC0892D3AC0F101E90DF11DB05DDB
:1020A000B0839394A12C0F2EFAECBF2EF02D0F2E9F
:1020B000FAE9CF2EF02D0F2EFBE3DF2EF02DE12CD1
:1020C000F12C00E010E0298139854A895B896D890E
:1020D000782D898D9A8D0E940414822E39874A8723
:1020E000E52E162F072FF82E9A8B0F2E412CFAEC87
:1020F0005F2EFAE96F2EFBE37F2EF02D9A8E3E8A3B
:102100002D8A2E2C312E902EF98E73CF6A960FB613
:10211000F894DEBF0FBECDBFDF91CF911F910F911D
:10212000FF90EF90DF90CF90BF90AF909F908F90F7
:102130007F906F905F904F903F902F90089522E096
:1021400040E069E370E08AE390E00E94B80423E095
:1021500040E069E370E08AE390E00E94B80424E084
:1021600040E069E370E08AE390E00E94B8040895DB
:10217000CF92DF92EF92FF920F931F930F2EF0E812
:10218000CF2EF5E2DF2EE12CF12CF02D06E010E051
:1021900020E048E160E080E090E00E9408111092A9
:1021A00038021092370281E090E090933A028093D7
:1021B00039021F910F91FF90EF90DF90CF9008951B
:1021C0000F931F93CF93DF93CDB7DEB72F970FB643
:1021D000F894DEBF0FBECDBF022F132F242F352F53
:1021E000462F572F682F792FCE0101960E94170F87
:1021F000682FCE0101960E94DD112F960FB6F8943C
:10220000DEBF0FBECDBFDF91CF911F910F9108951B
:102210009F92AF92BF92CF92DF92EF92FF920F9375
:102220001F93CF93DF93EC01B62EA42E922E21E0C4
:1022300040E060E370E081E390E00E94B80420E0B9
:1022400040E062E370E081E390E00E949B041AB8F2
:10225000892D802B80689C2E982A90BC8AB1A82A50
:10226000BA28BAB88AB1182B1AB98BB18D2B8BB991
:10227000CE0180549109029740F420E040E066E3EB
:1022800070E087E390E00E94B804C234D10530F4D6
:10229000C034D105C8F5CD2B29F050C0C115D240AE
:1022A000E1F04CC0CC0CDD1CEE1CFF1CCC0CDD1C8A
:1022B000EE1CFF1CA7019601220F331F441F551F60
:1022C000220F331F441F551F60E074E284EF90E03B
:1022D0000E94D7132150310933C0CC0CDD1CEE1CF9
:1022E000FF1CCC0CDD1CEE1CFF1CA7019601220F6D
:1022F000331F441F551F60E074E284EF90E00E949A
:10230000D713215031091CC0C701B6010E943913EF
:102310009B01AC010E9441129B01AC0160E074E2A0
:1023200084E79BE40E94A51220E030E040E85FE3F0
:102330000E9440120E940D139B0102C020E030E079
:1023400029B9832F8F7080BDDF91CF911F910F919D
:10235000FF90EF90DF90CF90BF90AF909F90089547
:102360001092E5011092E6011092E7011092E80147
:102370008CB920C08091E5019091E601A091E70120
:10238000B091E8010196A11DB11D8093E5019093E4
:10239000E601A093E701B093E8018091E5019091F7
:1023A000E601A091E701B091E8018135934CA105C8
:1023B000B10510F45D9BDECF08950F931F93CF936B
:1023C000DF93062F662349F0C82FD92F10E089919B
:1023D0000E94B0111F5F1013FACFDF91CF911F91B0
:1023E0000F9108951F93CF93DF93EC018881882389
:1023F00081F010E00E94B0118FE99FE00197F1F7A2
:1024000000C000001F5FFE01E10FF11D80818111FE
:10241000F1CF80E00E94B011DF91CF911F9108951C
:102420008F92AF92CF92EF92FF920F931F931F92D2
:10243000812CA12CCC24C394E12CF12C00E010E0E1
:1024400024E040E060E080E00E94B90721E040E045
:1024500060E083E00E94A4078FB780688FBF0F9071
:102460001F910F91FF90EF90CF90AF908F900895B4
:102470000E945D0108950E940D0F0E94330108958E
:102480005058BB27AA270ED048C139D130F03ED1D1
:1024900020F031F49F3F11F41EF42EC10EF4E095AC
:1024A000E7FB24C1E92F4AD180F3BA17620773070B
:1024B0008407950718F071F49EF562C10EF4E0955B
:1024C0000B2EBA2FA02D0B01B90190010C01CA01EE
:1024D000A0011124FF27591B99F0593F50F4503E99
:1024E00068F11A16F040A22F232F342F4427585F8B
:1024F000F3CF469537952795A795F0405395C9F7A3
:102500007EF41F16BA0B620B730B840BBAF091505A
:10251000A1F0FF0FBB1F661F771F881FC2F70EC0F9
:10252000BA0F621F731F841F48F4879577956795CC
:10253000B795F7959E3F08F0B3CF9395880F08F0B5
:102540009927EE0F9795879508950CD0E6C0DED0B9
:1025500040F0D5D030F021F45F3F19F0C7C05111E1
:1025600010C1CAC0EBD098F39923C9F35523B1F336
:10257000951B550BBB27AA2762177307840738F0F2
:102580009F5F5F4F220F331F441FAA1FA9F333D051
:102590000E2E3AF0E0E830D091505040E695001C05
:1025A000CAF729D0FE2F27D0660F771F881FBB1FC1
:1025B000261737074807AB07B0E809F0BB0B802D9B
:1025C000BF01FF2793585F4F2AF09E3F510568F0E7
:1025D0008DC0D7C05F3FECF3983EDCF386957795CE
:1025E0006795B795F7959F5FC9F7880F911D9695E9
:1025F000879597F90895E1E0660F771F881FBB1F45
:10260000621773078407BA0720F0621B730B840BF1
:10261000BA0BEE1F88F7E095089598D088F09F5781
:1026200090F0B92F9927B751A0F0D1F0660F771F1E
:10263000881F991F1AF0BA95C9F712C0B13081F0FE
:102640009FD0B1E008959CC0672F782F8827B85F8E
:1026500039F0B93FCCF3869577956795B395D9F75F
:102660003EF490958095709561957F4F8F4F9F4F69
:102670000895E89409C097FB3EF490958095709575
:1026800061957F4F8F4F9F4F9923A9F0F92F96E9BE
:10269000BB279395F695879577956795B795F11133
:1026A000F8CFFAF4BB0F11F460FF1BC06F5F7F4FD0
:1026B0008F4F9F4F16C0882311F096E911C07723E2
:1026C00021F09EE8872F762F05C0662371F096E8EB
:1026D000862F70E060E02AF09A95660F771F881FBA
:1026E000DAF7880F9695879597F9089597F99F6778
:1026F00080E870E060E008959FEF80EC089500248A
:102700000A941616170618060906089500240A9456
:1027100012161306140605060895092E0394000CDC
:1027200011F4882352F0BB0F40F4BF2B11F460FF6B
:1027300004C06F5F7F4F8F4F9F4F089557FD905894
:10274000440F551F59F05F3F71F04795880F97FB75
:10275000991F61F09F3F79F087950895121613062F
:102760001406551FF2CF4695F1DF08C0161617065E
:102770001806991FF1CF8695710561050894089593
:10278000E894BB2766277727CB0197F90895DB01EB
:102790008F939F930E94F913BF91AF91A29F800DD9
:1027A000911DA39F900DB29F900D11240895A1E259
:1027B0001A2EAA1BBB1BFD010DC0AA1FBB1FEE1FBB
:1027C000FF1FA217B307E407F50720F0A21BB30B06
:1027D000E40BF50B661F771F881F991F1A9469F782
:1027E00060957095809590959B01AC01BD01CF01DE
:1027F00008950E94E714A59F900DB49F900DA49F8B
:10280000800D911D11240895689401C0E894F92F5A
:10281000F12B12F00C943814A0E0B0E0E2E1F4E106
:102820000C94AA14092E059422F40E9494141123E6
:1028300092F4F0E80F26FFEFE094F09400951095E5
:10284000B094C094D094A194BF0ACF0ADF0AEF0AD3
:10285000FF0A0F0B1F0B0E94431407FC0E949414E5
:10286000CDB7DEB7ECE00C94C614689401C0E894D0
:102870008F929F92CF93DF930E944314DF91CF9169
:102880009F908F90089588249924F401E401B0E486
:102890009F93AA279A158B049C04ED05FE05CF058E
:1028A000D007A10798F4AD2FDC2FCF2FFE2FE92DF5
:1028B000982C892E982F872F762F652F542F432FF2
:1028C000322F2227B85031F7BF9127C01B2EBF915E
:1028D000BB27220F331F441F551F661F771F881FFA
:1028E000991F881C991CEE1FFF1FCC1FDD1FAA1FFC
:1028F000BB1F8A149B04EC05FD05CE05DF05A00770
:10290000B10748F08A189B08EC09FD09CE09DF09D8
:10291000A00BB10B21601A94E1F62EF49401AF01E3
:10292000BE01CD01000C089560957095809590953D
:1029300030954095509521953F4F4F4F5F4F6F4FCA
:102940007F4F8F4F9F4F08952F923F924F925F92EC
:102950006F927F928F929F92AF92BF92CF92DF92AF
:10296000EF92FF920F931F93CF93DF93CDB7DEB714
:10297000CA1BDB0B0FB6F894DEBF0FBECDBF0994A8
:102980002A88398848885F846E847D848C849B84FF
:10299000AA84B984C884DF80EE80FD800C811B810D
:1029A000AA81B981CE0FD11D0FB6F894DEBF0FBE3C
:1029B000CDBFED0108950024A7FD00942A1730052E
:1029C0004005500560057005800590050895A29F9B
:1029D000B001B39FC001A39F700D811D1124911DF3
:1029E000B29F700D811D1124911D0895F894FFCFA1
:1029F0000209263E59636F794747474701000000A7
:102A000066697273742074696D650A0042414449B5
:102A1000535220310A0042414449535220320A00A5
:102A200042414449535220330A00424144495352DF
:102A300020340A0042414449535220350A004241A1
:102A40004449535220360A004241444953522037E8
:102A50000A0042414449535220380A004241444945
:102A6000535220390A004241444953522031300A1E
:102A7000004241444953522031310A004241444905
:102A800053522031320A00424144495352203133DB
:102A90000A004241444953522031340A0042414421
:102AA0004953522031350A004241444953522031A2
:102AB000360A004241444953522031370A0042410C
:102AC000444953522031380A004241444953520A82
:102AD000004E4557206865726520737461727400FA
:102AE00073746174653A0048455245204641494C2B
:102AF00031300A0048455245204641494C31310A9F
:102B0000004348414E4E454C203A00202044415459
:102B100041203A200052454144494E472041444417
:102B200052455353203A2000636F6E6E65637420E4
:102B3000726571756573740A00580A0058530A006B
:102B4000480A004641494C0A005420420A005420D9
:102B5000530A00533A20005420430A004449534387
:0A2B60004F4E4E45435445440A0011
:00000001FF
