:1000000061C000007DC000007BC0000079C000001E
:1000100077C0000075C0000073C000005AC7000020
:100020006FC000006DC000002DC7000069C0000057
:1000300067C0000065C00000AAC6000061C00000E3
:10004000D2C600005DC00000F6C6000059C0000026
:1000500068C7000055C0000053C0000051C0000038
:100060004FC000004DC000004BC0000049C0000060
:1000700047C0000045C0000043C0000041C0000070
:100080003FC000003DC000003BC00000F301F5018F
:10009000F701F901FB01FD01FF01E701E901EB01B6
:1000A000ED01EF01F101E301E5011A0520051D0550
:1000B0002305260529052C052F05320535053805AC
:1000C0003B053E0511241FBECFEFD0E1DEBFCDBF03
:1000D00013E0A0E0B1E0E6E5F8E600E00BBF02C007
:1000E00007900D92AC31B107D9F727E0ACE1B3E04E
:1000F00001C01D92AD3AB207E1F744D70C94293400
:1001000037C78F929F92AF92BF92CF92DF92EF92BA
:100110000F930F2E812CF2EC9F2EAA24A394B12CC6
:10012000F02D0F2EF6E0CF2ED12CF02DE12C08E192
:1001300020E041E061E080E092E00E9445130F91F1
:10014000EF90DF90CF90BF90AF909F908F900895E9
:100150000A9B18C09091210380912003981305C039
:1001600010922103109220030895E0912103F0E002
:10017000ED5CFC4F80818CB9809121038F5F80936F
:100180002103089510922203089510921F0381E025
:1001900080931E0382E08093220310922103109229
:1001A00020038FE08CB9089510921F0381E08093A3
:1001B0001E038093220310922103109220038EE0ED
:1001C0008CB9089510921F0385E080931E038AE086
:1001D00080932203109221031092200388E08CB9AF
:1001E000089510921F0385E080931E038BE0809397
:1001F0002203109221031092200389E08CB9089504
:1002000080912E038093340381E08093210382E068
:1002100080932003109222038AE08CB9089581E034
:10022000809334038093210382E080932003109213
:1002300022038BE08CB9089580E18093340380E23F
:100240008093350380E38093360380E48093370303
:1002500080E58093380381E08093210386E08093DA
:100260002003109222038CE08CB9089510921F0392
:1002700081E080931E038CE080932203109221037F
:10028000109220038DE08CB9089510921F038EE127
:1002900080931E0383E08093220310922103109227
:1002A000200381E08CB9089510921F0386E28093A9
:1002B0001E0384E0809322031092210310922003F6
:1002C00082E08CB908958091E003882339F0109280
:1002D0002103109220038DED8CB9089510921F0315
:1002E0008BE080931E0385E080932203109221030C
:1002F0001092200383E08CB908958091FF04882335
:1003000039F010922103109220038DED8CB90895DD
:1003100010921F0385E080931E0386E080932203E2
:10032000109221031092200384E08CB908958091EB
:100330003E05882339F010922103109220038DEDA1
:100340008CB9089510921F0385E080931E0397E0F7
:100350009093220310922103109220038CB90895E8
:100360008091E104882339F0109221031092200338
:100370008DED8CB9089510921F0385E080931E03C4
:1003800088E080932203109221031092200386E0DC
:100390008CB9089510921F0388E080931E0389E0B2
:1003A00080932203109221031092200387E08CB9DE
:1003B000089590E0FC013197EF30F10508F5EA5B14
:1003C000FF4F0C944433F0CE0895DFCE0895FACE5B
:1003D000089507CF089514CF089521CF08952CCF05
:1003E000089544CF089551CF08955ECF08956BCFFF
:1003F000089583CF08959BCF0895B2CF0895CACFB3
:1004000008951092220310922103109220038D323E
:1004100031F481E0809325038AEA8CB908958DED4B
:100420008CB9089510922203109221031092200398
:100430008D3231F481E0809326038AEA8CB90895E5
:100440008DED8CB90895CF93DF931F92CDB7DEB7B2
:10045000E0911F03F0E0E55AFC4F808380911F0379
:100460008F5F80931F0390911F0380911E03981349
:100470002DC010922203198289818F3080F4E98186
:10048000F0E0A981B0E0A55ABC4F8C91EB5BF84F2E
:10049000808389818F5F898389818F3080F319827E
:1004A00089818F3080F4E981F0E0A981B0E0A6591C
:1004B000BC4F8C91E359F84F808389818F5F89838A
:1004C00089818F3080F381E0809331031092210382
:1004D000109220038AEA8CB90F90DF91CF91089592
:1004E000CF93DF931F92CDB7DEB7E0911F03F0E00B
:1004F000E55AFC4F808380911F038F5F80931F0319
:1005000090911F0380911E03981339C0109222030B
:1005100080915B038093AB07198289818A3080F4D4
:10052000E981F0E0A981B0E0A45ABC4F8C91E75179
:10053000FA4F808389818F5F898389818A3080F334
:100540008091660380938A0719828981893180F4BA
:10055000E981F0E0A981B0E0A959BC4F8C91EC5A37
:10056000F84F808389818F5F89838981893180F306
:10057000809180038093870781E0809330031092FD
:100580002103109220038AEA8CB90F90DF91CF915A
:100590000895E0911F03F0E0E55AFC4F80838091BD
:1005A0001F038F5F80931F0390911F0380911E0391
:1005B000981331C01092220380915F038093E3046B
:1005C00080915E038093E40480915D038093E50451
:1005D00080915C038093E60480915B038093E70441
:1005E000809160038093E804809161038093E90423
:1005F000809162038093EA04809163038093EB040B
:10060000809164038093EC04809165038093ED04F2
:1006100081E08093E00310922103109220038AEA84
:100620008CB90895E0911F03F0E0E55AFC4F8083F8
:1006300080911F038F5F80931F0390911F03809110
:100640001E03981319C01092220380915F038093B8
:10065000330580915E038093340580915D03809320
:10066000350580915C038093360580915B03809310
:10067000370581E08093FF0410922103109220033C
:100680008AEA8CB90895E0911F03F0E0E55AFC4F27
:10069000808380911F038F5F80931F0390911F03BE
:1006A00080911E03981319C01092220380915F035A
:1006B0008093380580915E038093390580915D03B6
:1006C00080933A0580915C0380933B0580915B03A6
:1006D00080933C0581E080933E05109221031092A7
:1006E00020038AEA8CB90895E0911F03F0E0E55AEF
:1006F000FC4F808380911F038F5F80931F03909135
:100700001F0380911E03981319C010922203809139
:100710005F038093DC0480915E038093DD0480910D
:100720005D038093DE0480915C038093DF048091FD
:100730005B038093E00481E08093E1041092210345
:10074000109220038AEA8CB90895E0911F03F0E02B
:10075000E55AFC4F808380911F038F5F80931F03B6
:1007600090911F0380911E03981325C010922203BD
:1007700080915B038093070180915C038093060165
:1007800080915D038093050180915E038093040155
:1007900080915F0380930301809160038093020145
:1007A0008091610380930101809162038093000135
:1007B00081E08093230310922103109220038AEAA0
:1007C0008CB90895CF93DF931F92CDB7DEB7E09138
:1007D0001F03F0E0E55AFC4F808380911F038F5F79
:1007E00080931F0390911F0380911E0398131CC0D8
:1007F00065E08BE593E00E94611E89838981E98130
:1008000089E1E89FF0011124EF51FC4F848580932A
:10081000340381E08093210382E0809320031092CF
:1008200022038AEA8CB906C0109221031092200399
:100830008AEA8CB90F90DF91CF910895CF93DF931F
:100840001F92CDB7DEB7E0911F03F0E0E55AFC4FF1
:10085000808380911F038F5F80931F0390911F03FC
:1008600080911E0398131CC065E08BE593E00E9405
:10087000611E89838981E98189E1E89FF001112462
:10088000EF51FC4F86858093340381E080932103F0
:1008900082E080932003109222038AEA8CB906C07A
:1008A00010922103109220038AEA8CB90F90DF91F5
:1008B000CF910895E0911F03F0E0E55AFC4F80834B
:1008C00080911F038F5F80931F0390911F0380917E
:1008D0001E03981385C0EBE5F3E0A08189E18A9FB0
:1008E000D0011124AF51BC4F15969C9190933403C5
:1008F000A0818A9FD0011124AF51BC4F14969C91C6
:1009000090933503A0818A9FD0011124AF51BC4F31
:1009100013969C9190933603A0818A9FD001112455
:10092000AF51BC4F12969C9190933703A0818A9F40
:10093000D0011124AF51BC4F11969C919093380374
:10094000A0818A9FD0011124AF51BC4F16969C9173
:1009500090933903A0818A9FD0011124AF51BC4FDD
:1009600017969C9190933A03A0818A9FD0011124FD
:10097000AF51BC4F18969C9190933B03A0818A9FE6
:10098000D0011124AF51BC4F19969C9190933C0318
:10099000A0818A9FD0011124AF51BC4F1A969C911F
:1009A00090933D03A0818A9FD0011124AF51BC4F89
:1009B0001B969C9190933E03E0818E9FF001112441
:1009C000EF51FC4F848580933F0381E080932103A6
:1009D0008DE080932003109222038AEA8CB9089557
:1009E00010922103109220038AEA8CB90895CF92C5
:1009F000EF920F930A9B45C080911C0381110DC09B
:100A000081E080931C03C12CEE24E39400E020E0FD
:100A100045E060E080E00E949D1210921D038091ED
:100A2000220390E08D30910570F5FC01EB5AFF4FE9
:100A30000C9444338CB1BDDC26C08CB1E2DC23C005
:100A40008CB1F0DC20C08CB1FEDC1DC08CB148DD67
:100A50001AC08CB19EDD17C08CB1E4DD14C08CB11E
:100A600012DE11C08CB140DE0EC08CB16EDE0BC048
:100A70008CB1A8DE08C08CB1E1DE05C08CB11ADFF4
:100A800002C0109222030F91EF90CF90089522E0C0
:100A900040E063E270E082E290E077D223E040E061
:100AA00061E270E082E290E08DC208950A9B02C08C
:100AB0001B9A0895109222031B98089580911D039C
:100AC0008F5F80931D0380911D038E3141F40E943E
:100AD0009A1210921D0310921C0310922203089583
:100AE000FC011282108287E081830895DC01129656
:100AF0008C911297883029F18F5F12968C93129700
:100B000011968C91119790E00196877090781196CC
:100B10008C9311974423A9F0E62FF72F20E030E0C3
:100B2000BD0158E2859F600D711D1124CB015191CB
:100B3000DC01A20FB31F13965C932F5F3F4F241766
:100B4000B0F30895FC012281222341F02081F8E2D4
:100B50002F9F800D911D11240396089580E090E051
:100B60000895FC012281222341F0808190E00196CA
:100B70008770907880832150228308958FEF80932F
:100B8000610010B81092620020E040E069E370E07C
:100B90008AE390E017D221E040E069E370E08AE365
:100BA00090E010D222E040E069E370E08AE390E058
:100BB00009C20895CF93DF9384EF91E00E942F1133
:100BC000843481F4C0E0D0E0CE018B509E4F0E946F
:100BD0002F11FE01E050FF4F80832196C830D105D0
:100BE00099F714C0C0E0D0E0FE01E050FF4F6081F3
:100BF000CE018B509E4F0E9437112196C830D105EF
:100C000099F764E484EF91E00E943711DF91CF916E
:100C10000895D0CF0895CF93DF9380912303882345
:100C200089F010922303C0E0D0E0FE01E050FF4FB6
:100C30006081CE018B509E4F0E9437112196C830A3
:100C4000D10599F7DF91CF9108958091240390E029
:100C500001968770907880932403E0912403F0E05C
:100C6000E050FF4F8081809362008BB3909124030A
:100C7000887F892B8BBB089520E040E063E670E01D
:100C800084E690E09FD125E040E061E270E082E2FE
:100C900090E098C108958F929F92AF92BF92CF92A9
:100CA000DF92EF920F932FEF83ED90E3215080407E
:100CB0009040E1F700C0000000E020E040E061E08B
:100CC00070E080E10E94C411E2DE58DF0E94D3147C
:100CD0000E94991C0E944A2FCFDF0E94ED2E11DA4C
:100CE0000F2EF0E88F2EF5E29F2EA12CB12CF02DC7
:100CF0000F2EF6E0CF2ED12CF02DE12C08E120E0D4
:100D000040E060E080E090E00E94FB13AA9A81DF5F
:100D10000E94122F0E94D01D8AE191E00E94062FAE
:100D20000E94D1140E94D62FE5E6F0E08081816018
:100D3000808382E291E00E94062F0F91EF90DF9076
:100D4000CF90BF90AF909F908F9008958091260391
:100D5000882321F0109226030C94391F0895809166
:100D60002503882331F0109225030E94391F0C942B
:100D70008A31089550DF0E94B2300E948A2E96DE9A
:100D8000E5DFEDDF93B180E2892783B908951F92F3
:100D90000F920FB60F9211240BB60F922F933F9321
:100DA0004F935F936F937F938F939F93AF93BF9373
:100DB000EF93FF9395B384E0892785BB0E94462F6C
:100DC000FF91EF91BF91AF919F918F917F916F9123
:100DD0005F914F913F912F910F900BBE0F900FBEDF
:100DE0000F901F9018951F920F920FB60F9211241B
:100DF0000BB60F922F933F934F935F936F937F9315
:100E00008F939F93AF93BF93EF93FF930E94432FD2
:100E1000FF91EF91BF91AF919F918F917F916F91D2
:100E20005F914F913F912F910F900BBE0F900FBE8E
:100E30000F901F9018951F920F920FB60F921124CA
:100E40000BB60F922F933F934F935F936F937F93C4
:100E50008F939F93AF93BF93EF93FF93C8DDFF9161
:100E6000EF91BF91AF919F918F917F916F915F9122
:100E70004F913F912F910F900BBE0F900FBE0F908F
:100E80001F9018951F920F920FB60F9211240BB658
:100E90000F922F933F934F935F936F937F938F9313
:100EA0009F93AF93BF93EF93FF9308DEFF91EF9172
:100EB000BF91AF919F918F917F916F915F914F9172
:100EC0003F912F910F900BBE0F900FBE0F901F9070
:100ED00018951F920F920FB60F9211240BB60F9216
:100EE0002F933F934F935F936F937F938F939F9332
:100EF000AF93BF93EF93FF930E94E72EFF91EF9183
:100F0000BF91AF919F918F917F916F915F914F9121
:100F10003F912F910F900BBE0F900FBE0F901F901F
:100F200018951F920F920FB60F9211240BB60F92C5
:100F30002F933F934F935F936F937F938F939F93E1
:100F4000AF93BF93EF93FF9303D9FF91EF91BF91BD
:100F5000AF919F918F917F916F915F914F913F9151
:100F60002F910F900BBE0F900FBE0F901F901895F2
:100F70001F920F920FB60F9211240F900FBE0F9079
:100F80001F90189588DEF6DEFECFFB01DC013C9158
:100F900061E070E0022E02C0660F771F0A94E2F74C
:100FA000609536233C93808168236083808150E084
:100FB000BA0102C0660F771F2A95E2F79B01282B22
:100FC00020830895FB01DC013C9161E070E0022E7A
:100FD00002C0660F771F0A94E2F7362B3C9380819C
:100FE000609568236083808150E0BA0102C0660F7B
:100FF000771F2A95E2F79B01282B208308951F93E2
:10100000CF93DF931F92CDB7DEB7182F40E05CE699
:101010006CED72E0CE0101960E94DB12998199235A
:1010200021F0811721F082E003C081E001C080E05F
:101030000F90DF91CF911F910895CF93DF931F926F
:10104000CDB7DEB78DE0DBDF89838981882311F09E
:10105000898129C08AE0D3DF89838981882311F0BF
:10106000898121C08FE4CBDF89838981882311F0B6
:10107000898119C08BE4C3DF89838981882311F0BA
:10108000898111C08DE0BBDF89838981882311F0BC
:10109000898109C08AE0B3DF89838981882311F0BF
:1010A000898101C080E00F90DF91CF910895CF93A7
:1010B000DF931F92CDB7DEB745E050E060E070E00F
:1010C000CE0101960E94DB1289818130A9F364E090
:1010D00070E08AE291E00E94B61440E05CE66CEDBC
:1010E00072E0CE0101960E94DB129981992359F199
:1010F000823659F18134A1F484E581DF811126C063
:101100008DE07DDF811122C08DE079DF81111EC06D
:101110008AE075DF81111AC08DE071DF811116C080
:101120008AE06DDF811112C08FE469DF81110EC08A
:101130008BE465DF81110AC08DE061DF811106C09B
:101140008AE05DDF03C081E001C083E00F90DF91A2
:10115000CF910895CF93DF931F92CDB7DEB745E0CF
:1011600050E060E070E0CE0101960E94DB128981C0
:101170008130A9F366E070E08FE291E00E94B6143E
:101180002FEF83ED90E3215080409040E1F700C0C5
:10119000000080E00F90DF91CF910895CF93DF930F
:1011A0001F92CDB7DEB745E050E060E070E0CE01C1
:1011B00001960E94DB1289818130A9F361E170E020
:1011C00086E391E00E94B61438DF0F90DF91CF9153
:1011D0000895CF93DF931F92CDB7DEB745E050E07F
:1011E00060E070E0CE0101960E94DB1289818130BF
:1011F000A9F361E170E088E491E00E94B6141DDF7C
:101200000F90DF91CF9108950F931F93CF93DF93AA
:101210001F92CDB7DEB78C0145E050E060E070E092
:10122000CE0101960E94DB1289818130A9F36EE024
:1012300070E08AE591E00E94B61483E5E0DE81115A
:1012400028C040E05CE66CED72E0CE0101960E94A1
:10125000DB1299819923D1F08A3399F740E05CE65B
:101260006CED72E0CE0101960E94DB129981992308
:1012700079F08053F80180838DE0C1DE811109C0CF
:101280008AE0BDDE811105C0D8DE03C081E001C067
:1012900081E00F90DF91CF911F910F910895CF9230
:1012A000DF92EF92FF920F931F93CF93DF931F92E2
:1012B000CDB7DEB77C01C62E8A01D22E80912703DE
:1012C00081112CC045E050E060E070E0CE01019655
:1012D0000E94DB1289818130A9F36EE070E089E61B
:1012E00091E00E94B6146C2D70E0C7010E94B61404
:1012F00063E070E088E791E00E94B6146D2D70E025
:10130000C8010E94B61463E070E08CE791E00E948F
:10131000B6141092280381E080932703809128035C
:10132000803279F41092280345E050E060E070E0EC
:10133000CE0101960E94DB1289818130A9F3B7DECC
:1013400001C083E00F90DF91CF911F910F91FF902B
:10135000EF90DF90CF900895CF93DF931F92CDB79A
:10136000DEB745E050E060E070E0CE0101960E94FB
:10137000DB1289818130A9F36BE270E080E891E0B3
:101380000E94B61483E43BDE811110C040E05CE6AD
:101390006CED72E0CE0101960E94DB1299819923D7
:1013A00021F08A3099F749DE01C081E00F90DF918A
:1013B000CF9108959F92AF92BF92CF92DF92EF921A
:1013C000FF920F931F93CF93DF9300D000D000D0F4
:1013D000CDB7DEB76C01A62E942E7901B02E042F66
:1013E00010E020E030E040E050E060E070E0CE014E
:1013F0000196D4D20DE10B0D0A0D080F20E030E06C
:1014000040E050E060E070E0CE010196C7D2182FB6
:1014100045E050E060E070E0CE0106960E94DB12ED
:101420009E819130A9F36BE070E08CEA91E00E941C
:10143000B614612F70E0CE0101960E94B61462E0EE
:1014400070E08DE791E00E94B614F7DD81114AC08B
:101450008EE3D5DD811146C0092D10E020E030E09B
:1014600040E050E060E070E0CE01019697D2182F86
:1014700064E170E088EB91E00E94B6146A2D70E0A0
:10148000C6010E94B61466E070E08DEC91E00E9407
:10149000B614612F70E0CE0101960E94B6148DE360
:1014A0000E9414136B2D70E0C7010E94B61462E015
:1014B00070E08DE791E00E94B6142FEF81EE94E08A
:1014C000215080409040E1F700C0000045E050E02E
:1014D00060E070E0CE0106960E94DB128E818130C2
:1014E000A9F380E026960FB6F894DEBF0FBECDBFFD
:1014F000DF91CF911F910F91FF90EF90DF90CF90F0
:10150000BF90AF909F9008956F927F928F929F921D
:10151000AF92BF92CF92DF92EF92FF920F931F9301
:10152000CF93DF93CDB7DEB72B970FB6F894DEBF1E
:101530000FBECDBF6C01B62EA42E7901042F10E092
:1015400020E030E040E050E060E070E0CE01019645
:1015500025D200E40B0D080F20E030E040E050E021
:1015600060E070E0CE01019619D2182F45E050E0FE
:1015700060E070E0CE010B960E94DB129B859130FB
:10158000A9F36BE070E08CEA91E00E94B614612F41
:1015900070E0CE0101960E94B61462E070E08DE723
:1015A00091E00E94B61449DD8111F2C08EE327DD7F
:1015B0008111F0C00A2D10E020E030E040E050E062
:1015C00060E070E0CE010196E9D1182F68E270E08A
:1015D00084ED91E00E94B6146B2D70E0C6010E946C
:1015E000B61468E070E08DEF91E00E94B614612FB0
:1015F00070E0CE0101960E94B61460E170E086E0D2
:1016000092E00E94B61440E05CE66CED72E0CE0120
:101610000B96D1D79B85992309F4BEC08B3299F7DD
:1016200040E05CE66CED72E0CE010B96C4D79B8582
:10163000992309F4B4C08A3099F757016894992422
:1016400092F8712C812C40E05CE66CED72E0CE01EA
:101650000B96B1D79B85992309F4A4C08C3299F7D6
:1016600040E05CE66CED72E0CE010B96A4D79B8562
:10167000992309F49AC08C3299F78501C72CD82C8C
:101680006C2C40E05CE66CED72E0CE010B9693D7DB
:101690009B85992309F48CC0F801EC0DFD1D808316
:1016A0009EE1C916D10429F0EFEFCE1ADE0A8A3086
:1016B00039F7F801668E9A94FFE1AF0EB11C9110D4
:1016C000C2CF40E05CE66CED72E0CE010B9673D7C2
:1016D0009B85992309F46FC08C3299F710E040E0A4
:1016E0005CE66CED72E0CE010B9665D79B85992385
:1016F00009F464C0E1E0F0E0EC0FFD1FE10FF11D23
:10170000808391E0910F9B3008F4192F8C3239F7C8
:101710006FEF610FCE01019612D3842F952F422FC8
:10172000532F682F792F4093830350938403609342
:1017300085037093860300E010E067018CE7C80E14
:10174000D11CB02E40E05CE66CED72E0CE010B9651
:1017500032D79B859923A9F1F601E00FF11F808311
:101760000E31110521F00F5F1F4F8A3051F7F7013D
:10177000E458FF4FB68E40E05CE66CED72E0CE01BF
:101780000B9619D79B859923F9F08A30A1F71EC0D3
:10179000982E1CC0982E1AC09924939417C099248F
:1017A000939414C09924939411C0992493940EC0D7
:1017B000992493940BC09924939408C099249394EA
:1017C00005C09924939402C099249394892D2B9653
:1017D0000FB6F894DEBF0FBECDBFDF91CF911F9142
:1017E0000F91FF90EF90DF90CF90BF90AF909F90C0
:1017F0008F907F906F9008955ADC811107C0AADC0A
:10180000811104C0CBDC811101C0E3CC0895AF92FB
:10181000BF92CF92DF92EF92FF920F931F93CF93DD
:10182000DF931F92CDB7DEB77C01B62E6A01A22EE0
:1018300080912703811123C03ADC81113DC0CE0184
:101840000196E2DC811138C081E0F8018083898152
:10185000853059F52A2DA6016B2DC70120DD811198
:101860002BC010922703CE010196CEDC811124C03B
:1018700089818530E1F4F801108280E01DC08091FB
:1018800027038130B1F4C7010ADD811115C0109220
:101890002703CE010196B8DC81110EC08981853005
:1018A00051F4F801108280E007C080E005C080E0BC
:1018B00003C080E001C080E00F90DF91CF911F91C5
:1018C0000F91FF90EF90DF90CF90BF90AF90089571
:1018D000BF92CF92DF92EF92FF920F931F93CF931D
:1018E000DF931F92CDB7DEB76C01162FB42E7901AE
:1018F000DEDB811116C0CE01019686DC811111C09C
:101900008981853059F0833059F026DD811109C075
:1019100097014B2D612FC6014DDD03C084E001C04E
:1019200085E00F90DF91CF911F910F91FF90EF9085
:10193000DF90CF90BF900895CF92DF92EF92FF9209
:101940000F931F93CF93DF931F92CDB7DEB77C0128
:10195000D62EC42E8901ABDB811116C0CE010196B3
:1019600053DC811111C08981853059F0833059F0E1
:10197000F3DC811109C098014C2D6D2DC701C4DD28
:1019800003C084E001C085E00F90DF91CF911F91EB
:101990000F91FF90EF90DF90CF9008952F923F929C
:1019A0004F925F926F927F928F929F92AF92BF926F
:1019B000CF92DF92EF92FF920F931F93CF93DF931B
:1019C000CDB7DEB765970FB6F894DEBF0FBECDBFBB
:1019D0009B8B8A8B09831A832B833C834D835E8385
:1019E000862E972E202F312F4B815C816D817E8139
:1019F000882D992DA0E00E941D3494F48DE2EA898F
:101A0000FB898083882D0E94C13329833A834B83CD
:101A10005C836D837E83882E992EF1E0FF8301C065
:101A20001F8229813A814B815C816D817E81882D65
:101A3000992DA0E00E941D3499F02C8B388B242E18
:101A4000352E462E572E682C792C2F3F3F49424782
:101A50005E44684179408105910541F038F00AC142
:101A600080E3EA89FB89808381E050C11886F0EA2F
:101A7000F98722E72A878EE48B8798E19C87E9E043
:101A8000ED871E861F860F2EF2E79F2EF02D0F2E5C
:101A9000FEE48F2EF02DFC89F98388898A832B82BE
:101AA000212C3C82312C4D820F2EF9E04F2EF02D4F
:101AB0005E820F2EF8E15F2EF02D0F2EFAE0AF2E92
:101AC000F02DB12CC12CD12CE12CF12C00E010E038
:101AD00028853985492D582D652D742D832D922DFE
:101AE0000E94653328873987942E852E562E472EDF
:101AF000382E292EA22EB32EC42ED52EE62EF72E4A
:101B0000082F192F29813A814B815C816D817E815B
:101B1000862D972D0E946533A0E00E941D3469F246
:101B20009A868B865C864D863E862F8629812C8BF5
:101B30008A81888B2B803C804D805E808A889B8840
:101B40009F81890E911C382F422D532D642D752DA8
:101B5000862D972D0E946533205DF4012083FF813F
:101B6000FF5FFF832C893889422D532D642D752DFD
:101B7000862D972D0E94633329833A834B835C83A0
:101B80006D837E83382E292E2A2D3B2D4C2D5D2DE5
:101B90006E2D7F2D802F912FA1E00E941D3409F41E
:101BA00065C00F2EFAE0AF2EF02DB12CC12CD12C38
:101BB000E12CF12C00E010E0288539854A855B8511
:101BC0006C857D858E859F850E946533422E532EC0
:101BD000642E752E862E972E8D8B9C8B28873987A9
:101BE0004A875B876C877D878E879F878A899B89D9
:101BF000EF818E0F911D998B888BA42CB52CC62C50
:101C0000D72CE82CF92C0D891C8929813A814B812C
:101C10005C816D817E81832D922D0E946533205DD4
:101C2000E889F9892083FF81FF5FFF8329813A8159
:101C30004B815C816D817E81832D922D0E94633367
:101C400029833A834B835C836D837E83382E292ED0
:101C5000242D352D462D572D682D792D802F912F30
:101C6000A1E00E941D3409F09CCF02C08F814EC0BC
:101C70008F814CC06A887B882F81620E711CA12CD9
:101C80000F2EF0EABF2EF02D0F2EF2E7CF2EF02D03
:101C90000F2EFEE4DF2EF02D0F2EF8E1EF2EF02DAB
:101CA0000F2EF9E0FF2EF02D00E010E029813A819F
:101CB0004B815C816D817E81882D992D0E946533D9
:101CC000205DF3012083FF81FF5FFF8329813A813B
:101CD0004B815C816D817E81882D992D0E946333BB
:101CE00029833A834B835C836D837E83382E292E30
:101CF000188620EA298782E78A879EE49B87E8E1A5
:101D0000EC87F9E0FD871E861F864BCF65960FB6E0
:101D1000F894DEBF0FBECDBFDF91CF911F910F9121
:101D2000FF90EF90DF90CF90BF90AF909F908F90FB
:101D30007F906F905F904F903F902F9008954F92BB
:101D40005F926F927F928F929F92AF92BF92CF924B
:101D5000DF92EF92FF920F931F93CF93DF93862E24
:101D6000662309F447C0782EA82FB92F20E030E071
:101D700040E050E060E070E080E090E001E00E9430
:101D8000D133422E532E642E952ED62FC72FF82FE7
:101D9000E92F02E00E94D133A22EB32EC42ED52EFD
:101DA000E62EF72E082F192F242D352D462D592DCF
:101DB0006D2F7C2F8F2F9E2F0E940834A22EB32EC2
:101DC000C42ED52EE62EF72E082F192FED91F0E018
:101DD000F0979F2F990F990B2E2F3F2F492F592F97
:101DE000692F792F892F0E940834EA2FE719E81507
:101DF00028F208C020E030E040E050E060E070E011
:101E000080E090E0DF91CF911F910F91FF90EF90D4
:101E1000DF90CF90BF90AF909F908F907F906F900A
:101E20005F904F9008958FB9779BFECF8FB1089543
:101E3000CF93C62F1F988062F6DF8093AD038C2F5F
:101E4000F2DF1F9A8FE99FE00197F1F700C00000D1
:101E5000CF9108951F98E7DF8093AD038FEFE3DF05
:101E60001F9AEFE9FFE03197F1F700C000000895F5
:101E7000FF920F931F93CF93DF93F82E192F062F06
:101E80001F9881E6D0DF8093AD03002349F0CF2D6A
:101E9000D12F10E08FEFC7DF89931F5F1013FACFA8
:101EA0001F9ADF91CF911F910F91FF900895FF929C
:101EB0000F931F93CF93DF93F82E192F062F1F98A0
:101EC00080EAB1DF8093AD03002341F0CF2DD12F05
:101ED00010E08991A8DF1F5F1013FBCF1F9ADF91DD
:101EE000CF911F910F91FF9008951F9881EE9BDF76
:101EF0008093AD031F9A08951F9882EE94DF80931C
:101F0000AD031F9A08951F9880E68DDF8093AD037F
:101F10008FEF89DF1F9A0895CF93DF931F92CDB77C
:101F2000DEB787E097DF89839981892F807496FFD8
:101F300004C0698187E07CDF81E00F90DF91CF9161
:101F40000895CF93DF931F92CDB7DEB787E082DF8E
:101F500089839981892F807295FF04C0698187E008
:101F600067DF81E00F90DF91CF910895CF93DF93EA
:101F70001F92CDB7DEB787E06DDF89839981892F06
:101F8000807194FF04C0698187E052DF81E00F9087
:101F9000DF91CF910895CF93DF931F92CDB7DEB736
:101FA00080E058DF898389818E7F8983698180E021
:101FB0003FDF0F90DF91CF910895CF93DF931F9272
:101FC000CDB7DEB780E046DF898389818160898370
:101FD000698180E02DDF0F90DF91CF910895FF920E
:101FE0000F931F93CF93DF93F62E172F042F1F9875
:101FF000865F806218DF8093AD03002341F0CF2D10
:10200000D12F10E089910FDF1F5F1013FBCF1F9AB4
:10201000DF91CF911F910F91FF900895FF920F9341
:102020001F93CF93DF93F82E192F062F1F9880E36D
:10203000FADE8093AD03002341F0CF2DD12F10E0C5
:102040008991F1DE1F5F1013FBCF1F9ADF91CF91B3
:102050001F910F91FF90089580938C03682F85E066
:10206000E7CE089524E040E066E370E087E390E087
:102070000E94E20727E040E061E270E082E290E047
:102080000E94E20724E041E062E370E081E390E037
:102090000C94C50708950F931F93CF93DF931F9A56
:1020A0002FEF81EE94E0215080409040E1F700C096
:1020B0000000E7E8F3E08AE08083608180E0B8DE3A
:1020C0008FE39FE10197F1F700C00000E8E8F3E03B
:1020D00003E00083608181E0ABDEE9E8F3E0C2E089
:1020E000C083608182E0A4DEC0938A03EBE8F3E062
:1020F00085E38083608184E09BDEECE8F3E0C083CD
:10210000608185E095DEEDE8F3E084E28083608124
:1021100086E08EDE80E18093960310E210939703B1
:1021200080E38093980380E48093990380E5809313
:102130009A0345E066E973E081E051DFE5EAF3E008
:102140001083C4EAD3E01883608182E171DE688184
:1021500081E16EDEEBEAF3E0008360818CE168DE12
:10216000ECEAF3E084E0808360818DE161DEDF9161
:10217000CF911F910F910895EF92FF920F931F93AC
:10218000CF93DF93EC01F62E8A01E22EC4988FE9FB
:102190009FE00197F1F700C0000063E082E048DEB5
:1021A00060E787E045DE6F2DCE0138DF4F2DBE01A1
:1021B00080E015DF9ADEEFDE6E2DC80178DEC49A6E
:1021C0008FE39FE10197F1F700C000008499FECFF3
:1021D000C49862E082E02CDEB4DEC82F811102C018
:1021E000C5DE01C0C1E08C2FDF91CF911F910F910F
:1021F000FF90EF900895C4988FE99FE00197F1F761
:1022000000C0000060E787E013DE76DED6DEC49A09
:102210000895C4988FE99FE00197F1F700C000008E
:1022200060E787E005DE68CE08950F931F93CF9394
:10223000DF93EC018B0184990CC06EDE882351F092
:10224000C49861DEF8018083682FCE0111DE81E041
:1022500001C080E0DF91CF911F910F910895E19926
:10226000FECF9FBB8EBBE298E09A8DB308951F937B
:10227000CF93DF93D82F192FC62FF1DF8C1751F092
:10228000E199FECF1FBBDEBBCDBBE29AE098E19A9D
:10229000E199FECFDF91CF911F9108959FB79F776E
:1022A0009FBF99B7982B99BF8830C1F140F4823015
:1022B000E9F0843031F1813009F062C00EC0803223
:1022C00009F440C018F48031B1F15AC0803409F4E7
:1022D00042C0803809F44AC053C0EAE6F0E0808189
:1022E0008C7F80838081682B60834AC0EAE6F0E0BF
:1022F0008081837F80838081660F660F682B608377
:102300003FC0EAE6F0E080818F7C8083808190E1AD
:10231000699FB0011124682B608332C0EAE6F0E0C7
:1023200080818F738083808190E4699FB001112444
:10233000682B608325C08AB78C7F8ABF8AB7682BD9
:102340006ABF1EC08AB7837F8ABF8AB7660F660FCF
:10235000682B6ABF15C08AB78F7C8ABF8AB790E1A5
:10236000699FB0011124682B6ABF0AC08AB78F73B6
:102370008ABF8AB790E4699FB0011124682B6ABFB5
:102380008FB780688FBF0895FF920F931F93CF93ED
:10239000DF93C62FF72ED42F122F882329F18031F7
:1023A00089F522E040E066E370E087E390E00E9478
:1023B000E20720E040E066E370E087E390E00E94FF
:1023C000E20721E040E066E370E087E390E00E94EE
:1023D000E207C19870988EB1F82AFEB80065102BFC
:1023E000D12BCD2BCDB90EC023E040E066E370E0E9
:1023F00087E390E00E94E20770980064102BD12BD5
:10240000CD2BCDB9DF91CF911F910F91FF90089502
:1024100013BE97B79C7F97BF93B7492B642B862B2E
:1024200083BF87B7282B27BF089582B708958F925F
:102430009F92AF92BF92CF92DF92EF92FF920F9353
:102440001F93CF93DF93CDB7DEB7962E142F1FBC0B
:102450001EBC9FB530E4839FF0011124E92BEFBD32
:102460009FB530E1639FF0011124E92BEFBD9FB5CB
:10247000342F330F330F932B9FBD9FB5322F337003
:10248000932B9FBD9EB52C70220F292B2EBDFBBC1C
:10249000EABCD9BCC8BCB0927900A092780097B7CA
:1024A000937C97BF27B79A89990F990F990F892A1B
:1024B0009989990F990F892A9889990F9829990FC5
:1024C000990F922B97BFEDE7F0E090819E7F90836C
:1024D00090812F85922B90839EB5092B0EBD88236A
:1024E00041F025E040E066E370E087E390E00E9481
:1024F000E207992041F026E040E066E370E087E3E0
:1025000090E00E94E207112341F027E040E066E3FB
:1025100070E087E390E00E94E207DF91CF911F9186
:102520000F91FF90EF90DF90CF90BF90AF909F9072
:102530008F90089514BC15BC0895CF92EF92FF922E
:102540000F931F9315BC95B5892B85BD35B550E10B
:10255000659FC0011124832B85BD85B5482B45BDE2
:10256000C3BC80B7877F80BF80B7220F220F220FA6
:10257000282B20BF87B78F7387BF87B790E8099F45
:1025800080011124082B07BF87B750E4E59E700136
:102590001124E82AE7BE662341F027E040E060E32B
:1025A00070E081E390E00E94E2071F910F91FF909D
:1025B000EF90CF9008950F931F93CF93DF9300D0A8
:1025C00000D0CDB7DEB719821A821B821C82EBE9DC
:1025D000F0E019C009811A812B813C810F5F1F4FE8
:1025E0002F4F3F4F09831A832B833C8309811A8124
:1025F0002B813C81401751076207730721F4FC01CE
:10260000108280E008C02081222324F721E0FC0111
:10261000208380919C000F900F900F900F90DF917E
:10262000CF911F910F910895CF93DF9300D000D0E9
:10263000CDB7DEB719821A821B821C8280939C0060
:10264000EBE9F0E015C049815A816B817C814F5FD5
:102650005F4F6F4F7F4F49835A836B837C834981E0
:102660005A816B817C81483E53406105710531F090
:102670009081892F807295FFE6CF81E00F900F90B7
:102680000F900F90DF91CF9108955F926F927F929C
:102690008F929F92AF92BF92CF92DF92EF92FF9272
:1026A0000F931F93CF93DF93CDB7DEB73C01F62E88
:1026B000142F522E21E040E061E270E082E290E0CF
:1026C0000E94E20720E040E063E270E082E290E0F6
:1026D0000E94C5071AB88E2D8C298068E82EE6283E
:1026E000E09295008AB1D82A80E2589E9001112488
:1026F000022B80E4F89E90011124202B30E8139FD8
:10270000C0011124822B8D298AB98BB187298BB9FD
:1027100082E46816710438F430E463167104D0F56D
:10272000672831F051C0611482E07806E1F04CC0B6
:10273000880C991CAA1CBB1C880C991CAA1CBB1CCD
:10274000A5019401220F331F441F551F220F331F71
:10275000441F551F60E074E284EF90E00E94223332
:102760002150310933C0880C991CAA1CBB1C880C51
:10277000991CAA1CBB1CA5019401220F331F441FE6
:10278000551F60E074E284EF90E00E9422332150F4
:1027900031091CC0C501B4010E9494329B01AC01F7
:1027A0000E949C319B01AC0160E074E284E79BE4F1
:1027B0000E94003220E030E040E85FE30E949B315D
:1027C0000E9468329B0102C020E030E029B9832FCB
:1027D0008F7080939000DF91CF911F910F91FF90A8
:1027E000EF90DF90CF90BF90AF909F908F907F90B1
:1027F0006F905F9008955F926F927F928F929F92F9
:10280000AF92BF92CF92DF92EF92FF920F931F93FE
:10281000CF93DF93CDB7DEB73C01F62E142F522EA7
:1028200023E040E060E370E081E390E00E94E20793
:1028300022E040E062E370E081E390E00E94C5079F
:10284000EAE9F0E010828E2D8C298068E82EE628D7
:10285000E0929D008081D82A80E2589E9001112448
:10286000022B80E4F89E90011124202B30E8139F66
:10287000C0011124822B8D298083EBE9F0E0808157
:102880008729808382E46816710438F430E4631683
:102890007104D0F5672831F051C0611482E07806E8
:1028A000E1F04CC0880C991CAA1CBB1C880C991C1C
:1028B000AA1CBB1CA5019401220F331F441F551FE6
:1028C000220F331F441F551F60E074E284EF90E035
:1028D0000E9422332150310933C0880C991CAA1C54
:1028E000BB1C880C991CAA1CBB1CA5019401220FBF
:1028F000331F441F551F60E074E284EF90E00E9494
:102900002233215031091CC0C501B4010E94943208
:102910009B01AC010E949C319B01AC0160E074E220
:1029200084E79BE40E94003220E030E040E85FE36F
:102930000E949B310E9468329B0102C020E030E07F
:1029400020939900832F8F7080939800DF91CF910F
:102950001F910F91FF90EF90DF90CF90BF90AF90BD
:102960009F908F907F906F905F9008950F931F932B
:10297000CF93DF936115710561F0EC018C01060FB7
:10298000171F899151DE813031F4C017D107C9F783
:1029900003C081E001C080E0DF91CF911F910F91D2
:1029A000089579CB08955ECB0895EF92FF920F932F
:1029B0001F93CF93DF9300D0CDB7DEB78C01FC011E
:1029C0008081F82FFF77EF2EF4133CC0F80191813E
:1029D0009230D0F54281FB019081491337C0D80174
:1029E000139631966894FF24F2F84D919191491312
:1029F0002FC0FA94D1F7882344F44EEF4E0DBE0158
:102A00006F5F7F4FC8014AD607C04EEF4E0DBE0123
:102A10006F5F7F4FC801B3D52E2D30E0F801E20F74
:102A2000F31F329799818081981313C0020F131FEF
:102A3000F8013197FF24F3949A818081981749F027
:102A4000F12C07C0F12C05C0F12C03C0F12C01C002
:102A5000F12C8F2D0F900F90DF91CF911F910F913F
:102A6000FF90EF9008952F923F924F925F926F9256
:102A70007F928F929F92AF92BF92CF92DF92EF920E
:102A8000FF920F931F93CF93DF93CDB7DEB7689775
:102A90000FB6F894DEBF0FBECDBF7C01262E342EBC
:102AA0008901188A198A1A8A1B8A8AE889836A83A3
:102AB0000F2EF8E0CF2EF1E0DF2EF02D8DE091E02B
:102AC000DE011396F60121912D93E817F907D9F746
:102AD00081E08887980148E0BE01625F7F4FCE01A8
:102AE0000196DCD58E8589878F858A872AE0AE019D
:102AF0004F5F5F4F632DC7013FDBB82E811105C0CB
:102B000087E192E00E94062FE8C075DB83E292E045
:102B10000E94062F1AC088899989AA89BB890196C3
:102B2000A11DB11D888B998BAA8BBB8B48895989B4
:102B30006A897B894F3F5F4F6F40710531F48FE2A7
:102B400092E00E94062F65DBC8C0BE01635F7F4F25
:102B5000CE0101966ADBB82E8823E9F287E392E082
:102B60000E94062F488859886A887B88242D352D35
:102B7000462D572D60E070E080E090E00E94112F1C
:102B80008EE791E00E94062F44DB98014D85B70146
:102B9000CE0101960ADFB82E882309F49EC08885ED
:102BA000823009F095C089858C8B8A858D8B980140
:102BB00042E0BE016A5E7F4FCE014496AAD48CE803
:102BC00089832A82332051F0DE011396E8E0F1E098
:102BD00081918D938E2F8C198315D0F383E0888794
:102BE0008E8989878F898A8798014AE0BE01625F52
:102BF0007F4FCE01019652D58E858B878F858C872E
:102C00002CE0AE014F5F5F4F632DC701B5DAB82EE0
:102C1000882309F462C0188A198A1A8A1B8AEBDA97
:102C200016C088899989AA89BB890196A11DB11D01
:102C3000888B998BAA8BBB8B88899989AA89BB8938
:102C40008F3F9F4FAF40B10511F4E3DA46C0BE019C
:102C5000635F7F4FCE010196E8DAB82E882309F32F
:102C600087E392E00E94062F88899989AA89BB8907
:102C70003C014D01282F372D482D592D60E070E083
:102C800080E090E00E94112F8EE791E00E94062FD5
:102C9000C0DA98014D85B701CE01019686DEB82EC7
:102CA0008823D9F088858430A9F4188E980141E0F2
:102CB000BE01675F7F4FCE01489646D4888D84342D
:102CC00059F480E492E00E94062FBB24B39405C01F
:102CD000B12C03C0B12C01C0B12C8B2D68960FB65E
:102CE000F894DEBF0FBECDBFDF91CF911F910F9142
:102CF000FF90EF90DF90CF90BF90AF909F908F901C
:102D00007F906F905F904F903F902F9008956F92BB
:102D10007F928F929F92AF92BF92CF92DF92EF926B
:102D2000FF920F931F93CF93DF93CDB7DEB76197D9
:102D30000FB6F894DEBF0FBECDBF8C01D42E790143
:102D40001E861F86188A198A8AE089836A8344232B
:102D500059F088E091E0DE011396FC0121912D935A
:102D60002E2F281B2D15D0F385E08887970148E08A
:102D7000BE01645F7F4FCE01019601D48C858987A7
:102D80008D858A872AE0AE014F5F5F4F6D2DC801A8
:102D9000F3D9D82E882309F44AC02DDA17C04E85FE
:102DA0005F85688979894F5F5F4F6F4F7F4F4E878F
:102DB0005F87688B798B4E855F856889798948390B
:102DC0005A436105710511F424DA31C0BE01655F13
:102DD0007F4FCE01019629DAD82E882301F387E3AD
:102DE00092E00E94062F8E859F85A889B9893C01B3
:102DF0004D01282F372D482D592D60E070E080E0DF
:102E000090E00E94112F8EE791E00E94062F01DAD8
:102E100097014B85B801CE010196C7DDD82E8823D6
:102E200031F0DD24D3948885863009F0D12C8D2DA6
:102E300061960FB6F894DEBF0FBECDBFDF91CF9184
:102E40001F910F91FF90EF90DF90CF90BF90AF90C8
:102E50009F908F907F906F9008956F927F928F9246
:102E60009F92AF92BF92CF92DF92EF92FF920F9319
:102E70001F93CF93DF93CDB7DEB766970FB6F89465
:102E8000DEBF0FBECDBF7C01B42EC901188A198ADE
:102E90001A8A1B8A2CE829836A83442359F048E064
:102EA00051E0DE011396FA0121912D932E2F241B60
:102EB0002B15D0F327E02887980142E0BE016C5E15
:102EC0007F4F27D38C8989878D898A8798014AE02B
:102ED000BE01625F7F4FCE010196E0D38E858B8766
:102EE0008F858C872CE0AE014F5F5F4F6B2DC70144
:102EF00043D9D82E882309F458C07DD917C04889F2
:102F000059896A897B894F5F5F4F6F4F7F4F488B2D
:102F1000598B6A8B7B8B488959896A897B894F3F9A
:102F20005F4F6105710511F474D93FC0BE01635F45
:102F30007F4FCE01019679D9D82E882301F387E3FC
:102F400092E00E94062F88899989AA89BB893C0151
:102F50004D01282F372D482D592D60E070E080E07D
:102F600090E00E94112F8EE791E00E94062F51D928
:102F700098014D85B701CE01019617DDD82E882323
:102F8000A1F08885883081F41E8A980141E0BE0155
:102F9000675F7F4FCE014696D7D2DD24D3948E89CA
:102FA000843419F0D12C01C0D12C8D2D66960FB62A
:102FB000F894DEBF0FBECDBFDF91CF911F910F916F
:102FC000FF90EF90DF90CF90BF90AF909F908F9049
:102FD0007F906F9008954F925F926F927F928F9241
:102FE0009F92AF92BF92CF92DF92EF92FF920F9398
:102FF0001F93CF93DF93CDB7DEB766970FB6F894E4
:10300000DEBF0FBECDBF6C01142F79010E8B188A65
:10301000198A1A8A1B8A8BE089836A83442391F078
:1030200028E031E0F90182E090E05191A1E0B0E0C8
:10303000AC0FBD1FA80FB91F5C9301965E2F521BEA
:10304000511798F389E08887970141E0BE016C5ED3
:103050007F4FCE01469621D28C898987970149E01E
:10306000BE01625F7F4FCE01019689D28E858A872D
:103070008F858B872BE0AE014F5F5F4F612FC601BD
:103080007BD8182F882309F455C0B5D817C04889B4
:1030900059896A897B894F5F5F4F6F4F7F4F488B9C
:1030A000598B6A8B7B8B488959896A897B894F3F09
:1030B0005F4F6F40710511F4ACD83CC0BE01635F37
:1030C0007F4FCE010196B1D8182F882301F387E3F3
:1030D00092E00E94062F488859886A887B88242DB0
:1030E000352D462D572D60E070E080E090E00E9485
:1030F000112F8EE791E00E94062F8BD897014D8506
:10310000B601CE01019651DC182F882399F08885ED
:103110008A3079F41D8A970141E0BE01675F7F4FD5
:10312000CE014596D8D111E08D89843419F010E094
:1031300001C010E0812F66960FB6F894DEBF0FBE77
:10314000CDBFDF91CF911F910F91FF90EF90DF9056
:10315000CF90BF90AF909F908F907F906F905F9037
:103160004F9008952F923F924F925F926F927F926D
:103170008F929F92AF92BF92CF92DF92EF92FF9287
:103180000F931F93CF93DF93CDB7DEB76D970FB635
:10319000F894DEBF0FBECDBF5C01942E69011A8A80
:1031A0001B8A1C8A1D8A8EE089836A83442359F016
:1031B00088E091E0DE011396FC0121912D932E2FE2
:1031C000281B2915D0F380E18887F80180818E8B38
:1031D00081818F8BF7018081888F8181898F960112
:1031E00044E0BE01665E7F4FCE01469656D18A8D81
:1031F00089878B8D8A878C8D8B878D8D8C879601A7
:103200004CE0BE01605F7F4FCE010196B8D1888946
:103210008D8789898E872EE0AE014F5F5F4F692DC4
:10322000C5010E94BC10182F882309F44DC00E94CC
:10323000FB1018C04A895B896C897D894F5F5F4F9D
:103240006F4F7F4F4A8B5B8B6C8B7D8B4A895B8981
:103250006C897D894F3F5F4F6F40710519F40E9463
:10326000091132C0BE01615F7F4FCE0101960E94FD
:103270001511182F8823F1F287E392E00E94062FA0
:103280008A899B89AC89BD891C012D01282F332D8A
:10329000442D552D60E070E080E090E00E94112FF9
:1032A0008EE791E00E94062F0E94091196014F853A
:1032B000B501CE01019679DB182F882329F011E0A2
:1032C0008885813109F010E0812F6D960FB6F89452
:1032D000DEBF0FBECDBFDF91CF911F910F91FF9049
:1032E000EF90DF90CF90BF90AF909F908F907F90A6
:1032F0006F905F904F903F902F9008952F923F9244
:103300004F925F926F927F928F929F92AF92BF92F5
:10331000CF92DF92EF92FF920F931F93CF93DF93A1
:10332000CDB7DEB769970FB6F894DEBF0FBECDBF3D
:103330005C01942E69011A8A1B8A1C8A1D8A8CE002
:1033400089836A83442359F088E091E0DE01139673
:10335000FC0121912D932E2F281B2915D0F382E1FA
:103360008887F80180818E8B81818F8B960142E066
:10337000BE01685E7F4FCE0146968FD0888D8987CB
:10338000898D8A8796014AE0BE01605F7F4FCE013A
:103390000196F5D088898B8789898C872CE0AE01CE
:1033A0004F5F5F4F692DC5010E94BC10182F882305
:1033B00009F459C00E94FB1018C04A895B896C89C6
:1033C0007D894F5F5F4F6F4F7F4F4A8B5B8B6C8B5D
:1033D0007D8B4A895B896C897D894F3F5F4F6F4048
:1033E000710519F40E9409113EC0BE01615F7F4F53
:1033F000CE0101960E941511182F8823F1F287E360
:1034000092E00E94062F8A899B89AC89BD891C01A4
:103410002D01282F332D442D552D60E070E080E0E4
:1034200090E00E94112F8EE791E00E94062F0E94EB
:10343000091196014F85B501CE010196B6DA182F14
:10344000882389F08885833169F48985888F8A8506
:10345000898F960142E0BE01685E7F4FC7013BD075
:1034600011E001C010E0812F69960FB6F894DEBF1D
:103470000FBECDBFDF91CF911F910F91FF90EF90C5
:10348000DF90CF90BF90AF909F908F907F906F9084
:103490005F904F903F902F9008950F931F93CF937D
:1034A000DF93442399F0C82FD92FA62FB72F50E0D0
:1034B0006991052F017010E0C901800F911FFC0177
:1034C000808186278D935F5F5413F2CFDF91CF9178
:1034D0001F910F9108950F931F93CF93DF93442370
:1034E00099F0C62FD72FA82FB92F50E06991052F3B
:1034F000017010E0C901800F911FFC0180818627B7
:103500008D935F5F5413F2CFDF91CF911F910F9195
:103510000895CF93DF93F901442399F0382FC62FF4
:10352000D72FA82FB92F9D912181808182272281B9
:10353000822723818227892789938A2F831B8417D7
:1035400090F3DF91CF910895CF93DF93F901442356
:1035500099F0362FC82FD92FA62FB72F9D912181F3
:10356000808182272281822723818227892789934C
:103570008A2F831B841790F3DF91CF9108953F9298
:103580004F925F926F927F928F929F92AF92BF9273
:10359000CF92DF92EF92FF920F931F93CF93DF931F
:1035A0008C017B01342E6901442309F444C0C0E03E
:1035B000812C912C5401839444244A94542C612CE2
:1035C000712CF801EC0FF11DA081B0E0A501940170
:1035D0000E945933A30192010E9422334B015C01E6
:1035E000CE5FC31570F381E0831570F5E801219675
:1035F0000D5F1F4F3A943A943694832D90E0880FD4
:10360000991F080F191F61E070E080E090E04424EA
:103610004A94542C612C712CA881B0E09B01AC0120
:103620000E945933A30192010E9422332296C017AF
:10363000D10791F70DC0812C912C5401839461E046
:1036400070E080E090E004C061E070E080E090E035
:10365000682579258A259B252FEF3FEF40E050E034
:103660000E942233F60180817827F7017083F601EA
:1036700081816827F7016183DF91CF911F910F91BD
:10368000FF90EF90DF90CF90BF90AF909F908F9082
:103690007F906F905F904F903F9008953F924F9230
:1036A0005F926F927F928F929F92AF92BF92CF92D2
:1036B000DF92EF92FF920F931F93CF93DF938C01D2
:1036C0006B01342E7901442309F444C0C0E0812CFD
:1036D000912C5401839444244A94542C612C712CD1
:1036E000F801EC0FF11DA081B0E0A50194010E944A
:1036F0005933A30192010E9422334B015C01CE5F3A
:10370000C31570F381E0831570F5E80121960D5F14
:103710001F4F3A943A943694832D90E0880F991F66
:10372000080F191F61E070E080E090E044244A94A3
:10373000542C612C712CA881B0E09B01AC010E943B
:103740005933A30192010E9422332296C017D10758
:1037500091F70DC0812C912C5401839461E070E0AD
:1037600080E090E004C061E070E080E090E06825D7
:1037700079258A259B252FEF3FEF40E050E00E94FE
:103780002233F7019181808189277827F6017083A0
:10379000F7019381828189276827F6016183DF9190
:1037A000CF911F910F91FF90EF90DF90CF90BF903E
:1037B000AF909F908F907F906F905F904F903F90D1
:1037C0000895CF92DF92EF92FF920E941512C0905F
:1037D0000D01D0900E01E0900F01F0901001A82F84
:1037E000B0E0119624E434E444E050E00E94593300
:1037F0006C0D7D1D8E1D9F1D2FEF3FEF40E050E0B3
:103800000E94223360930D0170930E0180930F018B
:103810009093100180910D0190910E01A0910F01E4
:10382000B0911001FF90EF90DF90CF90089580E06D
:1038300090E049E19C01489FF001499FF00D11245F
:10384000EF51FC4F5585552309F452C0489FF001B4
:10385000499FF00D1124EF51FC4F5485552309F475
:1038600047C0489FF001499FF00D1124EF51FC4FD4
:103870005685552349F1489FF001499FF00D1124C9
:10388000EF51FC4F5089583051F0489FF001499F4B
:10389000F00D1124EF51FC4F50895F5F508B429F18
:1038A000F001439FF00D1124EF51FC4F5289583223
:1038B000F9F0429FF001439FF00D1124EF51FC4FAE
:1038C00022892F5F228B14C0489FF001499FF00D81
:1038D0001124EF51FC4F5785543151F0489FF001AE
:1038E000499FF00D1124EF51FC4F27852F5F27874B
:1038F00001968A30910509F09DCF80912D03882390
:10390000B9F00E9911C080912C038F5F80932C0326
:1039100080912C03873061F410922C0310922D03B8
:1039200081E080932B03089510922C0310922D03B5
:10393000089526E041E063E270E082E290E00C94BA
:10394000C5070895DF92EF92FF920F931F93CF93D5
:10395000DF9383E690E00E942F11843409F072C057
:1039600084E690E00E942F1180932E03C5E6D0E0FC
:10397000E12CF12C0F2EF9E1DF2EF02DCE010E946B
:103980002F11DE9C8001DF9C100D11240F511C4F64
:10399000F8018083CE0101960E942F11F8018183E6
:1039A000CE0102960E942F11F8018283CE01039668
:1039B0000E942F11F8018383CE0104960E942F11DB
:1039C000F8018483CE0105960E942F11F8018583AA
:1039D000CE0106960E942F11F8018683CE0107962C
:1039E0000E942F11F8018783CE0108960E942F11A3
:1039F000F8018087CE0109960E942F11F801818776
:103A0000CE010A960E942F11F8018287CE010B96F3
:103A10000E942F11F8018387CE010C960E942F116E
:103A2000F8018487CE010D960E942F11F801858739
:103A3000FFEFEF1AFF0A2E968AE0E816F10409F06C
:103A40009DCF16C010922E0360E084E690E00E94A5
:103A50003711C5E6D0E060E0CE010E943711219613
:103A6000C13FD105C1F764E483E690E00E943711BD
:103A7000DF91CF911F910F91FF90EF90DF9008950C
:103A80008091FB049091FC04A091FD04B091FE0490
:103A90006B2F77278827992784E893E00E943711B6
:103AA0008091FB049091FC04A091FD04B091FE0470
:103AB000BD018827992785E893E00E9437118091FE
:103AC000FB049091FC04A091FD04B091FE04692FC9
:103AD0007A2F8B2F992786E893E00E943711609107
:103AE000FB047091FC048091FD049091FE0487E832
:103AF00093E00C9437110895CF92DF92EF92FF92EA
:103B0000CF93DF931092FB041092FC041092FD04FB
:103B10001092FE0483E893E00E942F11843401F593
:103B2000C4E8D3E0C090FB04D090FC04E090FD0416
:103B3000F090FE04CE010E942F11FE2CED2CDC2C07
:103B4000CC24C82AC092FB04D092FC04E092FD046D
:103B5000F092FE042196C83883E0D80719F719C0FF
:103B600064E483E893E00E94371160E084E893E026
:103B70000E94371160E085E893E00E94371160E011
:103B800086E893E00E94371160E087E893E00E94A6
:103B90003711DF91CF91FF90EF90DF90CF90089594
:103BA00062E080E40E944E11A7DFCCDE83EF95E057
:103BB0000C94700508950F931F93CF93DF93282FD4
:103BC00030E099E1899F800111240F511C4FF801C9
:103BD0006081C901880F991FEC01CC0FDD1FCC0F4C
:103BE000DD1FCC0FDD1FC81BD90BCE018B599F4F9A
:103BF0000E943711F8016181CE018A599F4F0E94BE
:103C00003711F8016281CE0189599F4F0E94371107
:103C1000F8016381CE0188599F4F0E943711F80146
:103C20006481CE0187599F4F0E943711F801658149
:103C3000CE0186599F4F0E943711F8016681CE014F
:103C400085599F4F0E943711F8016781CE01845931
:103C50009F4F0E943711F8016085CE0183599F4F15
:103C60000E943711F8016185CE0182599F4F0E9451
:103C70003711F8016285CE0181599F4F0E9437119B
:103C8000F8016385CE0180599F4F0E943711F801DA
:103C90006485CE018F589F4F0E943711F8016585CA
:103CA000CE018E589F4F0E943711DF91CF911F9107
:103CB0000F91089560912E0384E690E00C943711E3
:103CC0000895DF92EF92FF920F931F93CF93DF93AC
:103CD00020912E03222309F442C040E050E079E114
:103CE0008C010F5F1F4FDD24D394E12CF42EDA01F9
:103CF000749FF001759FF00D1124EF51FC4F258545
:103D0000213039F5662369F17A9FF0017B9FF00D30
:103D10001124EF51FC4F3181FC012081321319C075
:103D2000F8012D2D3E2D7A9FE0017B9FD00D1124AF
:103D3000CF51DC4F0AC0DE01A20FB31F1196BC9118
:103D4000A1912F5F3F4FBA1304C02617A0F38F2D08
:103D50000BC04F5F5F4F4A30510541F604C08FEFF3
:103D600003C0842F01C08FEFDF91CF911F910F917E
:103D7000FF90EF90DF9008951F93CF93DF93CDB71F
:103D8000DEB780912E038A3009F44AC065E0CE0187
:103D9000079697DF8F3F09F045C08091EE03813091
:103DA00081F410E099E11F5F212F30E0929FF00134
:103DB000939FF00D1124EF51FC4F8585813099F3CD
:103DC00003C020E030E010E089E1829FF001839F92
:103DD000F00D1124EF51FC4F85E080838F818183AA
:103DE00088858283898583838A8584838B8585837F
:103DF0008C8586838D8587838E8580878F85818757
:103E0000888982878989838781E0848785878091F3
:103E10002E038F5F80932E03812FCDDE4BDF03C0F7
:103E20001FEF01C01FEF812FDF91CF911F910895E8
:103E300048DF282F30E099E1899FF0011124EF51EC
:103E4000FC4F1586220F331FC901880F991F880F59
:103E5000991F880F991F821B930B60E08E589F4F0C
:103E60000E94371180912E03815080932E0322CF20
:103E700008951F93CF93DF931F92CDB7DEB71982BA
:103E8000198289818A3000F519E1E9811E9FF001CC
:103E90001124EF51FC4F1586298130E0220F331F8A
:103EA000C901880F991F880F991F880F991F821BBE
:103EB000930B60E08E589F4F0E94371189818F5F6E
:103EC000898389818A3008F310922E03F3DE0F90E4
:103ED000DF91CF911F910895F4DE282F30E099E112
:103EE000899FF0011124EF51FC4F81E08487220F5C
:103EF000331FC901880F991F880F991F880F991FB9
:103F0000821B930B61E08F589F4F0C9437110895DB
:103F1000D8DE282F30E099E1899FF0011124EF517C
:103F2000FC4F1486220F331FC901880F991F880F79
:103F3000991F880F991F821B930B60E08F589F4F2A
:103F40000C94371108952F923F924F925F926F9287
:103F50007F928F929F92AF92BF92CF92DF92EF9219
:103F6000FF920F931F93CF93DF9300D000D0CDB774
:103F7000DEB722EE33E03C832B830F2EFCEDEF2ED9
:103F8000F4E0FF2EF02DA12CB12C412C512C612CF2
:103F9000712C812C912C0F2EF9E13F2EF02D0F2E3C
:103FA000F2E1CF2EF1E0DF2EF02D222423948A2D92
:103FB0009B2D8C01389EF001399EF00D1124EF519C
:103FC000FC4F2585213009F006C1389EF001399E4D
:103FD000F00D1124EF51FC4F8485813009F0FBC0B6
:103FE000309EF001319EF00D1124EF51FC4F86857B
:103FF000813009F4F0C0309EF001319EF00D1124A3
:10400000EF51FC4F8785843109F0E5C08FB78F777A
:104010008FBF309EC001319E900D1124FC01EF51E5
:10402000FC4FFA83E98317868FB780688FBFF6014C
:1040300080810E942C1082E592E00E94062F8FE57D
:1040400092E00E94062FE981FA81218130E040E070
:1040500050E060E070E080E090E00E94112F80E28C
:104060000E94072FE981FA81228130E040E050E090
:1040700060E070E080E090E00E94112F80E20E94FA
:10408000072FE981FA81238130E040E050E060E0D1
:1040900070E080E090E00E94112F80E20E94072FE4
:1040A000E981FA81248130E040E050E060E070E096
:1040B00080E090E00E94112F80E20E94072FE981AA
:1040C000FA81258130E040E050E060E070E080E07F
:1040D00090E00E94112F8EE791E00E94062F89E662
:1040E00092E00E94062FE981FA81268130E040E0CB
:1040F00050E060E070E080E090E00E94112F80E2EC
:104100000E94072FE981FA81278130E040E050E0EA
:1041100060E070E080E090E00E94112F80E20E9459
:10412000072FE981FA81208530E040E050E060E02F
:1041300070E080E090E00E94112F80E20E94072F43
:10414000E981FA81218530E040E050E060E070E0F4
:1041500080E090E00E94112F80E792E00E94062FFD
:104160002A2D3B2D442D552D662D772D882D992DEB
:104170000E94112F8AE00E94072FE981FA81408175
:1041800062852B813C812B5F3F4F8B819C810E94FC
:104190003315882301F181E992E00E94062F2A2D30
:1041A0003B2D442D552D662D772D882D992D0E9460
:1041B000112F8AE00E94072F309EF001319EF00DF2
:1041C0001124EF51FC4F108E178A2686138A108A0D
:1041D000148A118A128A2A2D3B2D442D552D662DC5
:1041E000772D882D992DA22D0E941134A22EB32E49
:1041F000442E552E662E772E882E992E2B813C81AB
:10420000275E3F4F3C832B832E153F0509F0CFCE11
:104210000F900F900F900F90DF91CF911F910F9102
:10422000FF90EF90DF90CF90BF90AF909F908F90D6
:104230007F906F905F904F903F902F9008953F92A6
:104240004F925F926F927F928F929F92AF92BF92A6
:10425000CF92DF92EF92FF920F931F93CF93DF9352
:10426000C2EED3E00F2EFCEDEF2EF4E0FF2EF02D8A
:10427000A12CB12C412C512C612C712C812C912C16
:104280000F2EF9E13F2EF02D8A2D9B2D8C01389EAB
:10429000F001399EF00D1124EF51FC4F258521309E
:1042A00009F0A9C0389EF001399EF00D1124EF519C
:1042B000FC4F8485813009F09EC0309EF001319E14
:1042C000F00D1124EF51FC4F8685813009F093C029
:1042D000309EF001319EF00D1124EF51FC4F80898A
:1042E000883009F088C08FB78F778FBF309EF0017C
:1042F000319EF00D1124EF51FC4F108A8FB780686A
:104300008FBF8489813009F043C06F01E389F0E0F9
:10431000EE5EFE4F80810E942C108AE792E00E94A0
:10432000062F2A2D3B2D442D552D662D772D882DBA
:10433000992D0E94112F8AE00E94072FF6014081DB
:1043400062859E012C5E3F4FCE010E948716882316
:10435000A1F08EE792E00E94062F2A2D3B2D442DDE
:10436000552D662D772D882D992D0E94112F8AE0CD
:104370000E94072FF601118A15C0309EF001319E70
:10438000F00D1124EF51FC4F81898F5F818B0AC0A2
:10439000309EF001319EF00D1124EF51FC4F8189C8
:1043A0008F5F818B309EF001319EF00D1124EF5113
:1043B000FC4F81898530F9F4309EF001319EF00D7B
:1043C0001124EF51FC4F118A1686138A108A178622
:1043D000128A148A87E892E00E94062F2A2D3B2D2C
:1043E000442D552D662D772D882D992D0E94112F46
:1043F0008AE00E94072F2A2D3B2D442D552D662D36
:10440000772D882D992DA1E00E941134A22EB32E74
:10441000442E552E662E772E882E992E6996CE150F
:10442000DF0509F031CFDF91CF911F910F91FF9000
:10443000EF90DF90CF90BF90AF909F908F907F9044
:104440006F905F904F903F9008952F923F924F92C0
:104450005F926F927F928F929F92AF92BF92CF9214
:10446000DF92EF92FF920F931F93CF93DF9300D0D1
:1044700000D0CDB7DEB70F2EF2EEEF2EF3E0FF2E19
:10448000F02D0F2EFCEDAF2EF4E0BF2EF02D812C81
:10449000912C212C312C412C512C612C712C882DEC
:1044A000992D6C0129E1289FF001299FF00D11241D
:1044B000EF51FC4F2585213009F0A7C0A9E1A89F45
:1044C000F001A99FF00D1124EF51FC4F848581303C
:1044D00009F09BC0AC9DF001AD9DF00D1124EF5192
:1044E000FC4F8685813009F090C0AC9DF001AD9DF8
:1044F000F00D1124EF51FC4F8489882359F0AC9DB5
:10450000F001AD9DF00D1124EF51FC4F82898832EE
:1045100009F07BC0B9E1BC9D8001BD9D100D112447
:104520000F511C4FD8015396EC91F0E0EE5EFE4F18
:1045300080810E942C1045D99C838B838B819C8128
:1045400099838B819C818A838CE992E00E94062F5B
:10455000282D392D422D532D642D752D862D972D07
:104560000E94112F8AE00E94072FF8014081628586
:1045700087010B5F1F4F9E012F5F3F4FC7010E94B6
:104580002D17882309F441C0F9E1FC9D8001FD9DB0
:10459000100D11240F511C4FE1E0D8015496EC93FB
:1045A000549752961C925297898155968C935597A1
:1045B0008A8156968C93569751961C928EEA92E079
:1045C0000E94062FD80155968C91559756964C917E
:1045D00050E0582B242F352F40E050E060E070E091
:1045E00080E090E00E94112F88EB92E00E94062F5D
:1045F000282D392D422D532D642D752D862D972D67
:104600000E94112F8AE00E94072F282D392D422D5C
:10461000532D642D752D862D972DA1E00E94113408
:10462000822E932E242E352E462E572E682E792E2E
:10463000B9E1EB0EF11CEA14FB0409F030CF0F9046
:104640000F900F900F90DF91CF911F910F91FF90DE
:10465000EF90DF90CF90BF90AF909F908F907F9022
:104660006F905F904F903F902F9008952F923F92C0
:104670004F925F926F927F928F929F92AF92BF9272
:10468000CF92DF92EF92FF920F931F93CF93DF931E
:1046900000D000D0CDB7DEB722EE33E03C832B83D1
:1046A0000F2EFCEDCF2EF4E0DF2EF02D912C10E03C
:1046B000312C412C512C612C712C812C0F2EF9E1C5
:1046C0002F2EF02D0F2EF2E1AF2EF1E0BF2EF02DA8
:1046D000892D912F7C01289EF001299EF00D112437
:1046E000EF51FC4F2585213009F0A2C0289EF00132
:1046F000299EF00D1124EF51FC4F8485813009F083
:1047000097C02E9CF0012F9CF00D1124EF51FC4F0F
:104710008685813009F08CC02E9CF0012F9CF00D15
:104720001124EF51FC4F8489813009F081C02E9C07
:10473000F0012F9CF00D1124EF51FC4F8389811162
:1047400077C0D5018C910E942C103BD8FC019C01B4
:10475000A3E9B4E20E944A33281B390B369527950A
:10476000820F931FAC015695479556954795CA0100
:10477000880F991F880F991F880F991F841B950B0D
:10478000AF01481B590BFA013196FA83E9838FEB8D
:1047900092E00E94062F292D312F432D542D652D97
:1047A000762D872D982D0E94112F8AE00E94072FC9
:1047B0002E9CF0012F9CF00D1124EF51FC4F4081F5
:1047C000628509812B813C812C5E3F4F8B819C81CE
:1047D0000E94EB17882361F12E9CF0012F9CF00DB5
:1047E0001124EF51FC4F2981238B118A8DEC92E02B
:1047F0000E94062FE981FA81AF012E2F352F40E06C
:1048000050E060E070E080E090E00E94112F88EBC3
:1048100092E00E94062F292D312F432D542D652D16
:10482000762D872D982D0E94112F8AE00E94072F48
:10483000292D312F432D542D652D762D872D982D23
:10484000A1E00E941134922E132F342E452E562EA5
:10485000672E782E892E2B813C81275E3F4F3C832B
:104860002B832C153D0509F033CF0F900F900F903F
:104870000F90DF91CF911F910F91FF90EF90DF90FC
:10488000CF90BF90AF909F908F907F906F905F90F0
:104890004F903F902F9008952F923F924F925F92AA
:1048A0006F927F928F929F92AF92BF92CF92DF9240
:1048B000EF92FF920F931F93CF93DF93CDB7DEB7A5
:1048C00069970FB6F894DEBF0FBECDBF80918C07FD
:1048D000882309F461C280911101882391F08091AD
:1048E000830390918403A0918503B0918603809304
:1048F000FB049093FC04A093FD04B093FE0410927B
:1049000011014091FB045091FC046091FD047091F1
:10491000FE048091830390918403A0918503B0915C
:104920008603481759076A077B0708F033C2C0900F
:104930008303D0908403E0908503F0908603409138
:10494000FB045091FC046091FD047091FE04C41AB4
:10495000D50AE60AF70A8091830390918403A09117
:104960008503B09186038093FB049093FC04A0938D
:10497000FD04B093FE0484D8D701C60186309105AA
:10498000A105B10520F085E090E0A0E0B0E015E0E1
:10499000181B153008F000C20F2EFFE1AF2EF02DCE
:1049A000912C712C812C612CC12ED12CAC9CF0014E
:1049B000AD9CF00D1124E15CFA4F80818D3409F03B
:1049C000E4C1AC9CF001AD9CF00D1124E15CFA4F08
:1049D00081818A3309F0D9C1AC9CF001AD9CF00D06
:1049E0001124E15CFA4F82818A3329F182E0962D0D
:1049F000E72CF82CB92CAC9C9001AD9C300D112407
:104A0000820F931FFC01E15CFA4F8081E1E0F0E04E
:104A1000EC0FFD1FEE0DFF1D8083B394EB2CF12CEA
:104A2000C7010296F901E80FF91FE15CFA4F4081D6
:104A30004A3331F703C0E72CF82CB92C6B2DCE018B
:104A400001960E949F0EE22F232E342E452E562EC5
:104A5000B72FA82FF92F2D8B08E00E94EC332E8B57
:104A60002E2F322D432D542D652D7B2F8A2F9F2FD6
:104A700000E10E94EC332F8B2E2F322D432D542D2D
:104A8000652D7B2F8A2F9F2F08E10E94EC33288F02
:104A90002E2F322D432D542D652D7B2F8A2F9F2FA6
:104AA00000E20E94EC33298F65E0CE01459609D9DA
:104AB0008F3F09F46AC197012D5F3F4FAC9CF00115
:104AC000AD9CF00D1124E20FF31FE15CFA4F9081D1
:104AD000973509F0D4C0AC9CF001AD9CF00D1124C9
:104AE000EE0DFF1DED5BFA4F90819A3309F04DC139
:104AF00020912A0330E0F901EE0FFF1FEE0FFF1F98
:104B00002E0F3F1FF901E255FC4F808365E06B0DCE
:104B100070E0AC9CF001AD9CF00D1124E60FF71F86
:104B2000E15CFA4F80818A3329F19B01872D982D12
:104B3000F92CAC9CA001AD9C500D1124240F351F05
:104B4000F901E15CFA4F2081E1E0F0E0EC0FFD1F9C
:104B5000E80FF91F2083F3948F2D90E09C01260F1E
:104B6000371FFA01E20FF31FE15CFA4FE081EA33ED
:104B700029F701C0F92C6F2DCE0101960E949F0EDE
:104B8000A22FE0912A03F0E008E00E94EC33CF016D
:104B9000880F991F880F991FE80FF91FE255FC4FE6
:104BA000218380912A0390E0FC01EE0FFF1FEE0F9E
:104BB000FF1F8E0F9F1FFC01E255FC4FA283E6E012
:104BC000EB0DFE0EEF2DF0E0AC9CD001AD9CB00DD6
:104BD0001124AE0FBF1FA15CBA4F8C918A3329F10B
:104BE0009F01872D982D692DAC9CA001AD9C500D87
:104BF0001124240F351FD901A15CBA4F2C91A1E0DB
:104C0000B0E0AC0FBD1FA80FB91F2C936F5F862FAC
:104C100090E09C012E0F3F1FDA01A20FB31FA15C91
:104C2000BA4F7C917A3329F701C0692DCE010196E4
:104C30000E949F0EA22FE0912A03F0E008E00E945C
:104C4000EC33CF01880F991F880F991FE80FF91FC8
:104C5000E255FC4F238380912A0390E0FC01EE0F84
:104C6000FF1FEE0FFF1F8E0F9F1FFC01E255FC4F31
:104C7000A48380912A038F5F80932A0386C0AC9C13
:104C8000F001AD9CF00D11242E0F3F1FF901E15CE6
:104C9000FA4F9081923509F078C0AC9CF001AD9C40
:104CA000F00D1124EE0DFF1DED5BFA4F90819A334C
:104CB00009F06BC02091290330E0F901EE0FFF1FCE
:104CC000EE0FFF1F2E0F3F1FF901EF5FFA4F80839A
:104CD000E5E0EB0DF0E0AC9CD001AD9CB00D1124F3
:104CE000AE0FBF1FA15CBA4F8C918A3329F19F018F
:104CF000872D982D692DAC9CA001AD9C500D1124E1
:104D0000240F351FD901A15CBA4F2C91A1E0B0E06E
:104D1000AC0FBD1FA80FB91F2C936F5F862F90E0BB
:104D20009C012E0F3F1FDA01A20FB31FA15CBA4FE7
:104D30007C917A3329F701C0692DCE0101960E943A
:104D40009F0EA22FE0912903F0E008E00E94EC33CF
:104D5000CF01880F991F880F991FE80FF91FEF5F88
:104D6000FA4F21838091290390E0FC01EE0FFF1F91
:104D7000EE0FFF1F8E0F9F1FFC01EF5FFA4FA28304
:104D8000809129038F5F809329031F5F153009F0FD
:104D90000BCE02C010928C0769960FB6F894DEBF56
:104DA0000FBECDBFDF91CF911F910F91FF90EF907C
:104DB000DF90CF90BF90AF909F908F907F906F903B
:104DC0005F904F903F902F9008956F927F928F92B7
:104DD0009F92AF92BF92CF92DF92EF92FF920F938A
:104DE0001F93CF93DF93CDB7DEB7EF970FB6F8944D
:104DF000DEBF0FBECDBF80912A03882309F423C4F0
:104E00001EAE1CAE1BAA1CAA1DAA1EAA1FAA18AE63
:104E100019AE1AAE1EAE9EAD80912A03981708F007
:104E200010C40F2EF9E1DF2EF02D662463940F2EAF
:104E3000F1E49F2EF02D0F2EFAE3CF2EF02D0F2E42
:104E4000F4E47F2EF02D0F2EF4E58F2EF02DA12C03
:104E5000B12C8EAD90E0FC01EE0FFF1FEE0FFF1F97
:104E60008E0F9F1FFC01E255FC4F80818DAFEDAD91
:104E7000DE9EF0011124EF51FC4F8485882309F454
:104E800006C2EDADDE9EF0011124EF51FC4F868588
:104E9000882309F4FCC1EDADDE9EF0011124EF5131
:104EA000FC4F8489882309F4F2C1EDADDE9EF00148
:104EB0001124EF51FC4FE389F0E0EE5EFE4F80815C
:104EC0000E942C10AEAD9EAD2DADEDADDE9EF0017D
:104ED0001124EF51FC4F4081EDADDE9EF001112415
:104EE000EF51FC4F62858DADB0E07D01EE0CFF1CF3
:104EF000EE0CFF1CAE0DBF1DFD01EF54FC4F7F01FA
:104F0000E92FF0E08F01000F111F000F111FE00FBC
:104F1000F11F8F0101551C4FD29E900111242A5080
:104F20003C4FD89EC00111248E519C4F0E94B21854
:104F3000882309F4ACC18EE791E068D78EE791E051
:104F400065D78EE791E062D78EE791E05FD78EE775
:104F500091E05CD78EE791E059D78EE791E056D784
:104F60008EE791E053D787ED92E050D72DAD30E03A
:104F700040E050E060E070E080E090E052D78EE7E3
:104F800091E044D78EE791E041D78EE791E03ED79C
:104F90008EE791E03BD78EE791E038D78EE791E03E
:104FA00035D78EE791E032D78EE791E02FD7EDAD80
:104FB000DE9EF0011124EF51FC4F118AEDADDE9E13
:104FC000F0011124EF51FC4F178A6CAE9982CA820E
:104FD000EDADDE9EF0011124EF51FC4F80818BAFCF
:104FE0008BAD882321F12BA93CA94DA95EA96FA9FE
:104FF00078AD89AD9AADADADEBADF0E0DA9EE00DE8
:10500000F11D1124E052FC4FE18108E00E94D133F0
:10501000E22BEBAB3CAB4DAB5EAB6FAB78AF89AF8C
:105020009AAF8BAD81508BAF8BAD8111DCCF0BA9CB
:105030001CA92DA93EA94FA958AD69AD7AADCE01E5
:105040004F960E94CE0C1BAE9BAD9817C0F4EBADF3
:10505000F0E032969BADAFE1B0E0AC0FBD1FA90F01
:10506000B11D9C9121E030E02C0F3D1FE20FF31F9A
:1050700090839BAD9F5F9BAF9BAD981740F38BAD2B
:105080008E5F8FAF8FADE1E0F0E0EC0FFD1FE80F1A
:10509000F11DC082EFADF0E0319641E050E04C0FE1
:1050A0005D1FE40FF51F7082EFADF0E03296E40F64
:1050B000F51FC0828FAD8D5F8FAF1BAA1CAA1DAAE2
:1050C0001EAA1FAA18AE19AE1AAE1BAE8BAD823047
:1050D00048F52BA93CA94DA95EA96FA978AD89AD6A
:1050E0009AADEEADF0E01BADDF01AA0FBB1FAA0F1A
:1050F000BB1FEA0FFB1FE255FC4FE10FF11DE181E1
:1051000008E00E94D133E22BEBAB3CAB4DAB5EAB86
:105110006FAB78AF89AF9AAF8BAD8F5F8BAF8BAD35
:105120008230B8F20BA91CA92DA93EA94FA958ADF0
:1051300069AD7AADCE014F960E94CE0C1BAE9BADF1
:105140009817D0F49FADEBADF0E0E90FF11D9BADEA
:10515000AFE1B0E0AC0FBD1FA90FB11D9C9121E0E4
:1051600030E02C0F3D1FE20FF31F90839BAD9F5F3C
:105170009BAF9BAD981730F38FAD9BAD890F8FAF71
:105180008FADE1E0F0E0EC0FFD1FE80FF11DC082F4
:105190008FAD8F5F8FAF1BAA1CAA1DAA1EAA1FAAC4
:1051A00018AE19AE1AAE1BAE8BAD823048F52BA9E6
:1051B0003CA94DA95EA96FA978AD89AD9AADEEADB8
:1051C000F0E01BADDF01AA0FBB1FAA0FBB1FEA0F48
:1051D000FB1FE255FC4FE10FF11DE38108E00E9447
:1051E000D133E22BEBAB3CAB4DAB5EAB6FAB78AFEF
:1051F00089AF9AAF8BAD8F5F8BAF8BAD8230B8F23A
:105200000BA91CA92DA93EA94FA958AD69AD7AAD2E
:10521000CE014F960E94CE0C1BAE9BAD9817D0F4DA
:105220009FADEBADF0E0E90FF11D9BADAFE1B0E05C
:10523000AC0FBD1FA90FB11D9C9141E050E04C0F78
:105240005D1FE40FF51F90839BAD9F5F9BAF9BADF0
:10525000981730F38FAD9BAD890F8FAF8FADE1E025
:10526000F0E0EC0FFD1FE80FF11DC082EFADF0E0A4
:10527000319681E090E08C0F9D1FE80FF91F10829E
:105280004FAD4E5FBC0183EF95E00E9476058CAD7B
:105290008111CEC1EDADDE9EF0011124EF51FC4F26
:1052A00087898F5F878BEDADDE9EF0011124EF5172
:1052B000FC4F8789833009F0BBC1EDADDE9EF00164
:1052C0001124EF51FC4F178A8EE791E09FD58EE7AE
:1052D00091E09CD58EE791E099D58EE791E096D547
:1052E0008EE791E093D58EE791E090D58EE791E03F
:1052F0008DD58EE791E08AD587EE92E087D52DADEA
:1053000030E040E050E060E070E080E090E089D57F
:105310008EE791E07BD58EE791E078D58EE791E03E
:1053200075D58EE791E072D58EE791E06FD58EE767
:1053300091E06CD58EE791E069D58EE791E066D576
:105340009982CA821BAA1CAA1DAA1EAA1FAA18AE4D
:1053500019AE1AAEEDADDE9EF0011124EF51FC4FF7
:10536000A081AA2301F12BA93CA94DA95EA96FA98F
:1053700078AD89AD9AADBDADEA2FF0E0DB9EE00DD2
:10538000F11D1124E052FC4FE18108E00E94D1336D
:10539000E22BEBAB3CAB4DAB5EAB6FAB78AF89AF09
:1053A0009AAFA15001F70BA91CA92DA93EA94FA99D
:1053B00058AD69AD7AADCE014F960E94CE0C8823D0
:1053C000B1F02A2D3B2DF9013296AFE1B0E0AC0FE0
:1053D000BD1FA20FB31F9C9141E050E04C0F5D1F19
:1053E000E40FF51F90832F5F3F4F281760F38E5F08
:1053F0008FAF8FADE1E0F0E0EC0FFD1FE80FF11D86
:10540000C082EFADF0E0319681E090E08C0F9D1FFF
:10541000E80FF91F8082EFADF0E03296E80FF91F38
:10542000C0828FAD8D5F8FAF1BAA1CAA1DAA1EAABA
:105430001FAA18AE19AE1AAE2BA93CA94DA95EA998
:105440006FA978AD89AD9AADEEADF0E0DF01AA0F9E
:10545000BB1FAA0FBB1FEA0FFB1FE255FC4FE181E8
:1054600008E00E94D133E22BEBAB3CAB4DAB5EAB23
:105470006FAB78AF89AF9AAF2BA93CA94DA95EA9B4
:105480006FA978AD89AD9AADEEADF0E0DF01AA0F5E
:10549000BB1FAA0FBB1FEA0FFB1FE255FC4FE281A7
:1054A0000E94D133E22BEBAB3CAB4DAB5EAB6FABB1
:1054B00078AF89AF9AAF0BA91CA92DA93EA94FA916
:1054C00058AD69AD7AADCE014F960E94CE0C8823BF
:1054D000C1F02A2D3B2D9FADF901E90FF11DAFE180
:1054E000B0E0AC0FBD1FA20FB31F9C9141E050E094
:1054F0004C0F5D1FE40FF51F90832F5F3F4F281760
:1055000050F39FAD890F8FAF8FADE1E0F0E0EC0F6E
:10551000FD1FE80FF11DC0828FAD8F5F8FAF1BAAFB
:105520001CAA1DAA1EAA1FAA18AE19AE1AAE2BA934
:105530003CA94DA95EA96FA978AD89AD9AADEEAD34
:10554000F0E0DF01AA0FBB1FAA0FBB1FEA0FFB1F72
:10555000E255FC4FE38108E00E94D133E22BEBAB34
:105560003CAB4DAB5EAB6FAB78AF89AF9AAF2BA9BD
:105570003CA94DA95EA96FA978AD89AD9AADEEADF4
:10558000F0E0DF01AA0FBB1FAA0FBB1FEA0FFB1F32
:10559000E255FC4FE4810E94D133E22BEBAB3CABF4
:1055A0004DAB5EAB6FAB78AF89AF9AAF0BA91CA9BF
:1055B0002DA93EA94FA958AD69AD7AADCE014F9640
:1055C0000E94CE0C8823C1F02A2D3B2D9FADF901FE
:1055D000E90FF11DAFE1B0E0AC0FBD1FA20FB31F8B
:1055E0009C9141E050E04C0F5D1FE40FF51F90834C
:1055F0002F5F3F4F281750F39FAD890F8FAF8FADAF
:10560000E1E0F0E0EC0FFD1FE80FF11DC082EFAD0F
:10561000F0E0319681E090E08C0F9D1FE80FF91FBC
:1056200010824FAD4E5FBC0183EF95E00E9476057E
:105630008EAD8F5F8EAF9EAD80912A03981708F4D0
:1056400008CC10922A03EF960FB6F894DEBF0FBE77
:10565000CDBFDF91CF911F910F91FF90EF90DF9021
:10566000CF90BF90AF909F908F907F906F90089554
:105670002F923F924F925F926F927F928F929F9262
:10568000AF92BF92CF92DF92EF92FF920F931F9350
:10569000CF93DF93CDB7DEB7E8970FB6F894DEBFB0
:1056A0000FBECDBF80912903882309F41AC38091CE
:1056B0002903882309F409C3812C1DAA1EAA1FAA45
:1056C00018AE1BAA212C312C412C712C0F2EF9E184
:1056D0006F2EF02D512CC72CD12CF601EE0FFF1F91
:1056E000EE0FFF1FEC0DFD1DEF5FFA4F9080A92C10
:1056F000B12C6A9CF0016B9CF00D1124EF51FC4F12
:105700008485882309F48DC16A9CF0016B9CF00D9F
:105710001124EF51FC4F8685882309F482C16A9CCD
:10572000F0016B9CF00D1124EF51FC4F848988230C
:1057300009F477C16A9CC0016B9C900D11249CAB4D
:105740008BAB8F01E389F0E0EE5EFE4F80810E941B
:105750002C10F801408162858601000F111F000F97
:10576000111F0C0D1D1DC8018C5F9A4F7C010E5F2F
:105770001A4F2BA93CA92A503C4F8BA99CA98E51AA
:105780009C4F0E947E19882309F44BC16A9C8001BA
:105790006B9C100D11240F511C4FD80158961C9270
:1057A0008EE791E033D38EE791E030D38EE791E03E
:1057B0002DD38EE791E02AD38EE791E027D38EE7B1
:1057C00091E024D38EE791E021D38EE791E01ED3C0
:1057D00086EF92E01BD3292D30E040E050E060E0FE
:1057E00070E080E090E01DD38EE791E00FD38EE76C
:1057F00091E00CD38EE791E009D38EE791E006D3D8
:105800008EE791E003D38EE791E000D38EE791E03D
:10581000FDD28EE791E0FAD2F801118AF1E4F98322
:105820002AE32A83D8011C91112311F16A9CD0012B
:105830006B9CB00D1124AF51BC4F282D3DA94EA932
:105840005FA968AD752D822D932D08E0AAD7E12FB1
:10585000F0E03197EA0FFB1FE1812E2B1150A9F7E1
:10586000822E3DAB4EAB5FAB68AF572E282E392E44
:10587000082D1DA92EA93FA948AD552D622D732DC8
:10588000CE014F960E94CE0CE82E882389F0FE01AF
:105890007F96DE0113968FEF8E0D20E230E02C0F05
:1058A0003D1F280F311D81918D93E217F307D9F722
:1058B00082E08E0D90E0E1E0F0E0EC0FFD1FE80FDC
:1058C000F91FBAE3B083E2E0F0E0EC0FFD1FE80F50
:1058D000F91F2BE42083E3E0F0E0EC0FFD1FE80F5D
:1058E000F91FB0830F2EF5E0FF2EF02DFE0CF60110
:1058F000EE0FFF1FEE0FFF1FEC0DFD1DEF5FFA4FC8
:105900002181E28130E040E050E060E070E080E042
:1059100090E008E046D7022F0E2B132F242F352FAF
:10592000462F572F682F792FCE014F960E94CE0C0D
:10593000882389F0FE017F96382F3E0D3B5F9F2D17
:105940002191A1E0B0E0AC0FBD1FA90FB11D2C93B8
:105950009F5F9313F5CFF80EE1E0F0E0EC0FFD1F31
:10596000EF0DF11D8AE38083EE24E394EF0CF60142
:10597000EE0FFF1FEE0FFF1FEC0DFD1DEF5FFA4F47
:105980002381E48130E040E050E060E070E080E0BE
:1059900090E008E006D7822E8E2A3DAB4EAB5FAB7F
:1059A00068AF572E282E392E082D132F242F352F70
:1059B000462F572F682F792FCE014F960E94CE0C7D
:1059C000882389F0FE017F9691E0980FF90E9E2DB5
:1059D0002191A1E0B0E0AC0FBD1FA90FB11D2C9328
:1059E0009F5F9F11F5CFE80E2E2D30E0E1E0F0E053
:1059F000EC0FFD1FE20FF31F9AE39083E2E0F0E06B
:105A0000EC0FFD1FE20FF31F108242E04E0DBE01AE
:105A10006F5F7F4F83EF95E00E94760544244394A7
:105A20004EC141104CC16A9CF0016B9CF00D1124D9
:105A3000EF51FC4F808D8F5F808F808D833009F018
:105A40003EC18F01108E8EE791E0E0D18EE791E0AC
:105A5000DDD18EE791E0DAD18EE791E0D7D18EE704
:105A600091E0D4D18EE791E0D1D18EE791E0CED113
:105A70008EE791E0CBD180E093E0C8D1292D30E0D2
:105A800040E050E060E070E080E090E0CAD18EE756
:105A900091E0BCD18EE791E0B9D18EE791E0B6D12B
:105AA0008EE791E0B3D18EE791E0B0D18EE791E03F
:105AB000ADD18EE791E0AAD18EE791E0A7D1B1E414
:105AC000B983EAE3EA83D801FC90FF20A9F020E043
:105AD00030E040E050E060E070E080E090E0D8012D
