:100000000C942A000C94E8020C9434030C94AE0077
:100010000C94D4000C940E030C94FA000C94200160
:100020000C9446010C945A030C946C010C947E03BE
:100030000C9492010C94B8010C94DE010C9404020F
:100040000C942A020C9450020C9476020C949C029C
:100050000C94C20211241FBECFE5D8E0DEBFCDBF95
:1000600011E0A0E6B0E0EEE3F8E202C005900D92E8
:10007000A03DB107D9F722E0A0EDB1E001C01D928B
:10008000A634B207E1F70E94A2030C941D1422E0EB
:1000900040E06BE370E08AE390E00E94E20320E03E
:1000A00040E06BE370E08AE390E00E94E20321E02D
:1000B00040E06BE370E08AE390E00E94E203089581
:1000C0000F9300E020E040E050E060E487E00E9411
:1000D000880680E00E949E060F910895349B12C00E
:1000E000349A80916000813069F484B125B190E048
:1000F000922B90932B0280932A0281E080936000E0
:100100000E949E06C99B13C08FE99FE00197F1F7FB
:1001100000C00000C99B0BC01092D10181E0809308
:10012000D00181E090E090932D0280932C020895FD
:100130008091D001882389F08091D1018F5F8093D5
:10014000D1018091D101853041F41092D0011092FB
:10015000D10110922D0210922C0208951F920F923D
:100160000FB60F9211242F933F934F935F936F938A
:100170007F938F939F93AF93BF93EF93FF9381E709
:1001800090E00E942111FF91EF91BF91AF919F915B
:100190008F917F916F915F914F913F912F910F9030
:1001A0000FBE0F901F9018951F920F920FB60F92CF
:1001B00011242F933F934F935F936F937F938F936C
:1001C0009F93AF93BF93EF93FF938BE790E00E94D1
:1001D0002111FF91EF91BF91AF919F918F917F91ED
:1001E0006F915F914F913F912F910F900FBE0F90A4
:1001F0001F9018951F920F920FB60F9211242F93F4
:100200003F934F935F936F937F938F939F93AF939E
:10021000BF93EF93FF9385E890E00E942111FF9137
:10022000EF91BF91AF919F918F917F916F915F916E
:100230004F913F912F910F900FBE0F901F901895E7
:100240001F920F920FB60F9211242F933F934F934B
:100250005F936F937F938F939F93AF93BF93EF932E
:10026000FF938FE890E00E942111FF91EF91BF91E1
:10027000AF919F918F917F916F915F914F913F913E
:100280002F910F900FBE0F901F9018951F920F92F5
:100290000FB60F9211242F933F934F935F936F9359
:1002A0007F938F939F93AF93BF93EF93FF9389E9CE
:1002B00090E00E942111FF91EF91BF91AF919F912A
:1002C0008F917F916F915F914F913F912F910F90FF
:1002D0000FBE0F901F9018951F920F920FB60F929E
:1002E00011242F933F934F935F936F937F938F933B
:1002F0009F93AF93BF93EF93FF9383EA90E00E94A5
:100300002111FF91EF91BF91AF919F918F917F91BB
:100310006F915F914F913F912F910F900FBE0F9072
:100320001F9018951F920F920FB60F9211242F93C2
:100330003F934F935F936F937F938F939F93AF936D
:10034000BF93EF93FF938DEA90E00E942111FF91FC
:10035000EF91BF91AF919F918F917F916F915F913D
:100360004F913F912F910F900FBE0F901F901895B6
:100370001F920F920FB60F9211242F933F934F931A
:100380005F936F937F938F939F93AF93BF93EF93FD
:10039000FF9387EB90E00E942111FF91EF91BF91B5
:1003A000AF919F918F917F916F915F914F913F910D
:1003B0002F910F900FBE0F901F9018951F920F92C4
:1003C0000FB60F9211242F933F934F935F936F9328
:1003D0007F938F939F93AF93BF93EF93FF9381ECA2
:1003E00090E00E942111FF91EF91BF91AF919F91F9
:1003F0008F917F916F915F914F913F912F910F90CE
:100400000FBE0F901F9018951F920F920FB60F926C
:1004100011242F933F934F935F936F937F938F9309
:100420009F93AF93BF93EF93FF938BEC90E00E9469
:100430002111FF91EF91BF91AF919F918F917F918A
:100440006F915F914F913F912F910F900FBE0F9041
:100450001F9018951F920F920FB60F9211242F9391
:100460003F934F935F936F937F938F939F93AF933C
:10047000BF93EF93FF9386ED90E00E942111FF91CF
:10048000EF91BF91AF919F918F917F916F915F910C
:100490004F913F912F910F900FBE0F901F90189585
:1004A0001F920F920FB60F9211242F933F934F93E9
:1004B0005F936F937F938F939F93AF93BF93EF93CC
:1004C000FF9381EE90E00E942111FF91EF91BF9187
:1004D000AF919F918F917F916F915F914F913F91DC
:1004E0002F910F900FBE0F901F9018951F920F9293
:1004F0000FB60F9211242F933F934F935F936F93F7
:100500007F938F939F93AF93BF93EF93FF938CEE63
:1005100090E00E942111FF91EF91BF91AF919F91C7
:100520008F917F916F915F914F913F912F910F909C
:100530000FBE0F901F9018951F920F920FB60F923B
:1005400011242F933F934F935F936F937F938F93D8
:100550009F93AF93BF93EF93FF9387EF90E00E9439
:100560002111FF91EF91BF91AF919F918F917F9159
:100570006F915F914F913F912F910F900FBE0F9010
:100580001F9018951F920F920FB60F9211242F9360
:100590003F934F935F936F937F938F939F93AF930B
:1005A000BF93EF93FF9382E091E00E942111FF91AE
:1005B000EF91BF91AF919F918F917F916F915F91DB
:1005C0004F913F912F910F900FBE0F901F90189554
:1005D0001F920F920FB60F9211242F933F934F93B8
:1005E0005F936F937F938F939F93AF93BF93EF939B
:1005F000FF938DE091E00E942111FF91EF91BF9157
:10060000AF919F918F917F916F915F914F913F91AA
:100610002F910F900FBE0F901F9018951F920F9261
:100620000FB60F9211242F933F934F935F936F93C5
:100630007F938F939F93AF93BF93EF93FF9388E143
:1006400091E00E942111FF91EF91BF91AF919F9195
:100650008F917F916F915F914F913F912F910F906B
:100660000FBE0F901F9018951F920F920FB60F920A
:1006700011242F933F934F935F936F937F938F93A7
:100680009F93AF93BF93EF93FF9383E291E00E9418
:100690002111FF91EF91BF91AF919F918F917F9128
:1006A0006F915F914F913F912F910F900FBE0F90DF
:1006B0001F9018951F920F920FB60F9211242F932F
:1006C0003F934F935F936F937F938F939F93AF93DA
:1006D000BF93EF93FF930E946211FF91EF91BF913F
:1006E000AF919F918F917F916F915F914F913F91CA
:1006F0002F910F900FBE0F901F9018951F920F9281
:100700000FB60F9211242F933F934F935F936F93E4
:100710007F938F939F93AF93BF93EF93FF930E9429
:100720006111FF91EF91BF91AF919F918F917F9157
:100730006F915F914F913F912F910F900FBE0F904E
:100740001F9018950E94B9030E94A703FDCF0E9435
:10075000EC0D0E946E0092B380E2892782BB08955F
:1007600025E040E060E370E081E390E00E94FF0359
:1007700008950F932FEF83ED90E321508040904038
:10078000E1F700C0000000E020E040E061E070E040
:1007900080E10E94A6060E942E0E0E94B0030E94D5
:1007A000CE0F0E9447000E94E70F0E9460000E9447
:1007B0003F1186E391E00E9421110E94390E959A23
:1007C0000F910895FB01DC013C9161E070E0022E85
:1007D00002C0660F771F0A94E2F7609536233C93B8
:1007E000808168236083808150E0BA0102C0660F77
:1007F000771F2A95E2F79B01282B20830895FB01A0
:10080000DC013C9161E070E0022E02C0660F771FB0
:100810000A94E2F7362B3C938081609568236083CD
:10082000808150E0BA0102C0660F771F2A95E2F777
:100830009B01282B208308958FB9779BFECF8FB122
:100840000895CF93C62FC09880620E941C048093A5
:1008500004028C2F0E941C04C09A8FE99FE001972C
:10086000F1F700C00000CF910895C0980E941C04C9
:10087000809304028FEF0E941C04C09AEFE9FFE00E
:100880003197F1F700C000000895FF920F931F9376
:10089000CF93DF93F82E192F062FC09881E60E9480
:1008A0001C0480930402002351F0CF2DD12F10E0BF
:1008B0008FEF0E941C0489931F5F1013F9CFC09A19
:1008C000DF91CF911F910F91FF900895FF920F93A9
:1008D0001F93CF93DF93F82E192F062FC09880EA2D
:1008E0000E941C0480930402002349F0CF2DD12FD5
:1008F00010E089910E941C041F5F1013FACFC09A68
:10090000DF91CF911F910F91FF900895C09881EED4
:100910000E941C0480930402C09A0895C09882EE3D
:100920000E941C0480930402C09A0895C09880E637
:100930000E941C04809304028FEF0E941C04C09A42
:100940000895CF93DF931F92CDB7DEB787E00E9463
:10095000350489839981892F807496FF05C0698148
:1009600087E00E94210481E00F90DF91CF910895EC
:10097000CF93DF931F92CDB7DEB787E00E94350497
:1009800089839981892F807295FF05C0698187E0ED
:100990000E94210481E00F90DF91CF910895CF93C1
:1009A000DF931F92CDB7DEB787E00E9435048983BD
:1009B0009981892F807194FF05C0698187E00E9429
:1009C000210481E00F90DF91CF910895CF93DF93C1
:1009D0001F92CDB7DEB780E00E94350489838981FC
:1009E0008E7F8983698180E00E9421040F90DF91CE
:1009F000CF910895CF93DF931F92CDB7DEB780E0FC
:100A00000E9435048983898181608983698180E0BE
:100A10000E9421040F90DF91CF910895FF920F93D0
:100A20001F93CF93DF93F62E172F042FC098865F66
:100A300080620E941C0480930402002349F0CF2DA1
:100A4000D12F10E089910E941C041F5F1013FACF70
:100A5000C09ADF91CF911F910F91FF900895FF925F
:100A60000F931F93CF93DF93F82E192F062FC09863
:100A700080E30E941C0480930402002349F0CF2DE0
:100A8000D12F10E089910E941C041F5F1013FACF30
:100A9000C09ADF91CF911F910F91FF90089580939D
:100AA000E301682F85E00E942104089522E040E0E0
:100AB00066E370E087E390E00E94FF0320E040E0FF
:100AC00066E370E087E390E00E94FF0323E041E0EB
:100AD00068E370E087E390E00E94E20308950F93DB
:100AE0001F93CF93DF93C09A2FEF81EE94E02150B4
:100AF00080409040E1F700C00000EEEDF1E08AE0B8
:100B00008083608180E00E9421048FE39FE1019750
:100B1000F1F700C00000EFEDF1E003E00083608139
:100B200081E00E942104E0EEF1E0C2E0C083608138
:100B300082E00E942104C093E101E2EEF1E085E34E
:100B40008083608184E00E942104E3EEF1E0C083B1
:100B5000608185E00E942104E4EEF1E084E280837C
:100B6000608186E00E94210410E21093ED01109351
:100B7000EE011093EF011093F0011093F10145E0A5
:100B80006DEE71E081E00E940E05ECEFF1E0108364
:100B9000CBEFD1E01883608182E10E94210468815B
:100BA00081E10E942104E2E0F2E0008360818CE1B7
:100BB0000E942104E3E0F2E084E0808360818DE123
:100BC0000E94210485E491E00E94211120910402F9
:100BD00030E040E050E060E070E080E090E00E94B3
:100BE0000F10DF91CF911F910F910895EF92FF9217
:100BF0000F931F93CF93DF93EC01F62E8A01E22E21
:100C0000C2988FE99FE00197F1F700C0000063E010
:100C100082E00E94210460E787E00E9421046F2D9A
:100C2000CE010E942F054F2DBE0180E00E940E05CF
:100C30000E9486040E94E6046E2DC8010E9466048C
:100C4000C29A8FE39FE10197F1F700C00000B399CA
:100C5000FECFC29862E082E00E9421040E94B804A4
:100C6000D82F811110C00E94CF04C82F882331F0E3
:100C70008CE491E00E942111CD2F06C089E591E01E
:100C80000E94211101C0C1E08C2FDF91CF911F91F3
:100C90000F91FF90EF900895C2988FE99FE0019720
:100CA000F1F700C0000060E787E00E9421040E9485
:100CB0008E040E94FA04C29A0895C2988FE99FE0B8
:100CC0000197F1F700C0000060E787E00E9421046F
:100CD0000E948E0408950F931F93CF93DF93EC012E
:100CE0008B01B3990FC00E94A104882361F0C298C0
:100CF0000E949604F8018083682FCE010E9445046B
:100D000081E001C080E0DF91CF911F910F910895A4
:100D10000F9317B897B1092B602B67B92068822B06
:100D2000282F242B26B94115510531F080B78F713A
:100D300080BF80B7852B80BF0F91089597B1907EBB
:100D400097B997B1892B87B9369A0895FF920F9377
:100D50001F93CF93DF93C62FF72ED42F122F882304
:100D600029F1803189F525E040E066E370E087E312
:100D700090E00E94FF0324E040E066E370E087E338
:100D800090E00E94FF0327E040E066E370E087E325
:100D900090E00E94FF03C79870988EB1F82AFEB8C1
:100DA0000065102BD12BCD2BCDB90EC026E040E035
:100DB00066E370E087E390E00E94FF0370980064B0
:100DC000102BD12BCD2BCDB9DF91CF911F910F914E
:100DD000FF9008958CB52DB590E0922B08958F92D9
:100DE000AF92CF92DF92EF92FF920F931F93CF9328
:100DF000DF93CDB7DEB7D62E1FBC1EBC9FB530E447
:100E0000839FF0011124E92BEFBD9FB530E1639F73
:100E1000F0011124E92BEFBD9FB5342F3370932BD4
:100E20009FBD9EB54C70440F492B4EBD1BBD0ABDE6
:100E3000F9BCE8BC99B7937C99BF99B73D85330F4E
:100E4000330F330FC32A880C880CC828AA0CAC288F
:100E5000AA0CAA0CA92AA9BE9EB5292B2EBD8823AF
:100E600041F025E040E060E370E081E390E00E9423
:100E7000FF03DD2041F024E040E060E370E081E327
:100E800090E00E94FF038FB588608FBDDF91CF9106
:100E90001F910F91FF90EF90DF90CF90AF908F90C8
:100EA00008950E946F05809161000E944F050E9485
:100EB0004C0608950E9456050895FF920F931F93C4
:100EC000CF93DF9300D0CDB7DEB78C01FC018081DA
:100ED000F82FFF77FF2EF21342C0F8019181923074
:100EE00008F03FC0662379F02281FA01908129132E
:100EF0003AC0D8011396319694E03D912191321376
:100F000034C09150D1F788235CF429E630E04EEFED
:100F10004F0DBE016F5F7F4FC8010E941E0D0AC0BA
:100F200025E032E04EEF4F0DBE016F5F7F4FC801ED
:100F30000E948F0C39818F2D90E0F801E80FF91F86
:100F400032972081321313C02A81080F191FF8012C
:100F5000319781E09081291759F080E009C080E045
:100F600007C080E005C080E003C080E001C080E0F1
:100F70000F900F90DF91CF911F910F91FF900895E7
:100F8000CF93DF9300D0CDB7DEB78AE080930C0219
:100F900081E080930D0280E280930E0280930F0225
:100FA00080931002809311028093120286E0809356
:100FB000130225E032E048E0BE016F5F7F4F8CE016
:100FC00092E00E948F0C8981809314028A81809321
:100FD00015022AE04CE052E065E084ED91E00E94C9
:100FE000F605882319F01092D90181E00F900F9037
:100FF000DF91CF910895CF93DF9300D000D01F925F
:10100000CDB7DEB784E48B8329E630E042E064E1CB
:1010100072E0CE0101960E94740C8BE880930C0262
:1010200081E080930D0280E280930E0280930F0294
:1010300080931002809311028093120288E08093C3
:10104000130229E630E041E064E172E0CE0103964C
:101050000E94590C29E630E049E0BE016C5F7F4FE9
:101060008CE092E00E941E0D8C81809315028D8190
:10107000809316022BE04CE052E065E084ED91E0B5
:101080000E94F605882349F08981809305028A81B0
:10109000809306021092D90181E00F900F900F907B
:1010A0000F900F90DF91CF910895CF93DF9300D0F1
:1010B00000D0CDB7DEB784E4898325E032E041E09B
:1010C00064E172E0CE0102960E943B0C8BE08093BB
:1010D0000C0281E080930D0280E280930E028093E7
:1010E0000F028093100280931102809312028AE013
:1010F0008093130225E032E041E064E172E0CE012A
:1011000001960E941D0C25E032E049E0BE016D5FB2
:101110007F4F8CE092E00E948F0C8B8180931502B0
:101120008C81809316022BE04CE052E065E084ED68
:1011300091E00E94F6058823E1F0EA81F0E0EF59A2
:10114000FF4F80810E944F051092D90186E691E001
:101150000E9421112A8130E040E050E060E070E020
:1011600080E090E00E940F1084ED90E00E94211139
:1011700081E00F900F900F900F90DF91CF91089525
:101180008F929F92AF92BF92CF92DF92EF92FF9297
:10119000CF93DF93CDB7DEB72A970FB6F894DEBFB3
:1011A0000FBECDBF25E032E044E064E172E0CE0145
:1011B00001960E943B0C8AE080930C0281E08093B0
:1011C0000D0280E280930E0280930F028093100242
:1011D000809311028093120281E18093130225E033
:1011E00032E048E0BE016B5F7F4F8CE092E00E94EE
:1011F0008F0C8D81809314028E81809315022AE0DA
:101200004CE052E065E084ED91E00E94F605882311
:1012100009F44FC08FB78F778FBFE981F0E0FE2FC1
:10122000EE278A81E82B8B8190E0982F88272C81EC
:10123000822BEE0FFF1FE25EFD4F918380838FB7FD
:1012400080688FBF1092D901898190E0982F8827FC
:101250002A81822B98878F838B8190E0982F882713
:101260002C81822B9A87898782E891E00E94211144
:101270008F809884282D392D40E050E060E070E0A8
:1012800080E090E00E940F1080E791E00E94211121
:1012900089849A84282D392D40E050E060E070E088
:1012A00080E090E00E940F1084ED90E00E942111F8
:1012B00081E02A960FB6F894DEBF0FBECDBFDF9156
:1012C000CF91FF90EF90DF90CF90BF90AF909F9025
:1012D0008F9008958F929F92AF92BF92CF92DF929C
:1012E000EF92FF92CF93DF93CDB7DEB72A970FB679
:1012F000F894DEBF0FBECDBF25E032E042E064E1EE
:1013000072E0CE0101960E943B0C8FB78F778FBFA2
:10131000E981F0E0FE2FEE278A81E82BEE0FFF1F18
:10132000E25EFD4F808191819B83808191818C83DE
:101330008FB780688FBF898190E0982F88272A8196
:10134000822B9E838D838B8190E0982F88272C8120
:10135000822B98878F838CE080930C0281E08093AE
:101360000D0280E280930E0280930F0280931002A0
:10137000809311028093120283E18093130225E08F
:1013800032E042E064E172E0CE0103960E941D0C5F
:1013900025E032E04AE0BE01675F7F4F8CE092E0DB
:1013A0000E948F0C8985809316028A85809317028C
:1013B0002CE04CE052E065E084ED91E00E94F605FF
:1013C000882339F11092D9018AE791E00E94211116
:1013D0008D809E80282D392D40E050E060E070E047
:1013E00080E090E00E940F1080E791E00E942111C0
:1013F0008F809884282D392D40E050E060E070E027
:1014000080E090E00E940F1084ED90E00E94211196
:1014100081E02A960FB6F894DEBF0FBECDBFDF91F4
:10142000CF91FF90EF90DF90CF90BF90AF909F90C3
:101430008F900895CF92DF92EF92FF920F931F93B8
:10144000CF93DF93CDB7DEB727970FB6F894DEBF03
:101450000FBECDBF0E94B10D9A8389838DE891E0C4
:101460000E9421114EE052E0FA0180818093070230
:101470002FE032E0F90180818093080280E192E060
:10148000FC01608160930902A1E1B2E06C9160937C
:101490000A0202E112E0F801608160930B026CE83D
:1014A00060930C0261E060930D0260E2FA016083D8
:1014B000F9016083FC0160836C93F801608382E032
:1014C0008093130289819A819093140289819A8171
:1014D0008093150229E630E04AE0BE016D5F7F4F40
:1014E0008CE092E00E941E0D8B81809316028C810D
:1014F000809317028FE19EE40197F1F700C000008E
:101500002CE04CE052E065E087E092E00E94F605B6
:10151000182F882309F4FBC08EE991E00E94211165
:101520000E944C060F2ECC24CA94DC2CFFE0EF2E38
:10153000F12CF02D11C091E0C91AD108E108F10891
:10154000C114D104E104F10439F481EA91E00E946C
:1015500021110E945D06DBC062ED71E08CE092E03B
:101560000E946B06182F882331F385EA91E00E94D0
:1015700021110E945D062091D20147E052E061E016
:101580008CE092E00E945D07182F882309F4BFC009
:1015900080911302833009F0B9C029E630E042E0BF
:1015A00064E172E0CE0105960E94740C2D81898160
:1015B0009A8130E0892F99272817390749F42E811D
:1015C00089819A8130E099272817390709F443C0A7
:1015D00088EA91E00E94211185E58F838BE8809352
:1015E0000C0281E080930D0280E280930E028093D2
:1015F0000F0280931002809311028093120284E004
:101600008093130229E630E041E064E172E0CE010C
:1016100007960E94590C29E630E049E0BE016D5F53
:101620007F4F8CE092E00E941E0D8B81809315020B
:101630008C8180931602EFE3FFE13197F1F700C050
:1016400000002BE04CE052E065E087E092E00E9471
:10165000F60510E05CC084E48F838BE880930C0275
:1016600081E080930D0280E280930E0280930F024E
:1016700080931002809311028093120284E0809381
:10168000130229E630E041E064E172E0CE01079602
:101690000E94590C29E630E049E0BE016D5F7F4FA2
:1016A0008CE092E00E941E0D8B81809315028C814C
:1016B000809316028FE39FE10197F1F700C00000CD
:1016C0002BE04CE052E065E087E092E00E94F605F6
:1016D000182F8823E1F0809107028093D401809134
:1016E00008028093D501809109028093D6018091F0
:1016F0000A028093D70180910B028093D80181E088
:101700008093D3011092D90111E001C010E0812F24
:1017100027960FB6F894DEBF0FBECDBFDF91CF91F5
:101720001F910F91FF90EF90DF90CF9008958F92CF
:101730009F92AF92BF92CF92DF92EF92FF92CF93A0
:10174000DF9300D0CDB7DEB78091D301811110C0F7
:1017500080911302813009F063C00E941A0A882325
:1017600009F45EC084EC91E00E942111969A58C061
:1017700080911302893009F441C028F4853051F07A
:101780008730A9F04DC0803109F445C0823109F499
:1017900045C046C08EEA91E00E9421110E94C00718
:1017A0008823F1F180EB91E00E94211139C083EB95
:1017B00091E00E9421110E94FB07882389F188EBA8
:1017C00091E00E9421118091050290E0982F8827D6
:1017D00020910602822B9A83898389809A80282D02
:1017E000392D40E050E060E070E080E090E00E9441
:1017F0000F1084ED90E00E94211112C08CEB91E05B
:101800000E9421110E945508882351F08EEB91E02F
:101810000E94211105C00E94C00802C00E946A09EE
:101820000F900F90DF91CF91FF90EF90DF90CF90CE
:10183000BF90AF909F908F9008950F931F93CF9379
:10184000DF93442399F0C82FD92FA62FB72F50E04C
:101850006991052F017010E0C901800F911FFC01F3
:10186000808186278D935F5F5413F2CFDF91CF91F4
:101870001F910F9108950F931F93CF93DF934423EC
:1018800099F0C62FD72FA82FB92F50E06991052FB7
:10189000017010E0C901800F911FFC018081862733
:1018A0008D935F5F5413F2CFDF91CF911F910F9112
:1018B0000895CF93DF93F901442399F0382FC62F71
:1018C000D72FA82FB92F9D91218180818227228136
:1018D000822723818227892789938A2F831B841754
:1018E00090F3DF91CF910895CF93DF93F9014423D3
:1018F00099F0362FC82FD92FA62FB72F9D91218170
:1019000080818227228182272381822789278993C8
:101910008A2F831B841790F3DF91CF9108953F9214
:101920004F925F926F927F928F929F92AF92BF92EF
:10193000CF92DF92EF92FF920F931F93CF93DF939B
:101940008C017B01342E6901442309F444C0C0E0BA
:10195000812C912C5401839444244A94542C612C5E
:10196000712CF801EC0FF11DA081B0E0A5019401EC
:101970000E942013A30192010E94FE124B015C0100
:10198000CE5FC31570F381E0831570F5E8012196F1
:101990000D5F1F4F3A943A943694832D90E0880F50
:1019A000991F080F191F61E070E080E090E0442467
:1019B0004A94542C612C712CA881B0E09B01AC019D
:1019C0000E942013A30192010E94FE122296C017CA
:1019D000D10791F70DC0812C912C5401839461E0C3
:1019E00070E080E090E004C061E070E080E090E0B2
:1019F000682579258A259B252FEF3FEF40E050E0B1
:101A00000E94FE12F60180817827F7017083F601AB
:101A100081816827F7016183DF91CF911F910F9139
:101A2000FF90EF90DF90CF90BF90AF909F908F90FE
:101A30007F906F905F904F903F9008953F924F92AC
:101A40005F926F927F928F929F92AF92BF92CF924E
:101A5000DF92EF92FF920F931F93CF93DF938C014E
:101A60006B01342E7901442309F444C0C0E0812C79
:101A7000912C5401839444244A94542C612C712C4D
:101A8000F801EC0FF11DA081B0E0A50194010E94C6
:101A90002013A30192010E94FE124B015C01CE5F54
:101AA000C31570F381E0831570F5E80121960D5F91
:101AB0001F4F3A943A943694832D90E0880F991FE3
:101AC000080F191F61E070E080E090E044244A9420
:101AD000542C612C712CA881B0E09B01AC010E94B8
:101AE0002013A30192010E94FE122296C017D10773
:101AF00091F70DC0812C912C5401839461E070E02A
:101B000080E090E004C061E070E080E090E0682553
:101B100079258A259B252FEF3FEF40E050E00E947A
:101B2000FE12F7019181808189277827F601708361
:101B3000F7019381828189276827F6016183DF910C
:101B4000CF911F910F91FF90EF90DF90CF90BF90BA
:101B5000AF909F908F907F906F905F904F903F904D
:101B60000895CF92DF92EF92FF920E94EA06C09012
:101B70006D00D0906E00E0906F00F0907000A0E0DB
:101B8000B0E09C01AD012F5F3F4F4F4F5F4F64E4CA
:101B900074E484E090E00E94EE126C0D7D1D8E1DB9
:101BA0009F1D2FEF3FEF40E050E00E94FE12609338
:101BB0006D0070936E0080936F0090937000809121
:101BC0006D0090916E00A0916F00B0917000FF9039
:101BD000EF90DF90CF900895CF93DF931F92CDB712
:101BE000DEB762ED71E08CE092E00E946B06882324
:101BF000C1F083E391E00E94211119828091D30109
:101C0000813009F489832091D201698144ED51E04A
:101C10008CE092E00E945D0781110E94970B0E9468
:101C20004C068091D3018130A9F48091D9018A308A
:101C300089F41092D9011092D3010E945D0680911F
:101C400061000E944F050E944C06969881EC91E03D
:101C50000E9421110F90DF91CF9108950E945A07A1
:101C600026E040E060E370E081E390E00E94FF0343
:101C700008950E94510708958091D9018A3029F072
:101C80008091D9018F5F8093D90108952F923F925F
:101C90004F925F926F927F928F929F92AF92BF927C
:101CA000CF92DF92EF92FF920F931F93CF93DF9328
:101CB000CDB7DEB76A970FB6F894DEBF0FBECDBFC3
:101CC0001C01098319872A8B3B8B4D8B852E698FCD
:101CD0007A8F202F312F4A895B896D89782D898DE4
:101CE0009A8DA0E00E9402148CF48DE2F1018083B1
:101CF000898D0E94BB13298339874A8B5B8B6D8B3F
:101D0000872E898F9A8F9924939401C0912C2981D1
:101D100039854A895B896D89782D898D9A8DA0E0F6
:101D20000E940214C9F0A12C0F2EFAECBF2EF02D48
:101D30000F2EFAE9CF2EF02D0F2EFBE3DF2EF02D24
:101D4000E12CF12C00E010E00E942D13B22FA0E056
:101D50000E94021431F0CFC080E3F101808381E062
:101D600004C10F2E412CFAEC5F2EFAE96F2EFBE333
:101D70007F2EF02D9A86388E2F8A9A883B882D8860
:101D8000C301B2012AE030E040E050E00E94FE12C0
:101D900029013A0189019A01A02EB12EC22ED32E1B
:101DA000E12CF12C00E010E029813985492D532DDB
:101DB000622D782D898D9A8D0E942D13A0E00E94AE
:101DC0000214F1F29A842F88388C9301820140E04A
:101DD00050E0BA017101E90CF11CF88EEF8A4A86D5
:101DE0001B872C873D874E875F87688B798BA42C58
:101DF000B12EC22ED32EE12CF12C00E010E029816F
:101E000039854A895B896D89782D898D9A8D0E94E3
:101E10002D13205DEF89F88D2083939429813985D6
:101E20004A895B896D89782D898D9A8D0E942B1343
:101E3000822E39874A87E52E162F072FF82E9A8B88
:101E4000F1E04F1651046104710409F086C051C0DD
:101E5000C301B2012AE030E040E050E00E94FE12EF
:101E600029013A0159016A01E12CF12C87012983EA
:101E7000BA82CB82DC82ED82FE820F831887CD8806
:101E8000DE88EA8CCE0CD11CDC8ACB8ACB80DC804D
:101E9000E12CF12C00E010E0282D39854A85522DE7
:101EA000632D792D898D9A890E942D13205DEB89F0
:101EB000FC892083FA8DFF5FFA8F282D39854A85AA
:101EC000522D632D792D898D9A890E942B13822E94
:101ED00039874A87252E362E972E898F9A8B01E0D7
:101EE000401651046104710409F0B2CF9A8C892D17
:101EF0003CC0892D3AC0F101E90DF11DB05DB08300
:101F00009394A12C0F2EFAECBF2EF02D0F2EFAE990
:101F1000CF2EF02D0F2EFBE3DF2EF02DE12CF12C38
:101F200000E010E0298139854A895B896D89782D27
:101F3000898D9A8D0E942B13822E39874A87E52E30
:101F4000162F072FF82E9A8B0F2E412CFAEC5F2EAE
:101F5000FAE96F2EFBE37F2EF02D9A8E3E8A2D8AB2
:101F60002E2C312E902EF98E73CF6A960FB6F894E0
:101F7000DEBF0FBECDBFDF91CF911F910F91FF90BC
:101F8000EF90DF90CF90BF90AF909F908F907F9019
:101F90006F905F904F903F902F90089522E040E027
:101FA00069E370E08AE390E00E94FF0323E040E0F1
:101FB00069E370E08AE390E00E94FF0324E040E0E0
:101FC00069E370E08AE390E00E94FF030895CF92F6
:101FD000DF92EF92FF920F931F930F2EF0E8CF2E18
:101FE000F5E2DF2EE12CF12CF02D06E010E020E0F0
:101FF00048E160E080E090E00E94371010922D02EE
:1020000010922C0281E090E090932F0280932E0298
:102010001F910F91FF90EF90DF90CF9008950F9355
:102020001F93CF93DF93CDB7DEB72F970FB6F894FA
:10203000DEBF0FBECDBF022F132F242F352F462F0B
:10204000572F682F792FCE0101960E94460E682FD8
:10205000CE0101960E940C112F960FB6F894DEBFA8
:102060000FBECDBFDF91CF911F910F9108959F9229
:10207000AF92BF92CF92DF92EF92FF920F931F9396
:10208000CF93DF93EC01B62EA42E922E21E040E0F8
:1020900060E370E081E390E00E94FF0320E040E015
:1020A00062E370E081E390E00E94E2031AB8892DB8
:1020B000802B80689C2E982A90BC8AB1A82ABA28C6
:1020C000BAB88AB1182B1AB98BB18D2B8BB9CE0146
:1020D00080549109029740F420E040E066E370E00C
:1020E00087E390E00E94FF03C234D10530F4C0348E
:1020F000D105C8F5CD2B29F050C0C115D240E1F073
:102100004CC0CC0CDD1CEE1CFF1CCC0CDD1CEE1CF2
:10211000FF1CA7019601220F331F441F551F220FDA
:10212000331F441F551F60E074E284EF90E00E946B
:10213000FE122150310933C0CC0CDD1CEE1CFF1CFB
:10214000CC0CDD1CEE1CFF1CA7019601220F331FD7
:10215000441F551F60E074E284EF90E00E94FE127D
:10216000215031091CC0C701B6010E9460129B01B9
:10217000AC010E9468119B01AC0160E074E284E74D
:102180009BE40E94CC1120E030E040E85FE30E9435
:1021900067110E9434129B0102C020E030E029B98F
:1021A000832F8F7080BDDF91CF911F910F91FF9092
:1021B000EF90DF90CF90BF90AF909F9008951092D6
:1021C000DA011092DB011092DC011092DD018CB972
:1021D00020C08091DA019091DB01A091DC01B091E7
:1021E000DD010196A11DB11D8093DA019093DB0101
:1021F000A093DC01B093DD018091DA019091DB01C5
:10220000A091DC01B091DD018135934CA105B105B0
:1022100010F45D9BDECF08950F931F93CF93DF9350
:10222000062F662349F0C82FD92F10E089910E940C
:10223000DF101F5F1013FACFDF91CF911F910F9125
:1022400008951F93CF93DF93EC018881882381F059
:1022500010E00E94DF108FE99FE00197F1F700C0C6
:1022600000001F5FFE01E10FF11D80818111F1CFA0
:1022700080E00E94DF10DF91CF911F9108958F922F
:10228000AF92CF92EF92FF920F931F931F92812CE8
:10229000A12CCC24C394E12CF12C00E010E024E02C
:1022A00040E060E080E00E94EF068FB780688FBF5B
:1022B0000F901F910F91FF90EF90CF90AF908F9064
:1022C000089508950E943C0E0E9498000895505869
:1022D000BB27AA270ED048C139D130F03ED120F01B
:1022E00031F49F3F11F41EF42EC10EF4E095E7FB8C
:1022F00024C1E92F4AD180F3BA1762077307840714
:10230000950718F071F49EF562C10EF4E0950B2E5E
:10231000BA2FA02D0B01B90190010C01CA01A00137
:102320001124FF27591B99F0593F50F4503E68F192
:102330001A16F040A22F232F342F4427585FF3CFD3
:10234000469537952795A795F0405395C9F77EF4A4
:102350001F16BA0B620B730B840BBAF09150A1F0ED
:10236000FF0FBB1F661F771F881FC2F70EC0BA0F73
:10237000621F731F841F48F4879577956795B795FB
:10238000F7959E3F08F0B3CF9395880F08F09927F3
:10239000EE0F9795879508950CD0E6C0DED040F0FB
:1023A000D5D030F021F45F3F19F0C7C0511110C1F2
:1023B000CAC0EBD098F39923C9F35523B1F3951B09
:1023C000550BBB27AA2762177307840738F09F5F56
:1023D0005F4F220F331F441FAA1FA9F333D00E2EC5
:1023E0003AF0E0E830D091505040E695001CCAF732
:1023F00029D0FE2F27D0660F771F881FBB1F2617F7
:1024000037074807AB07B0E809F0BB0B802DBF01C9
:10241000FF2793585F4F2AF09E3F510568F08DC00B
:10242000D7C05F3FECF3983EDCF3869577956795D0
:10243000B795F7959F5FC9F7880F911D969587957A
:1024400097F90895E1E0660F771F881FBB1F621799
:1024500073078407BA0720F0621B730B840BBA0B57
:10246000EE1F88F7E095089598D088F09F5790F078
:10247000B92F9927B751A0F0D1F0660F771F881FA9
:10248000991F1AF0BA95C9F712C0B13081F09FD0E8
:10249000B1E008959CC0672F782F8827B85F39F086
:1024A000B93FCCF3869577956795B395D9F73EF408
:1024B00090958095709561957F4F8F4F9F4F0895B0
:1024C000E89409C097FB3EF49095809570956195CE
:1024D0007F4F8F4F9F4F9923A9F0F92F96E9BB2784
:1024E0009395F695879577956795B795F111F8CF00
:1024F000FAF4BB0F11F460FF1BC06F5F7F4F8F4F6B
:102500009F4F16C0882311F096E911C0772321F060
:102510009EE8872F762F05C0662371F096E8862FF8
:1025200070E060E02AF09A95660F771F881FDAF74F
:10253000880F9695879597F9089597F99F6780E892
:1025400070E060E008959FEF80EC089500240A9405
:102550001616170618060906089500240A9412167E
:102560001306140605060895092E0394000C11F4B1
:10257000882352F0BB0F40F4BF2B11F460FF04C05E
:102580006F5F7F4F8F4F9F4F089557FD9058440FB7
:10259000551F59F05F3F71F04795880F97FB991FC2
:1025A00061F09F3F79F0879508951216130614067F
:1025B000551FF2CF4695F1DF08C01616170618060C
:1025C000991FF1CF86957105610508940895E894E7
:1025D000BB2766277727CB0197F90895DB018F93F7
:1025E0009F930E942013BF91AF91A29F800D911DD8
:1025F000A39F900DB29F900D11240895A1E21A2E71
:10260000AA1BBB1BFD010DC0AA1FBB1FEE1FFF1F96
:10261000A217B307E407F50720F0A21BB30BE40BE6
:10262000F50B661F771F881F991F1A9469F760952D
:102630007095809590959B01AC01BD01CF010895E7
:102640000E940E14A59F900DB49F900DA49F800D25
:10265000911D11240895689401C0E894F92FF12B7D
:1026600012F00C945F13A0E0B0E0E9E3F3E10C9406
:10267000D113092E059422F40E94BB13112392F466
:10268000F0E80F26FFEFE094F09400951095B094D9
:10269000C094D094A194BF0ACF0ADF0AEF0AFF0AC0
:1026A0000F0B1F0B0E946A1307FC0E94BB13CDB7D0
:1026B000DEB7ECE00C94ED13689401C0E8948F92BF
:1026C0009F92CF93DF930E946A13DF91CF919F90E7
:1026D0008F90089588249924F401E401B0E49F9335
:1026E000AA279A158B049C04ED05FE05CF05D0079B
:1026F000A10798F4AD2FDC2FCF2FFE2FE92D982CBA
:10270000892E982F872F762F652F542F432F322F06
:102710002227B85031F7BF9127C01B2EBF91BB278E
:10272000220F331F441F551F661F771F881F991FD5
:10273000881C991CEE1FFF1FCC1FDD1FAA1FBB1F8B
:102740008A149B04EC05FD05CE05DF05A007B10743
:1027500048F08A189B08EC09FD09CE09DF09A00B97
:10276000B10B21601A94E1F62EF49401AF01BE0181
:10277000CD01000C089560957095809590953095E9
:102780004095509521953F4F4F4F5F4F6F4F7F4F73
:102790008F4F9F4F08952F923F924F925F926F926B
:1027A0007F928F929F92AF92BF92CF92DF92EF92E1
:1027B000FF920F931F93CF93DF93CDB7DEB7CA1B62
:1027C000DB0B0FB6F894DEBF0FBECDBF09942A888D
:1027D000398848885F846E847D848C849B84AA8435
:1027E000B984C884DF80EE80FD800C811B81AA81C2
:1027F000B981CE0FD11D0FB6F894DEBF0FBECDBF8D
:10280000ED0108950024A7FD00942A173005400526
:10281000500560057005800590050895A29FB001E0
:10282000B39FC001A39F700D811D1124911DB29F04
:0E283000700D811D1124911D0895F894FFCFA5
:10283E00010209263E59636F794747474701000059
:10284E000042414449535220310A00424144495307
:10285E005220320A0042414449535220330A004268
:10286E00414449535220340A0042414449535220B4
:10287E00350A0042414449535220360A004241442F
:10288E0049535220370A0042414449535220380AD4
:10289E000042414449535220390A004241444953AF
:1028AE00522031300A004241444953522031310AFC
:1028BE00004241444953522031320A0042414449B8
:1028CE0053522031330A004241444953522031348D
:1028DE000A004241444953522031350A00424144D4
:1028EE004953522031360A00424144495352203155
:1028FE00370A004241444953522031380A004241BE
:10290E00444953520A004E4557206865726520733C
:10291E00746172740073746174653A00484552456F
:10292E00204641494C31300A004845524520464127
:10293E00494C31310A004348414E4E454C203A0035
:10294E00202044415441203A200052454144494EF2
:10295E00472041444452455353203A2000636F6E42
:10296E006E65637420726571756573740A00580A1A
:10297E000058530A00480A004641494C0A005420A8
:10298E00420A005420530A00533A20005420430AAE
:10299E0000444953434F4E4E45435445440A0000AC
:00000001FF
