:1000000061C00000A0C600007BC0000079C00000F5
:1000100077C0000075C0000073C00000A8C70000D2
:100020006FC000006DC000007BC7000069C0000009
:100030000C94981465C0000063C0000061C000000B
:10004000F8C600005DC0000044C7000059C00000B1
:10005000B6C7000055C0000053C0000051C00000EA
:100060004FC000004DC000004BC0000049C0000060
:1000700047C0000006C700008EC6000041C0000057
:10008000B1C600003DC000003BC00000CC01CE0165
:10009000D001D201D401D601D801C001C201C401EE
:1000A000C601C801CA01BC01BE01F304F904F6048B
:1000B000FC04FF040205050508050B050E051105E6
:1000C0001405170511241FBECFEFD0E1DEBFCDBF51
:1000D00014E0A0E0B1E0E8E3F6E800E00BBF02C006
:1000E00007900D92A239B107D9F720E1A2E9B4E057
:1000F00001C01D92A93EB207E1F792D70C941A43B2
:1001000085C70A9B18C09091970480919604981314
:1001100005C010929704109296040895E0919704F8
:10012000F0E0E45AF34F80818CB9809197048F5F9F
:10013000809397040895109298040895109295045E
:1001400081E08093940482E0809398041092970455
:10015000109296048FE08CB908951092950481E076
:1001600080939404809398041092970410929604BC
:100170008EE08CB908951092950485E080939404E4
:100180008AE080939804109297041092960488E075
:100190008CB908951092950485E0809394048BE0C7
:1001A00080939804109297041092960489E08CB979
:1001B00008958091560C80935D0C81E080939704A4
:1001C00082E080939604109298048AE08CB9089596
:1001D00081E080935D0C8093970482E08093960485
:1001E000109298048BE08CB9089580E180935D0CA7
:1001F00080E280935E0C80E380935F0C80E48093C8
:10020000600C80E58093610C81E08093970486E028
:1002100080939604109298048CE08CB90895109203
:10022000950481E0809394048CE08093980410926C
:100230009704109296048DE08CB90895109295045D
:100240008EE18093940483E0809398041092970445
:100250001092960481E08CB908951092950486E27C
:100260008093940484E080939804109297041092F1
:10027000960482E08CB908958091120D882339F09C
:1002800010929704109296048DED8CB908951092F7
:1002900095048BE08093940485E0809398041092F9
:1002A00097041092960483E08CB908958091310EE2
:1002B000882339F010929704109296048DED8CB932
:1002C00008951092950485E08093940486E08093CD
:1002D0009804109297041092960484E08CB90895C3
:1002E0008091730E882339F010929704109296042F
:1002F0008DED8CB908951092950485E08093940457
:1003000097E09093980410929704109296048CB9F9
:1003100008958091130E882339F01092970410925B
:1003200096048DED8CB908951092950485E0809324
:10033000940488E080939804109297041092960495
:1003400086E08CB908951092950488E08093940417
:1003500089E080939804109297041092960487E0A5
:100360008CB9089590E0FC013197EF30F10508F564
:10037000EA5BFF4F0C942C42F0CE0895DFCE089537
:10038000FACE089507CF089514CF089521CF089588
:100390002CCF089544CF089551CF08955ECF08958E
:1003A0006BCF089583CF08959BCF0895B2CF089562
:1003B000CACF089510929804109297041092960450
:1003C0008D3231F481E08093740E8AEA8CB90895FD
:1003D0008DED8CB9089510929804109297041092A4
:1003E00096048D3231F481E080936A0E8AEA8CB9EA
:1003F00008958DED8CB90895CF93DF931F92CDB7FB
:10040000DEB7E0919504F0E0EC57F34F80838091E4
:1004100095048F5F80939504909195048091940446
:1004200098132DC010929804198289818F3080F41E
:10043000E981F0E0A981B0E0AC57B34F8C91E1586D
:10044000FF4E808389818F5F898389818F3080F31C
:10045000198289818F3080F4E981F0E0A981B0E0D0
:10046000AD56B34F8C91E955FF4E808389818F5FE4
:10047000898389818F3080F381E080935A0C1092B8
:100480009704109296048AEA8CB90F90DF91CF916D
:100490000895CF93DF931F92CDB7DEB7E091950417
:1004A000F0E0EC57F34F8083809195048F5F809349
:1004B00095049091950480919404981339C01092FA
:1004C00098048091840C8093E710198289818A3086
:1004D00080F4E981F0E0A981B0E0AB57B34F8C9193
:1004E000E15EF04F808389818F5F898389818A30C3
:1004F00080F380918F0C8093C41019828981893197
:1005000080F4E981F0E0A981B0E0A057B34F8C916D
:10051000E257FF4E808389818F5F8983898189318A
:1005200080F38091A90C8093C11081E08093590CD5
:1005300010929704109296048AEA8CB90F90DF917A
:10054000CF910895E0919504F0E0EC57F34F80834C
:10055000809195048F5F809395049091950480918C
:100560009404981331C0109298048091880C809361
:10057000150E8091870C8093160E8091860C8093C7
:10058000170E8091850C8093180E8091840C8093B7
:10059000190E8091890C80931A0E80918A0C809399
:1005A0001B0E80918B0C80931C0E80918C0C809381
:1005B0001D0E80918D0C80931E0E80918E0C809369
:1005C0001F0E81E08093120D1092970410929604F2
:1005D0008AEA8CB90895E0919504F0E0EC57F34F66
:1005E0008083809195048F5F80939504909195040A
:1005F00080919404981319C0109298048091880CEB
:100600008093650E8091870C8093660E8091860C96
:100610008093670E8091850C8093680E8091840C86
:100620008093690E81E08093310E109297041092AE
:1006300096048AEA8CB90895E0919504F0E0EC57AD
:10064000F34F8083809195048F5F80939504909100
:10065000950480919404981319C010929804809185
:10066000880C80936B0E8091870C80936C0E809128
:10067000860C80936D0E8091850C80936E0E809118
:10068000840C80936F0E81E08093730E1092970418
:10069000109296048AEA8CB90895E0919504F0E0EE
:1006A000EC57F34F8083809195048F5F809395047E
:1006B0009091950480919404981319C01092980415
:1006C0008091880C80930E0E8091870C80930F0E82
:1006D0008091860C8093100E8091850C8093110E72
:1006E0008091840C8093120E81E08093130E1092FF
:1006F0009704109296048AEA8CB90895E0919504C3
:10070000F0E0EC57F34F8083809195048F5F8093E6
:1007100095049091950480919404981325C01092AB
:1007200098048091840C809307018091850C8093BC
:1007300006018091860C809305018091870C80933F
:1007400004018091880C809303018091890C80932F
:10075000020180918A0C8093010180918B0C80931F
:10076000000181E0809399041092970410929604FE
:100770008AEA8CB90895CF93DF931F92CDB7DEB785
:10078000E0919504F0E0EC57F34F8083809195045D
:100790008F5F8093950490919504809194049813B1
:1007A0001CC065E084E89CE00E94A33689838981AF
:1007B000E98189E1E89FF0011124ED5EF24F848523
:1007C00080935D0C81E08093970482E0809396048F
:1007D000109298048AEA8CB906C01092970410927D
:1007E00096048AEA8CB90F90DF91CF910895CF9348
:1007F000DF931F92CDB7DEB7E0919504F0E0EC57A0
:10080000F34F8083809195048F5F8093950490913E
:1008100095048091940498131CC065E084E89CE0E2
:100820000E94A33689838981E98189E1E89FF001EB
:100830001124ED5EF24F868580935D0C81E08093FC
:10084000970482E080939604109298048AEA8CB907
:1008500006C010929704109296048AEA8CB90F9001
:10086000DF91CF910895E0919504F0E0EC57F34FBC
:100870008083809195048F5F809395049091950477
:1008800080919404981385C0E4E8FCE0A08189E19C
:100890008A9FD0011124AD5EB24F15969C91909322
:1008A0005D0CA0818A9FD0011124AD5EB24F1496D9
:1008B0009C9190935E0CA0818A9FD0011124AD5E23
:1008C000B24F13969C9190935F0CA0818A9FD001A8
:1008D0001124AD5EB24F12969C919093600CA08152
:1008E0008A9FD0011124AD5EB24F11969C919093D6
:1008F000610CA0818A9FD0011124AD5EB24F169683
:100900009C919093620CA0818A9FD0011124AD5ECE
:10091000B24F17969C919093630CA0818A9FD0014F
:100920001124AD5EB24F18969C919093640CA081F7
:100930008A9FD0011124AD5EB24F19969C9190937D
:10094000650CA0818A9FD0011124AD5EB24F1A962A
:100950009C919093660CA0818A9FD0011124AD5E7A
:10096000B24F1B969C919093670CE0818E9FF00193
:100970001124ED5EF24F84858093680C81E08093B2
:1009800097048DE080939604109298048AEA8CB9BB
:10099000089510929704109296048AEA8CB90895EB
:1009A000CF92EF920F930A9B45C0809192048111E0
:1009B0000DC081E080939204C12CEE24E39400E00A
:1009C00020E045E060E080E00E942B1D109293043F
:1009D0008091980490E08D30910570F5FC01EB5A00
:1009E000FF4F0C942C428CB1BDDC26C08CB1E2DCF4
:1009F00023C08CB1F0DC20C08CB1FEDC1DC08CB1FA
:100A000048DD1AC08CB19EDD17C08CB1E4DD14C086
:100A10008CB112DE11C08CB140DE0EC08CB16EDE26
:100A20000BC08CB1A8DE08C08CB1E1DE05C08CB172
:100A30001ADF02C0109298040F91EF90CF900895A2
:100A400022E040E063E270E082E290E02ED323E017
:100A500040E061E270E082E290E044C308950A9BC6
:100A600002C01B9A0895109298041B9808958091D3
:100A700093048F5F80939304809193048E3141F4AB
:100A80000E94281D109293041092920410929804D0
:100A90000895FC011282108287E081830895DC01B1
:100AA00012968C911297883029F18F5F12968C9351
:100AB000129711968C91119790E00196877090781B
:100AC00011968C9311974423A9F0E62FF72F20E07D
:100AD00030E0BD0158E2859F600D711D1124CB01EE
:100AE0005191DC01A20FB31F13965C932F5F3F4F10
:100AF0002417B0F30895FC012281222341F02081C4
:100B0000F8E22F9F800D911D11240396089580E037
:100B100090E00895FC012281222341F0808190E041
:100B200001968770907880832150228308958FEFFB
:100B30008093610010B81092620020E040E069E309
:100B400070E08AE390E0CED221E040E069E370E01B
:100B50008AE390E0C7D222E040E069E370E08AE3F4
:100B600090E0C0C20895CF93DF9384EF91E00E949C
:100B7000401C843481F4C0E0D0E0CE018B509E4F05
:100B80000E94401CFE01E050FF4F80832196C83038
:100B9000D10599F714C0C0E0D0E0FE01E050FF4F4E
:100BA0006081CE018B509E4F0E94481C2196C83018
:100BB000D10599F764E484EF91E00E94481CDF912D
:100BC000CF910895D0CF0895CF93DF93809199046A
:100BD000882389F010929904C0E0D0E0FE01E05033
:100BE000FF4F6081CE018B509E4F0E94481C219682
:100BF000C830D10599F7DF91CF91089580919A047B
:100C000090E001968770907880939A04E0919A041E
:100C1000F0E0E050FF4F8081809362008BB39091B1
:100C20009A04887F892B8BBB0895CEDF18DF64E69A
:100C300070E080E090E00E94151BF7CF20E040E0DC
:100C400063E670E084E690E04DD225E040E061E2AA
:100C500070E082E290E046C208958F929F92AF9238
:100C6000BF92CF92DF92EF92FF920F9300E020E0CD
:100C700040E061E070E080E10E94D51CE1DE57DFDA
:100C80000E9406200E94E6340E947C3DD7DF0E942D
:100C90009E3B0F2EF0E28F2EF1EA9F2EF7E0AF2E53
:100CA000B12CF02D0F2EF6E0CF2ED12CF02DE12C13
:100CB00008E120E040E060E080E092E00E94241E35
:100CC0008CE191E00E940D3D0F2EF0E88F2EF5E2B1
:100CD0009F2EA12CB12CF02D20E041E061E080E0BE
:100CE00090E00E94DA1EAA9A6DDF0E94453DE5E67B
:100CF000F0E08081816080830F2EFCEAEF2EFCE023
:100D0000FF2EF02D01E020E030E040E550E062E20F
:100D100071E085E196E00E949618982F990F990B43
:100D2000282F392F492F592F692F792F892F0E946A
:100D30001D3D0F91FF90EF90DF90CF90BF90AF904F
:100D40009F908F9008951F920F920FB60F921124CB
:100D50000BB60F922F933F934F935F936F937F93B5
:100D60008F939F93AF93BF93EF93FF930E94EE1FD8
:100D7000FF91EF91BF91AF919F918F917F916F9173
:100D80005F914F913F912F910F900BBE0F900FBE2F
:100D90000F901F9018951F920F920FB60F9211246B
:100DA0000BB60F922F933F934F935F936F937F9365
:100DB0008F939F93AF93BF93EF93FF93B0D1FF9126
:100DC000EF91BF91AF919F918F917F916F915F91C3
:100DD0004F913F912F910F900BBE0F900FBE0F9030
:100DE0001F9018951F920F920FB60F9211240BB6F9
:100DF0000F922F933F934F935F936F937F938F93B4
:100E00009F93AF93BF93EF93FF9395D1FF91EF9192
:100E1000BF91AF919F918F917F916F915F914F9112
:100E20003F912F910F900BBE0F900FBE0F901F9010
:100E300018951F920F920FB60F9211240BB60F92B6
:100E40002F933F934F935F936F937F938F939F93D2
:100E5000AF93BF93EF93FF930E94763DFF91EF9185
:100E6000BF91AF919F918F917F916F915F914F91C2
:100E70003F912F910F900BBE0F900FBE0F901F90C0
:100E800018951F920F920FB60F9211240BB60F9266
:100E90002F933F934F935F936F937F938F939F9382
:100EA000AF93BF93EF93FF930E94793DFF91EF9132
:100EB000BF91AF919F918F917F916F915F914F9172
:100EC0003F912F910F900BBE0F900FBE0F901F9070
:100ED00018951F920F920FB60F9211240BB60F9216
:100EE0002F933F934F935F936F937F938F939F9332
:100EF000AF93BF93EF93FF9353DDFF91EF91BF91BA
:100F0000AF919F918F917F916F915F914F913F91A1
:100F10002F910F900BBE0F900FBE0F901F90189542
:100F20001F920F920FB60F9211240BB60F922F93B0
:100F30003F934F935F936F937F938F939F93AF9361
:100F4000BF93EF93FF9393DDFF91EF91BF91AF912B
:100F50009F918F917F916F915F914F913F912F91D1
:100F60000F900BBE0F900FBE0F901F9018951F9201
:100F70000F920FB60F9211240BB60F922F933F933F
:100F80004F935F936F937F938F939F93AF93BF9391
:100F9000EF93FF930E94143BFF91EF91BF91AF91AC
:100FA0009F918F917F916F915F914F913F912F9181
:100FB0000F900BBE0F900FBE0F901F9018951F92B1
:100FC0000F920FB60F9211240BB60F922F933F93EF
:100FD0004F935F936F937F938F939F93AF93BF9341
:100FE000EF93FF938ED8FF91EF91BF91AF919F91B7
:100FF0008F917F916F915F914F913F912F910F90C2
:101000000BBE0F900FBE0F901F9018951F920F925E
:101010000FB60F9211240F900FBE0F901F901895CE
:101020001CDE84E291E00E940D3D0F2EF1EBEF2ECD
:10103000FCE0FF2EF02D01E020E030E040E951E03F
:1010400062E271E084ED9FE30E949618982F990F59
:10105000990B282F392F492F592F692F792F892F35
:101060000E941D3D80E391E00E940D3D0F2EFEEA9F
:10107000EF2EFCE0FF2EF02D20E030E046E252E0C3
:101080006EE371E084EF9AE30E949618982F990F0F
:10109000990B282F392F492F592F692F792F892FF5
:1010A0000E941D3D0E949019FFCFFB01DC013C9185
:1010B00061E070E0022E02C0660F771F0A94E2F72B
:1010C000609536233C93808168236083808150E063
:1010D000BA0102C0660F771F2A95E2F79B01282B01
:1010E00020830895FB01DC013C9161E070E0022E59
:1010F00002C0660F771F0A94E2F7362B3C9380817B
:10110000609568236083808150E0BA0102C0660F59
:10111000771F2A95E2F79B01282B20830895809161
:101120006E1090916F1020E040E050E06CE970E0AC
:101130000C94541608958091E5109091E61060E0AB
:1011400070E00C9488160895CF93C82F8091E51015
:101150009091E6104FEF5FEFBA010E944517C093E0
:101160009C00CF9108950F931F93CF93DF93062F89
:10117000662341F0C82FD92F10E08991E5DF1F5F6A
:101180001013FBCFDF91CF911F910F910895EF9234
:10119000FF920F931F93CF93DF931F92CDB7DEB7CC
:1011A0007C019B0100916E1010916F10A4E6B0E0DD
:1011B0000E94324228EE33E040E050E00E940A42B2
:1011C000BE016F5F7F4FC8010E94B016813019F4D5
:1011D000F701808302C0F701108289810F90DF91AF
:1011E000CF911F910F91FF90EF9008951F93CF9390
:1011F000DF931F92CDB7DEB7182F60ED77E0CE01F9
:101200000196C5DF9981992321F0811721F082E0B1
:1012100003C081E001C080E00F90DF91CF911F916A
:101220000895CF93DF931F92CDB7DEB78DE0DEDF59
:1012300089838981882311F0898129C08AE0D6DFDA
:1012400089838981882311F0898121C08FE4CEDFD1
:1012500089838981882311F0898119C08BE4C6DFD5
:1012600089838981882311F0898111C08DE0BEDFD7
:1012700089838981882311F0898109C08AE0B6DFDA
:1012800089838981882311F0898101C080E00F90D2
:10129000DF91CF910895CF93DF9300D0CDB7DEB724
:1012A00061E070E0CE01029672DF8A818111F8CF91
:1012B00064E080E491E057DF60ED77E0CE010196D5
:1012C00066DF9981992359F1823659F18134A1F46D
:1012D00084E58CDF811126C08DE088DF811122C07A
:1012E0008DE084DF81111EC08AE080DF81111AC089
:1012F0008DE07CDF811116C08AE078DF811112C099
:101300008FE474DF81110EC08BE470DF81110AC09D
:101310008DE06CDF811106C08AE068DF03C081E0E8
:1013200001C083E00F900F90DF91CF910895CF938C
:10133000DF931F92CDB7DEB761E070E0CE0101967A
:1013400026DF89818111F8CF66E085E491E00BDF2B
:1013500064E670E080E090E00E94151B80E00F9052
:10136000DF91CF910895CF93DF931F92CDB7DEB772
:1013700061E070E0CE0101960ADF89818111F8CF2A
:1013800061E18CE491E0EFDE4CDF0F90DF91CF91D3
:101390000895CF93DF931F92CDB7DEB761E070E081
:1013A000CE010196F4DE89818111F8CF61E18EE5ED
:1013B00091E0D9DE36DF0F90DF91CF9108956AE09A
:1013C00070E080E090E00E94151B65DF811107C08E
:1013D000AEDF811104C0C7DF811101C0DACF0895EB
:1013E0000F931F93CF93DF9300D0CDB7DEB78C015F
:1013F00061E070E0CE010296CADE8A818111F8CFE9
:101400006EE080E791E0AFDE83E5F0DE811132C06F
:1014100060ED77E0CE010196BADE9981992329F13A
:101420008A33B1F760ED77E0CE010196B0DE9981A5
:101430009923E9F08053F80180838DE0D7DE811194
:1014400019C08AE0D3DE811115C0F8018081833094
:1014500051F460ED77E0CE01019699DE99819923F0
:1014600041F08A30B1F7DDDE05C081E003C081E0E4
:1014700001C081E00F900F90DF91CF911F910F91EC
:101480000895CF92DF92EF92FF920F931F93CF9325
:10149000DF9300D0CDB7DEB77C01C62E8A01D22EF5
:1014A00061E070E0CE01029672DE8A818111F8CF90
:1014B0006EE08FE791E057DE6C2DC70154DE63E0EC
:1014C0008EE891E050DE6D2DC8014DDE63E082E9CB
:1014D00091E049DE60E971E080E090E00E94151B38
:1014E00060E971E080E090E00E94151B61E070E02F
:1014F000CE0101964CDE89818111F8CFCCDE83309C
:1015000049F30F900F90DF91CF911F910F91FF90B2
:10151000EF90DF90CF900895AF92BF92CF92DF927D
:10152000EF92FF920F931F93CF93DF931F92CDB74C
:10153000DEB77C01B62E6A01A22EADDE811121C07C
:10154000CE0101964DDF81111CC081E0F80180833E
:101550008981853099F42A2DA6016B2DC70191DF71
:1015600081110FC0CE0101963BDF81110AC0898134
:10157000853031F4F801108280E003C080E001C0C2
:1015800080E00F90DF91CF911F910F91FF90EF902E
:10159000DF90CF90BF90AF9008951F93CF93DF93CC
:1015A00000D0CDB7DEB761E070E0CE010296EFDD8E
:1015B0008A818111F8CF6BE286E991E0D4DD83E482
:1015C00015DE182F882381F0282F30E040E050E00E
:1015D00060E070E080E090E00E941D3D82EC91E0D0
:1015E0000E940D3D812F1AC060ED77E0CE0101967B
:1015F000CEDD9981911106C087EC91E00E940D3DEE
:1016000081E00CC08A3081F70CDE182F882331F07E
:101610008CEC91E00E940D3D812F00C00F900F9047
:10162000DF91CF911F9108959F92AF92BF92CF9279
:10163000DF92EF92FF920F931F93CF93DF93CDB77B
:10164000DEB727970FB6F894DEBF0FBECDBF6C0193
:10165000A62E942E7901B02E042F10E020E030E069
:1016600040E050E060E070E0CE01019629D20DE14B
:101670000B0D0A0D080F20E030E040E050E060E084
:1016800070E0CE0101961CD2182F61E070E0CE010F
:1016900007967DDD9F819111F8CF6BE083ED91E09E
:1016A00062DD612FCE0101965EDD62E083E991E0AB
:1016B0005ADDB7DD811136C08EE398DD811132C06D
:1016C000092D10E020E030E040E050E060E070E004
:1016D000CE010196F5D1182F64E18FED91E043DD45
:1016E0006A2DC60140DD66E084EF91E03CDD612FAC
:1016F000CE01019638DD8DE327DD6B2DC70133DD8B
:1017000062E083E991E02FDD6AE070E080E090E044
:101710000E94151B61E070E0CE01069638DD8E81D7
:101720008111F8CF27960FB6F894DEBF0FBECDBF5C
:10173000DF91CF911F910F91FF90EF90DF90CF90AD
:10174000BF90AF909F900895BF92CF92DF92EF929B
:10175000FF920F931F93CF93DF931F92CDB7DEB706
:101760006C01162FB42E790196DD811116C0CE01C1
:10177000019636DE811111C08981853059F08330A0
:1017800059F00BDF811109C097014B2D612FC60164
:101790004BDF03C084E001C085E00F90DF91CF9163
:1017A0001F910F91FF90EF90DF90CF90BF90089521
:1017B0006F927F928F929F92AF92BF92CF92DF9261
:1017C000EF92FF920F931F93CF93DF93CDB7DEB7C6
:1017D0002C970FB6F894DEBF0FBECDBF7C01B62E9E
:1017E000A42E6901042F10E020E030E040E050E03A
:1017F00060E070E0CE01019663D100E40B0D080FAC
:1018000020E030E040E050E060E070E0CE01019682
:1018100057D1182F61E070E0CE010C96B8DC9C85A2
:101820009111F8CF6BE083ED91E09DDC612FCE014B
:10183000019699DC62E083E991E095DCF2DC8111AC
:10184000DCC08EE3D3DC8111DAC00A2D10E020E089
:1018500030E040E050E060E070E0CE01019630D131
:10186000182F68E28BEF91E07EDC6B2DC7017BDCEB
:1018700068E084E292E077DC612FCE01019673DCB0
:1018800060E18DE292E06FDC60ED77E0CE010B96D7
:101890007EDC9B85911107C08EE392E00E940D3D96
:1018A00099249394C5C08B3279F760ED77E0CE012F
:1018B0000B966DDC9B85992309F4A3C08A30A9F7A8
:1018C00056016894992492F8712C812C60ED77E090
:1018D000CE010B965CDC9B85992309F495C08C3274
:1018E000A9F760ED77E0CE010B9651DC9B8599233B
:1018F00009F48DC08C32A9F78501E72CF82C6E2CE9
:1019000060ED77E0CE010B9642DC9B85992309F4CC
:1019100081C0F801EE0DFF1D80839EE1E916F10400
:1019200029F0EFEFEE1AFE0A8A3049F7F801668EC9
:101930009A94FFE1AF0EB11C9110C8CF60ED77E033
:10194000CE010B9624DC9B85992309F466C08C326A
:10195000A9F710E060ED77E0CE010B9618DC9B85CF
:10196000992309F45DC0E1E0F0E0EC0FFD1FE10F09
:10197000F11D808391E0910F9B3008F4192F8C3278
:1019800049F76FEF610FCE0101966BD2842F952F2F
:10199000422F532F682F792F4093B30C5093B40CE0
:1019A0006093B50C7093B60C00E010E076018CE704
:1019B000E80EF11CB02E60ED77E0CE010B96E7DB70
:1019C0009B85992381F1F701E00FF11F80830E3190
:1019D000110521F00F5F1F4F8A3061F7F601E458BF
:1019E000FF4FB68E60ED77E0CE010B96D0DB9B8586
:1019F0009923E1F08A30B1F71BC0982E19C0982EB8
:101A000017C09924939414C09924939411C09924D5
:101A100093940EC0992493940BC09924939408C076
:101A20009924939405C09924939402C09924939483
:101A3000892D2C960FB6F894DEBF0FBECDBFDF9177
:101A4000CF911F910F91FF90EF90DF90CF90BF90BB
:101A5000AF909F908F907F906F900895CF92DF927C
:101A6000EF92FF920F931F93CF93DF931F92CDB707
:101A7000DEB77C01D62EC42E89010DDC811116C083
:101A8000CE010196ADDC811111C08981853059F0FC
:101A9000833059F082DD811109C098014C2D6D2DE4
:101AA000C70186DE03C084E001C085E00F90DF91AE
:101AB000CF911F910F91FF90EF90DF90CF900895FD
:101AC0002F923F924F925F926F927F928F929F924E
:101AD000AF92BF92CF92DF92EF92FF920F931F933C
:101AE000CF93DF93CDB7DEB765970FB6F894DEBF1F
:101AF0000FBECDBF9B8B8A8B09831A832B833C83BC
:101B00004D835E83862E972E202F312F4B815C8153
:101B10006D817E81882D992DA0E00E94054394F46B
:101B20008DE2EA89FB898083882D0E94A94229835E
:101B30003A834B835C836D837E83882E992EF1E0FC
:101B4000FF8301C01F8229813A814B815C816D81B5
:101B50007E81882D992DA0E00E94054399F02C8B61
:101B6000388B242E352E462E572E682C792C2F3F5D
:101B70003F4942475E44684179408105910541F003
:101B800038F00AC180E3EA89FB89808381E050C193
:101B90001886F0EAF98722E72A878EE48B8798E196
:101BA0009C87E9E0ED871E861F860F2EF2E79F2EA9
:101BB000F02D0F2EFEE48F2EF02DFC89F9838889FD
:101BC0008A832B82212C3C82312C4D820F2EF9E00E
:101BD0004F2EF02D5E820F2EF8E15F2EF02D0F2E8E
:101BE000FAE0AF2EF02DB12CC12CD12CE12CF12C30
:101BF00000E010E028853985492D582D652D742D7C
:101C0000832D922D0E944D4228873987942E852E50
:101C1000562E472E382E292EA22EB32EC42ED52E68
:101C2000E62EF72E082F192F29813A814B815C81EE
:101C30006D817E81862D972D0E944D42A0E00E94ED
:101C4000054369F29A868B865C864D863E862F8692
:101C500029812C8B8A81888B2B803C804D805E80F3
:101C60008A889B889F81890E911C382F422D532D85
:101C7000642D752D862D972D0E944D42205DF40117
:101C80002083FF81FF5FFF832C893889422D532DEC
:101C9000642D752D862D972D0E944B4229833A8302
:101CA0004B835C836D837E83382E292E2A2D3B2D1A
:101CB0004C2D5D2D6E2D7F2D802F912FA1E00E9448
:101CC000054309F465C00F2EFAE0AF2EF02DB12CBC
:101CD000C12CD12CE12CF12C00E010E028853985B5
:101CE0004A855B856C857D858E859F850E944D42EA
:101CF000422E532E642E752E862E972E8D8B9C8B06
:101D0000288739874A875B876C877D878E879F877F
:101D10008A899B89EF818E0F911D998B888BA42CCA
:101D2000B52CC62CD72CE82CF92C0D891C892981BF
:101D30003A814B815C816D817E81832D922D0E9441
:101D40004D42205DE889F9892083FF81FF5FFF8391
:101D500029813A814B815C816D817E81832D922D19
:101D60000E944B4229833A834B835C836D837E833D
:101D7000382E292E242D352D462D572D682D792DC1
:101D8000802F912FA1E00E94054309F09CCF02C053
:101D90008F814EC08F814CC06A887B882F81620EF4
:101DA000711CA12C0F2EF0EABF2EF02D0F2EF2E7A2
:101DB000CF2EF02D0F2EFEE4DF2EF02D0F2EF8E1AA
:101DC000EF2EF02D0F2EF9E0FF2EF02D00E010E0A9
:101DD00029813A814B815C816D817E81882D992D8D
:101DE0000E944D42205DF3012083FF81FF5FFF834E
:101DF00029813A814B815C816D817E81882D992D6D
:101E00000E944B4229833A834B835C836D837E839C
:101E1000382E292E188620EA298782E78A879EE4B1
:101E20009B87E8E1EC87F9E0FD871E861F864BCF94
:101E300065960FB6F894DEBF0FBECDBFDF91CF9190
:101E40001F910F91FF90EF90DF90CF90BF90AF90D8
:101E50009F908F907F906F905F904F903F902F90CA
:101E600008954F925F926F927F928F929F92AF925E
:101E7000BF92CF92DF92EF92FF920F931F93CF9377
:101E8000DF93862E662309F447C0782EA82FB92F3A
:101E900020E030E040E050E060E070E080E090E082
:101EA00001E00E94B942422E532E642E952ED62F69
:101EB000C72FF82FE92F02E00E94B942A22EB32EBD
:101EC000C42ED52EE62EF72E082F192F242D352DB2
:101ED000462D592D6D2F7C2F8F2F9E2F0E94F04263
:101EE000A22EB32EC42ED52EE62EF72E082F192F94
:101EF000ED91F0E0F0979F2F990F990B2E2F3F2F28
:101F0000492F592F692F792F892F0E94F042EA2FEC
:101F1000E719E81528F208C020E030E040E050E082
:101F200060E070E080E090E0DF91CF911F910F9131
:101F3000FF90EF90DF90CF90BF90AF909F908F90E9
:101F40007F906F905F904F9008958FB9779BFECFF1
:101F50008FB10895CF93C62F1F988062F6DF8093CC
:101F6000DD0C8C2FF2DF1F9A60E070E0CB010E9445
:101F7000151BCF910895CF931F98E7DF8093DD0C59
:101F80008FEFE3DFC82F1F9A60E070E0CB010E9463
:101F9000151B8C2FCF910895FF920F931F93CF9312
:101FA000DF93F82E192F062F1F9881E6CEDF80933E
:101FB000DD0C002349F0CF2DD12F10E08FEFC5DFCE
:101FC00089931F5F1013FACF1F9ADF91CF911F9152
:101FD0000F91FF900895FF920F931F93CF93DF937C
:101FE000F82E192F062F1F9880EAAFDF8093DD0CA3
:101FF000002341F0CF2DD12F10E08991A6DF1F5F84
:102000001013FBCF1F9ADF91CF911F910F91FF907B
:1020100008951F9881EE99DF8093DD0C1F9A089533
:102020001F9882EE92DF8093DD0C1F9A08951F980F
:1020300080E68BDF8093DD0C8FEF87DF1F9A08959A
:10204000CF93DF931F92CDB7DEB787E094DF89830C
:102050009981892F807496FF04C0698187E07ADFB7
:1020600081E00F90DF91CF910895CF93DF931F927E
:10207000CDB7DEB787E07FDF89839981892F8072B2
:1020800095FF04C0698187E065DF81E00F90DF91F3
:10209000CF910895CF93DF931F92CDB7DEB787E03E
:1020A0006ADF89839981892F807194FF04C06981D7
:1020B00087E050DF81E00F90DF91CF910895CF93BB
:1020C000DF931F92CDB7DEB780E055DF898389812A
:1020D0008E7F8983698180E03DDF0F90DF91CF9112
:1020E0000895CF93DF931F92CDB7DEB780E043DF33
:1020F0008983898181608983698180E02BDF0F90EA
:10210000DF91CF910895FF920F931F93CF93DF93A9
:10211000F62E172F042F1F98865F806216DF80939C
:10212000DD0C002341F0CF2DD12F10E089910DDF80
:102130001F5F1013FBCF1F9ADF91CF911F910F915B
:10214000FF900895FF920F931F93CF93DF93F82E84
:10215000192F062F1F9880E3F8DE8093DD0C0023F3
:1021600041F0CF2DD12F10E08991EFDE1F5F1013CA
:10217000FBCF1F9ADF91CF911F910F91FF90089590
:102180008093BC0C682F85E0E5CE089524E040E004
:1021900066E370E087E390E00E94720827E040E089
:1021A00061E270E082E290E00E94720820E041E08B
:1021B00062E370E081E390E00C94550808950F937A
:1021C0001F93CF93DF931F9A6AE070E080E090E066
:1021D0000E94151BE7EBFCE08AE08083608180E0D1
:1021E000B9DE60E070E0CB010E94151BE8EBFCE07B
:1021F00003E00083608181E0ADDEE9EBFCE0C2E05A
:10220000C083608182E0A6DEC093BA0CEBEBFCE0F9
:1022100085E38083608184E09DDEECEBFCE0C0839D
:10222000608185E097DEEDEBFCE084E280836081F5
:1022300086E090DE80E18093C60C10E21093C70C1C
:1022400080E38093C80C80E48093C90C80E5809380
:10225000CA0C45E066EC7CE081E055DFE5EDFCE092
:102260001083C4EDDCE01883608182E173DE688155
:1022700081E170DEEBEDFCE0008360818CE16ADEE1
:10228000ECEDFCE084E0808360818DE163DE8FE52E
:1022900092E00E940D3D2091DD0C30E040E050E0E6
:1022A00060E070E080E090E00E941D3DDF91CF9102
:1022B0001F910F910895EF92FF920F931F93CF9369
:1022C000DF93EC01F62E8A01E22EC49860E070E004
:1022D000CB010E94151B63E082E03CDE60E787E0F3
:1022E00039DE6F2DCE012EDF4F2DBE0180E00BDFDA
:1022F00090DEE5DE6E2DC8016EDEC49A60E070E00F
:10230000CB010E94151B44E650E060E070E0809134
:10231000DE0C9091DF0CB9D5813031F086E692E089
:102320000E940D3D80E012C0C49862E082E012DE9F
:102330009CDEC82F811109C0ADDE882339F083E708
:1023400092E00E940D3D8C2F01C081E0DF91CF9182
:102350001F910F91FF90EF900895C49860E070E096
:10236000CB010E94151B60E787E0F4DD59DEB9DE82
:10237000C49A0895C49860E070E0CB010E94151BD8
:1023800060E787E0E7DD4CCE08950F931F93CF936E
:10239000DF93EC018B0180990CC052DE882351F051
:1023A000C49845DEF8018083682FCE01F5DD81E019
:1023B00001C080E0DF91CF911F910F9108950F939D
:1023C0001F93CF93DF93EC01DCD780919B048111A5
:1023D0001EC0E5EAF4E0F093A104E093A00410929B
:1023E000A3041092A2048FE297E090939F0480933D
:1023F0009E04ACE9B4E011961C921E929093A8043E
:102400008093A704B183A08381E080939B042097ED
:1024100009F45FC09E012C5F3F4F2396CE32D74018
:1024200008F05AC0E091A004F091A104A0EAB4E041
:10243000828193818217930738F48081918100977C
:1024400019F0DF01FC01F4CFC4E0EC39FC0709F41A
:1024500046C0CD91DC9111978E010C5F1F4F80819A
:1024600091818D939C9382819381821B930B893000
:10247000910510F1BF01620F731FDB0113969C934E
:102480008E9312973383228312964D915C9113970A
:1024900080EA94E0EC01A881B98112962D913C91DB
:1024A00013972417350710F4CD01F4CFEB01B9834E
:1024B000A883DC016D937C938091080190910901C0
:1024C00022813381821B930B909309018093080131
:1024D00008C000E010E005C000E010E002C000E02D
:1024E00010E00E949B1AC801DF91CF911F910F91BC
:1024F00008950F931F93CF93DF93EC01009729F179
:102500008C01045011093DD7F80142815381A0EAA2
:10251000B4E0ED91FC9111972281338124173507A6
:1025200010F4DF01F6CF2497F983E8830D931C9311
:1025300020910801309109018A819B81820F931FAC
:102540009093090180930801F6D7DF91CF911F91F5
:102550000F910895FC010396928381834FEF5FEF03
:10256000BA014383548365837683908787839287F8
:10257000818710820895FC01138612860895CF93F7
:10258000DF939C01FB01DC011196CD91DC91129748
:10259000D583C4838E819F81978386838E819F811B
:1025A000DC0115967C936E9314977F836E8333873B
:1025B0002287F90180818F5F8083DF91CF91089519
:1025C0000F931F93CF93DF93EB01088119812A8129
:1025D0003B810F3F4FEF14072407340721F4FC0120
:1025E000A185B28511C0DC0113961496ED91FC9182
:1025F0001597408151816281738104171507260761
:10260000370710F0DF01F1CF1496ED91FC9115978B
:10261000FD83EC83D783C683BF83AE831596DC939B
:10262000CE9314979B878A87FC0120812F5F20839C
:10263000DF91CF911F910F910895CF93DF93FC010C
:10264000A285B385C481D581868197819F838E833E
:10265000C681D781848195819D838C831196CD918C
:10266000DC911297CE17DF0731F48E819F8112968D
:102670009C938E931197138612868C9181508C9324
:102680008C91DF91CF91089531E1FC013083319736
:1026900022E220833197A3E3A083319760833197AF
:1026A000708331971082319760E860833197108290
:1026B000319762E06083319763E06083319764E033
:1026C0006083319765E06083319766E0608331977E
:1026D00067E06083319768E06083319769E06083E9
:1026E000319760E1608331973083319732E13083F5
:1026F000319733E13083319734E13083319735E1DD
:102700003083319736E13083319737E13083319729
:1027100038E13083319739E13083319730E23083CB
:10272000319731E2308331972083319723E2208340
:102730003197408331975083319726E22083319738
:1027400027E22083319728E22083319729E22083F2
:10275000319720E32083319721E3208386970895E2
:1027600089E08BBD83EC8ABD8BE08EBD87B780612D
:1027700087BFA0914E0CB0914F0CCD91CDBFDD9194
:10278000DEBFFF91EF91DF91CF91BF91AF919F910C
:102790008F917F916F915F914F913F912F911F91F9
:1027A0000F91FF90EF90DF90CF90BF90AF909F90F0
:1027B0008F907F906F905F904F903F902F901F90E1
:1027C0000F900FBE0F90089581E008950F920FB6FD
:1027D000F8940F921F9211242F923F924F925F9282
:1027E0006F927F928F929F92AF92BF92CF92DF9221
:1027F000EF92FF920F931F932F933F934F935F930B
:102800006F937F938F939F93AF93BF93CF93DF93F8
:10281000EF93FF93A0914E0CB0914F0C0DB60D921B
:102820000EB60D921BD7A0914E0CB0914F0CCD91CE
:10283000CDBFDD91DEBFFF91EF91DF91CF91BF91D1
:10284000AF919F918F917F916F915F914F913F9148
:102850002F911F910F91FF90EF90DF90CF90BF903D
:10286000AF909F908F907F906F905F904F903F9030
:102870002F901F900F900FBE0F9008950F920FB6DC
:10288000F8940F921F9211242F923F924F925F92D1
:102890006F927F928F929F92AF92BF92CF92DF9270
:1028A000EF92FF920F931F932F933F934F935F935A
:1028B0006F937F938F939F93AF93BF93CF93DF9348
:1028C000EF93FF93A0914E0CB0914F0C0DB60D926B
:1028D0000EB60D925CD58111C1D6A0914E0CB0916F
:1028E0004F0CCD91CDBFDD91DEBFFF91EF91DF9118
:1028F000CF91BF91AF919F918F917F916F915F9198
:102900004F913F912F911F910F91FF90EF90DF908A
:10291000CF90BF90AF909F908F907F906F905F907F
:102920004F903F902F901F900F900FBE0F900895E3
:10293000A5DF18950FB6F8940F92FC01968D0F90B5
:102940000FBE81E0911180E008950F931F93CF9304
:10295000DF93EC01042F1E8D88A18823C9F141115A
:1029600017C0482F50E08A819B810E94114328A103
:102970008A819B81820F911D9B838A832C813D815B
:102980008217930728F1888199819B838A8320C0CD
:10299000482F50E08E819F810E94114328A130E092
:1029A0003195219531098E819F81820F931F9F83DD
:1029B0008E83688179818617970730F48C819D8199
:1029C000280F391F3F832E83023011F4111111504B
:1029D0001F5F1E8F80E0DF91CF911F910F910895AF
:1029E000FC01CB0140A14423A1F050E026813781B6
:1029F000240F351F37832683648175812617370797
:102A000020F02081318137832683668177810C9481
:102A100011430895FF920F931F93CF93DF93EC011F
:102A20000FB6F8940F92FAA01F1484F48B898823B0
:102A300069F08E010D5E1F4F03C08B89882331F032
:102A4000C8016FD6811118D7FA94B9F78FEF8AA30E
:102A50000F900FBE0FB6F8940F92F9A01F1484F4D4
:102A60008885882369F08E01085F1F4F03C0888521
:102A7000882331F0C80155D68111FED6FA94B9F7F2
:102A80008FEF89A30F900FBEDF91CF911F910F9110
:102A9000FF900895CF93DF93EC010FB6F8940F9257
:102AA000888199814F8D28A150E030E0429FF0014C
:102AB000439FF00D529FF00D1124E80FF91FFD8385
:102AC000EC831E8E9B838A8341505109429FF00103
:102AD000439FF00D529FF00D11248E0F9F1F9F8377
:102AE0008E838FEF89A38AA361110AC0888588230A
:102AF00069F0CE01089615D6882341F067DE06C03E
:102B0000CE01089627DDCE01439624DD0F900FBE3F
:102B100081E0DF91CF9108950F931F93CF93DF93BF
:102B2000082F162F6623B9F0869FC00111248396C3
:102B300046DCEC01009721F414C0D983C88305C09A
:102B40009C012D5D3F4F398328830F8F18A361E0CF
:102B5000CE01A0DF06C083E290E031DCEC010097FB
:102B600061F7CE01DF91CF911F910F9108959F9250
:102B7000AF92BF92CF92DF92EF92FF920F931F938B
:102B8000CF93DF93CDB7DEB729970FB6F894DEBFAA
:102B90000FBECDBF7C015B012E833F8348875987E1
:102BA00010E0992493946C0188E0C80ED11C0FB6F4
:102BB000F8940F92F701968D878D981710F00230D8
:102BC000A9F4402FB501C701C0DEF701938999230D
:102BD00039F0C7014396A5D5882321F0F7DD02C05F
:102BE0008111F4DD0F900FBE81E04CC08E819F817A
:102BF000A885B985892B8A2B8B2B21F40F900FBECA
:102C000080E040C0111104C0CE010196CCD5192D31
:102C10000F900FBEB6D30FB6F8940F92F70181A1B3
:102C20008F3F09F411A2F70182A18F3F09F412A28C
:102C30000F900FBEBE016A5F7F4FCE010196C4D5D3
:102C400081111CC00FB6F8940F92F701968D0F906A
:102C50000FBEF701878D98130DC04E815F81688587
:102C60007985C60147D5C701D5DE65D481119FCFCF
:102C7000ADDD9DCFC701CEDE5ED499CFC701CADEE0
:102C80005AD480E029960FB6F894DEBF0FBECDBFB0
:102C9000DF91CF911F910F91FF90EF90DF90CF9038
:102CA000BF90AF909F900895FF920F931F93CF9383
:102CB000DF93EC018A019E8D8F8D981710F02230E2
:102CC000D1F4FAA0422FCE0140DE8FEFF8120FC0F0
:102CD0008B89882391F0CE01439623D5882379F000
:102CE0000115110571F081E0F80180830BC0F394A8
:102CF000FAA281E007C080E005C081E003C081E066
:102D000001C081E0DF91CF911F910F91FF90089555
:102D1000CF93DF93FC01EB01868D978D8917B0F47B
:102D200092A18F5F868F9F3F69F48389882381F00A
:102D3000CF014396F6D4882369F0209769F081E0AB
:102D400088830BC09F5F92A381E007C080E005C02D
:102D500081E003C081E001C081E0DF91CF9108955F
:102D60009F92AF92BF92CF92DF92EF92FF920F931A
:102D70001F93CF93DF93CDB7DEB729970FB6F894A3
:102D8000DEBF0FBECDBF8C016B012E833F83488712
:102D90005987B12CAA24A3947C0183E1E80EF11C8D
:102DA0000FB6F8940F92F801968C992091F0B60125
:102DB000C80116DE9A94F801968E8085882329F042
:102DC000C8010896AED4811101DD0F900FBE81E0DD
:102DD0004AC04E815F8168857985452B462B472BFC
:102DE00021F40F900FBE80E03EC0B11004C0CE01B0
:102DF0000196D9D4BA2C0F900FBEC3D20FB6F89457
:102E00000F92F80181A18F3F09F411A2F80182A16C
:102E10008F3F09F412A20F900FBEBE016A5F7F4F71
:102E2000CE010196D1D4811115C0C80183DD88235C
:102E300069F04E815F8168857985C7015BD4C801DF
:102E4000E9DD79D38111ACCFC1DCAACFC801E2DDC5
:102E500072D3A6CFC801DEDD6ED3C8016BDD882337
:102E600009F49ECF80E029960FB6F894DEBF0FBE1E
:102E7000CDBFDF91CF911F910F91FF90EF90DF9029
:102E8000CF90BF90AF909F900895CF92DF92EF9236
:102E9000FF920F931F93CF93DF93CDB7DEB72997A0
:102EA0000FB6F894DEBF0FBECDBF8C014E835F839B
:102EB00068877987D12CCC24C3947C0183E1E80E08
:102EC000F11C0FB6F8940F92F801868D882371F0EB
:102ED0008150868F8085882329F0C801089621D4E7
:102EE000811174DC0F900FBE81E04AC04E815F817A
:102EF00068857985452B462B472B21F40F900FBE13
:102F000080E03EC0D11004C0CE0101964CD4DC2C30
:102F10000F900FBE36D20FB6F8940F92F80181A130
:102F20008F3F09F411A2F80182A18F3F09F412A288
:102F30000F900FBEBE016A5F7F4FCE01019644D451
:102F4000811115C0C801F6DC882369F04E815F81CC
:102F500068857985C701CED3C8015CDDECD28111CB
:102F6000B0CF34DCAECFC80155DDE5D2AACFC80161
:102F700051DDE1D2C801DEDC882309F4A2CF80E074
:102F800029960FB6F894DEBF0FBECDBFDF91CF916B
:102F90001F910F91FF90EF90DF90CF900895E091F7
:102FA0000A0CF0910B0C808181110CC08FEF9FEF08
:102FB000DC018093D70B9093D80BA093D90BB093DF
:102FC000DA0B0895E0910A0CF0910B0C0780F08564
:102FD000E02D0084F185E02D82819381A481B5816B
:102FE0008093D70B9093D80BA093D90BB093DA0BA7
:102FF000089502E21CE01DC00FB6F8940F92E09114
:10300000F90BF091FA0BC085D185CE01029615DB44
:103010008091E50B81508093E50B8091F10B8150FD
:103020008093F10B0F900FBE8B8D9C8D62DACE01D9
:1030300060DA8091F10B8111DFCFF801808182305D
:10304000C0F3C4DBF6CF8F929F92AF92BF92CF9224
:10305000DF92EF92FF92CF936B017C01C42F80909F
:10306000E10B9090E20BA090E30BB090E40B809109
:103070004E0C90914F0C0296E0DA8FEFC816D806EE
:10308000E806F80661F4CC2351F060914E0C709183
:103090004F0C6E5F7F4F86EE9BE071DA3DC0C80C2F
:1030A000D91CEA1CFB1CE0914E0CF0914F0CC28223
:1030B000D382E482F582C814D904EA04FB0460F4E4
:1030C00060914E0C70914F0C8091080C9091090CFE
:1030D0006E5F7F4F75DA20C060914E0C70914F0C7F
:1030E00080910A0C90910B0C6E5F7F4F69DA809192
:1030F000D70B9091D80BA091D90BB091DA0BC816D1
:10310000D906EA06FB0640F4C092D70BD092D80B42
:10311000E092D90BF092DA0BCF91FF90EF90DF9015
:10312000CF90BF90AF909F908F9008954F925F92F5
:103130006F927F928F929F92AF92BF92CF92DF92C7
:10314000EF92FF920F93CF93DF934C016B015A01E3
:103150002901CA0134D93C01009709F4D0C08AE2A0
:1031600090E02DD9EC01009771F07C8E6B8E21E000
:10317000A21AB1086A0C7B1CD6018C918D8F8C91A0
:10318000811104C015C0C301B4D9B9C0AE01425EFB
:103190005F4FF601319621E0CF013191DA013D9385
:1031A000AD01DC018C91882319F02F5F2830A1F745
:1031B0001CA2043008F003E00A8F6E01B2E0CB0ECF
:1031C000D11CC601D8D9CE010E96D5D9DB87CA87C6
:1031D00084E090E0A0E0B0E0801B9109A109B10972
:1031E0008E879F87A88BB98BDF8BCE8B1DA21EA2EB
:1031F0001FA218A619A6A201B401C30145DA99833A
:103200008883E114F10419F0F701D183C0830FB66C
:10321000F8940F928091E50B8F5F8093E50B80917E
:103220004E0C90914F0C892B89F5D0934F0CC09385
:103230004E0C8091E50B813009F038C082E29CE0B1
:1032400089D98DE29CE086D988E39CE083D983E428
:103250009CE080D987E19CE07DD98CE09CE07AD924
:103260008DEF9BE077D982EF9BE074D986EE9BE0EF
:1032700071D987E19CE090930B0C80930A0C8CE051
:103280009CE09093090C8093080C10C08091DF0B98
:1032900081110CC0E0914E0CF0914F0C928D8A8DF3
:1032A000891720F0D0934F0CC0934E0C8091DB0B0C
:1032B0008F5F8093DB0B8A8D9091E00B981710F451
:1032C0008093E00BFBE08F9FC0011124B6018E5D5F
:1032D000934F55D90F900FBE8091DF0B882359F083
:1032E000E0914E0CF0914F0C928D8A8D981728F436
:1032F0006DDA81E005C081E003C081E001C08FEF9D
:10330000DF91CF910F91FF90EF90DF90CF90BF9022
:10331000AF909F908F907F906F905F904F900895A7
:10332000EF92FF920F930F2EF5EDEF2EFBE0FF2EA5
:10333000F02D00E020E030E045E550E06AE772E083
:1033400089EF97E1F3DE8130C1F4F8948FEF9FEFBE
:10335000DC018093D70B9093D80BA093D90BB0933B
:10336000DA0B81E08093DF0B1092E10B1092E20BFD
:103370001092E30B1092E40BF3D90F91FF90EF90B2
:1033800008958091D40B8F5F8093D40B08959F9202
:10339000AF92BF92CF92DF92EF92FF920F931F9363
:1033A000CF93DF938091D40B8111A9C0C090E10B22
:1033B000D090E20BE090E30BF090E40B8FEFC81A93
:1033C000D80AE80AF80AC092E10BD092E20BE09228
:1033D000E30BF092E40BC114D104E104F104B1F465
:1033E00080910A0C90910B0C2091080C3091090CE3
:1033F00030930B0C20930A0C9093090C8093080CCB
:103400008091DC0B8F5F8093DC0BC9DD8091D70B43
:103410009091D80BA091D90BB091DA0BC816D906B0
:10342000EA06FB0608F45BC0B12C0F2EFBE0AF2EC2
:10343000F02D9924939401C0B92CE0910A0CF091DD
:103440000B0C808181110CC04FEF5FEFBA014093EC
:10345000D70B5093D80B6093D90B7093DA0B40C005
:10346000E0910A0CF0910B0C0780F085E02DC085EF
:10347000D1854A815B816C817D81C416D506E606C3
:10348000F70648F44093D70B5093D80B6093D90BB1
:103490007093DA0B25C08E010E5F1F4FC801CDD887
:1034A000888D998D892B19F0CE010E96C6D88A8DFC
:1034B0009091E00B981710F48093E00BA89EC00148
:1034C0001124B8018E5D934F5AD8E0914E0CF091C3
:1034D0004F0C9A8D828D981708F0AECFAECFB12CDD
:1034E000E0914E0CF0914F0CE28D8BE0E89FF001E3
:1034F0001124EE5DF34F8081823040F409C0809149
:10350000DE0B8F5F8093DE0BB12C02C0BB24B39423
:103510008091DD0B882311F0BB24B3948B2DDF91B8
:10352000CF911F910F91FF90EF90DF90CF90BF90C0
:10353000AF909F900895CF92DF92EF92FF920F93FA
:103540001F93CF93DF930FB6F8940F928091D40B13
:1035500081508093D40B8091D40B811156C08091FF
:10356000E50B882309F453C0C0E0D0E00F2EFDEF37
:10357000EF2EFBE0FF2EF02D0F2EFBE0DF2EF02DC7
:10358000CC24C39427C0E091040CF091050CC085B5
:10359000D185CE010E9651D88E010E5F1F4FC80106
:1035A0004CD88A8D9091E00B981710F48093E00B23
:1035B000D89EC0011124B8018E5D934F0E94BF12A6
:1035C000E0914E0CF0914F0C9A8D828D981710F06F
:1035D000C092DD0BF70180818111D5CFCD2B09F091
:1035E000DEDCC091DE0BCC2349F0D1E0D0DE8111CE
:1035F000D093DD0BC150D1F71092DE0B8091DD0B23
:10360000882339F0E3D881E005C080E003C080E082
:1036100001C080E00F900FBEDF91CF911F910F91FD
:10362000FF90EF90DF90CF900895CF92DF92EF92CE
:10363000FF926B017C01611571058105910541F0D7
:10364000A0DE40E0C701B601FEDC75DF811101C0DC
:10365000BDD8FF90EF90DF90CF9008958091D40B6C
:10366000882321F081E08093DD0B08951092DD0B1B
:103670002091E00B822F90E03BE0239FF00111248A
:10368000EE5DF34F308131110EC04BE02150822F9F
:1036900090E0489FF001499FF00D1124EE5DF34F3B
:1036A0003081332399F33BE0389FF001399FF00DCF
:1036B0001124EE5DF34FA181B28114960D90BC915F
:1036C000A02DB283A183CF010396A817B90731F4C7
:1036D00014968D919C911597928381830180F2813C
:1036E000E02D8085918590934F0C80934E0C209314
:1036F000E00B0895CF92DF92EF92FF926A017B0177
:1037000060914E0C70914F0C625F7F4F0E94E012EF
:1037100041E0C701B60197DCFF90EF90DF90CF90BA
:1037200008950F931F93CF93DF93DC011796ED91CC
:10373000FC911897C085D1858E01025F1F4FC8018B
:103740000E941D138091D40B811116C00C501109D9
:10375000C8010E941D138A8D9091E00B981710F4F8
:103760008093E00BBBE08B9FC0011124B8018E5DFC
:10377000934F0E94BF1205C0B8018DEF9BE00E94DD
:10378000BF12E0914E0CF0914F0C9A8D828D8917EB
:1037900020F481E08093DD0B01C080E0DF91CF91C8
:1037A0001F910F9108952091DC0BFC012083409123
:1037B000E10B5091E20B6091E30B7091E40B4183BC
:1037C0005283638374830895CF92DF92EF92FF92C6
:1037D0000F931F93CF93DF93FB010FB6F8940F92D3
:1037E000C090E10BD090E20BE090E30BF090E40B83
:1037F000DC0111960D911D912D913C911497408102
:103800005181628173814F3FBFEF5B076B077B077D
:1038100029F1A091DC0BEC01B881BA1729F0C01690
:10382000D106E206F306E0F4C01AD10AE20AF30A6E
:10383000C416D506E606F70658F44C195D096E095C
:103840007F094083518362837383ADDF80E009C0C9
:10385000108211821282138281E003C080E001C0D5
:1038600081E00F900FBEDF91CF911F910F91FF90DC
:10387000EF90DF90CF90089581E08093DD0B089565
:10388000E199FECF9FBB8EBBE298E09A8DB308957D
:103890001F93CF93DF93D82F192FC62FF1DF8C17EB
:1038A00051F0E199FECF1FBBDEBBCDBBE29AE098A1
:1038B000E19AE199FECFDF91CF911F9108959FB7D3
:1038C0009F779FBF99B7982B99BF8830C1F140F47B
:1038D0008230E9F0843031F1813009F062C00EC0ED
:1038E000803209F440C018F48031B1F15AC08034FC
:1038F00009F442C0803809F44AC053C0EAE6F0E057
:1039000080818C7F80838081682B60834AC0EAE657
:10391000F0E08081837F80838081660F660F682B53
:1039200060833FC0EAE6F0E080818F7C8083808105
:1039300090E1699FB0011124682B608332C0EAE6F0
:10394000F0E080818F738083808190E4699FB00173
:103950001124682B608325C08AB78C7F8ABF8AB701
:10396000682B6ABF1EC08AB7837F8ABF8AB7660F7B
:10397000660F682B6ABF15C08AB78F7C8ABF8AB76B
:1039800090E1699FB0011124682B6ABF0AC08AB711
:103990008F738ABF8AB790E4699FB0011124682BA6
:1039A0006ABF8FB780688FBF0895FF920F931F93F0
:1039B000CF93DF93C62FF72ED42F122F882329F110
:1039C000803189F522E040E066E370E087E390E033
:1039D0000E94720820E040E066E370E087E390E038
:1039E0000E94720821E040E066E370E087E390E027
:1039F0000E947208C19870988EB1F82AFEB80065CE
:103A0000102BD12BCD2BCDB90EC023E040E066E3C7
:103A100070E087E390E00E94720870980064102BB9
:103A2000D12BCD2BCDB9DF91CF911F910F91FF906D
:103A3000089513BE97B79C7F97BF93B7492B642B0C
:103A4000862B83BF87B7282B27BF089582B7089599
:103A500014BC15BC0895CF92EF92FF920F931F9361
:103A600015BC95B5892B85BD35B550E1659FC00165
:103A70001124832B85BD85B5482B45BDC3BC80B7BC
:103A8000877F80BF80B7220F220F220F282B20BFF5
:103A900087B78F7387BF87B790E8099F800111248C
:103AA000082B07BF87B750E4E59E70011124E82A70
:103AB000E7BE662341F027E040E060E370E081E389
:103AC00090E00E9472081F910F91FF90EF90CF90AD
:103AD00008958F929F92AF92BF92CF92DF92EF9212
:103AE000FF920F931F93CF93DF93CDB7DEB7962E40
:103AF000142FEBE8F0E01082AAE8B0E01C9290816D
:103B000030E4839FB0011124692B6083908130E100
:103B1000939EB0011124692B60839081342F330F61
:103B2000330F932B90839081322F3370932B90839C
:103B30009C912C70220F292B2C93F0928700E092FD
:103B40008600D0928500C0928400B0928300A0923B
:103B50008200EDE7F0E09081917090839081498937
:103B600060E1469FA00111242A8960E2269F90010E
:103B70001124422B2889220F220F220F242B482D9B
:103B8000440F440F422B2F85220F242B292B2083F7
:103B90009C91092B0C93882341F023E040E061E2E3
:103BA00070E082E290E00E947208992041F024E0E7
:103BB00040E061E270E082E290E00E94720811232E
:103BC00041F025E040E061E270E082E290E00E9496
:103BD0007208DF91CF911F910F91FF90EF90DF90CE
:103BE000CF90BF90AF909F908F900895CF93DF9329
:103BF00000D000D0CDB7DEB719821A821B821C829A
:103C00008CB915C049815A816B817C814F5F5F4FB0
:103C10006F4F7F4F49835A836B837C8349815A81DD
:103C20006B817C81483E53406105710531F09BB149
:103C3000892F807295FFE6CF81E00F900F900F9053
:103C40000F90DF91CF9108955F926F927F928F9244
:103C50009F92AF92BF92CF92DF92EF92FF920F931B
:103C60001F93CF93DF93CDB7DEB73C01F62E142F11
:103C7000522E21E040E061E270E082E290E00E949A
:103C8000720820E040E063E270E082E290E00E948F
:103C900055081AB88E2D8C298068E82EE628E09207
:103CA00095008AB1D82A80E2589E90011124022BF7
:103CB00080E4F89E90011124202B30E8139FC0016E
:103CC0001124822B8D298AB98BB187298BB982E483
:103CD0006816710438F430E463167104D0F567286F
:103CE00031F051C0611482E07806E1F04CC0880CDC
:103CF000991CAA1CBB1C880C991CAA1CBB1CA501E6
:103D00009401220F331F441F551F220F331F441FDE
:103D1000551F60E074E284EF90E00E940A42215057
:103D2000310933C0880C991CAA1CBB1C880C991C37
:103D3000AA1CBB1CA5019401220F331F441F551F51
:103D400060E074E284EF90E00E940A422150310961
:103D50001CC0C501B4010E947C419B01AC010E94C2
:103D600084409B01AC0160E074E284E79BE40E9424
:103D7000E84020E030E040E85FE30E9483400E949A
:103D800050419B0102C020E030E029B9832F8F70A1
:103D900080939000DF91CF911F910F91FF90EF9052
:103DA000DF90CF90BF90AF909F908F907F906F905B
:103DB0005F9008955F926F927F928F929F92AF92E1
:103DC000BF92CF92DF92EF92FF920F931F93CF9308
:103DD000DF93CDB7DEB73C01F62E142F522E23E031
:103DE00040E060E370E081E390E00E94720822E02E
:103DF00040E062E370E081E390E00E945508EAE968
:103E0000F0E010828E2D8C298068E82EE628E09262
:103E10009D008081D82A80E2589E90011124022BB7
:103E200080E4F89E90011124202B30E8139FC001FC
:103E30001124822B8D298083EBE9F0E08081872992
:103E4000808382E46816710438F430E463167104E8
:103E5000D0F5672831F051C0611482E07806E1F0B6
:103E60004CC0880C991CAA1CBB1C880C991CAA1C51
:103E7000BB1CA5019401220F331F441F551F220FA5
:103E8000331F441F551F60E074E284EF90E00E94EE
:103E90000A422150310933C0880C991CAA1CBB1C52
:103EA000880C991CAA1CBB1CA5019401220F331F6E
:103EB000441F551F60E074E284EF90E00E940A42C4
:103EC000215031091CC0C501B4010E947C419B01F5
:103ED000AC010E9484409B01AC0160E074E284E785
:103EE0009BE40E94E84020E030E040E85FE30E946D
:103EF00083400E9450419B0102C020E030E02093AB
:103F00009900832F8F7080939800DF91CF911F913C
:103F10000F91FF90EF90DF90CF90BF90AF909F9068
:103F20008F907F906F905F9008950F931F93CF9322
:103F3000DF9300D0CDB7DEB78C011A821982E981F8
:103F4000FA81E80FF91F80818823A9F0E981FA81BD
:103F5000E00FF11F80814ADE982F8823E1F08981EC
:103F60009A8101969A838983E981FA81E00FF11F92
:103F700080818111EBCFE981FA81E00FF11F10827E
:103F800089819A81F801E80FF91F80812FDE91E085
:103F9000811101C090E0892F0F900F90DF91CF9198
:103FA0001F910F9108950F931F93CF93DF93611586
:103FB000710561F0EC018C01060F171F899116DE67
:103FC000813031F4C017D107C9F703C081E001C0C7
:103FD00080E0DF91CF911F910F91089560E070E034
:103FE0008091DE0C9091DF0C0C948816089543E0CC
:103FF00060E081E00E948C159093DF0C8093DE0CD2
:1040000062E081E05CDC0C94DF1008950C94C61033
:104010000895EF92FF920F931F93CF93DF9300D0F9
:10402000CDB7DEB78C01FC018081F82FFF77EF2E32
:10403000F4133CC0F80191819230D0F54281FB012C
:104040009081491337C0D801139631966894FF24A4
:10405000F2F84D91919149132FC0FA94D1F788232A
:1040600044F44EEF4E0DBE016F5F7F4FC801F8D58F
:1040700007C04EEF4E0DBE016F5F7F4FC80161D587
:104080002E2D30E0F801E20FF31F329799818081E5
:10409000981313C0020F131FF8013197FF24F394F4
:1040A0009A818081981749F0F12C07C0F12C05C046
:1040B000F12C03C0F12C01C0F12C8F2D0F900F902B
:1040C000DF91CF911F910F91FF90EF9008956F9224
:1040D0007F928F929F92AF92BF92CF92DF92EF9298
:1040E000FF920F931F93CF93DF93CDB7DEB76897FF
:1040F0000FB6F894DEBF0FBECDBF7C01962EB42E56
:104100008901188A198A1A8A1B8A8AE889836A832C
:104110000F2EFAE0CF2EF1E0DF2EF02D8FE091E0B0
:10412000DE011396F60121912D93E817F907D9F7CF
:1041300081E08887980148E0BE01625F7F4FCE0131
:1041400001968ED58E8589878F858A872AE0AE0174
:104150004F5F5F4F6B2DC7010E945B11A82E81112D
:1041600005C08FE792E00E940D3DC9C00E94AD11CD
:104170008BE892E00E940D3D4CE251E060E070E07F
:104180008091DE0C9091DF0C0E944517813041F048
:1041900087E992E00E940D3D0E94BA11A12CAFC0A8
:1041A000BE01635F7F4FCE0101960E94C5110E9440
:1041B000BA1198014D85B701CE0101962ADFA82ECC
:1041C000882309F49CC08885823009F093C08985D2
:1041D0008C8B8A858D8B980142E0BE016A5E7F4F91
:1041E000CE01449678D48CE889839A82BB2051F022
:1041F000DE011396EAE0F1E081918D938E2F8C1908
:104200008B15D0F383E088878E8989878F898A8789
:1042100098014AE0BE01625F7F4FCE01019620D532
:104220008E858B878F858C872CE0AE014F5F5F4F2B
:104230006B2DC7010E945B11A82E882309F45FC073
:10424000188A198A1A8A1B8A0E94AD114CE251E021
:1042500060E070E08091DE0C9091DF0C0E944517C9
:10426000813041F08FE992E00E940D3D0E94BA1129
:10427000A12C45C0BE01635F7F4FCE0101960E9415
:10428000C51187EA92E00E940D3D88899989AA8923
:10429000BB893C014D01282F372D482D592D60E059
:1042A00070E080E090E00E941D3D84E991E00E9472
:1042B0000D3D0E94BA1198014D85B701CE010196BE
:1042C000A8DEA82E8823D9F088858430A9F4188E1A
:1042D000980141E0BE01675F7F4FCE01489616D43A
:1042E000888D843459F480EB92E00E940D3DAA241D
:1042F000A39405C0A12C03C0A12C01C0A12C8A2D20
:1043000068960FB6F894DEBF0FBECDBFDF91CF9198
:104310001F910F91FF90EF90DF90CF90BF90AF90E3
:104320009F908F907F906F9008956F927F928F9261
:104330009F92AF92BF92CF92DF92EF92FF920F9334
:104340001F93CF93DF93CDB7DEB761970FB6F89485
:10435000DEBF0FBECDBF8C01D42E79011E861F8615
:10436000188A198A8AE089836A83442359F08AE08B
:1043700091E0DE011396FC0121912D932E2F281B35
:104380002D15D0F385E08887970148E0BE01645F72
:104390007F4FCE010196D5D38C8589878D858A87FD
:1043A0002AE0AE014F5F5F4F6D2DC8010E945B1187
:1043B000882309F444C00E94AD114CE251E060E052
:1043C00070E08091DE0C9091DF0C0E9445178130E7
:1043D00041F082EC92E00E940D3D0E94BA1180E013
:1043E0002EC0BE01655F7F4FCE0101960E94C511B0
:1043F00087EA92E00E940D3D8E859F85A889B98944
:104400003C014D01282F372D482D592D60E070E0DB
:1044100080E090E00E941D3D84E991E00E940D3D06
:104420000E94BA1197014B85B801CE010196F1DDCA
:10443000882329F081E09885963009F080E0619624
:104440000FB6F894DEBF0FBECDBFDF91CF911F91A5
:104450000F91FF90EF90DF90CF90BF90AF909F9023
:104460008F907F906F9008956F927F928F929F921E
:10447000AF92BF92CF92DF92EF92FF920F931F9372
:10448000CF93DF93CDB7DEB766970FB6F894DEBF54
:104490000FBECDBF7C01B42EC901188A198A1A8AB1
:1044A0001B8A2CE829836A83442359F04AE051E0AF
:1044B000DE011396FA0121912D932E2F241B2B152B
:1044C000D0F327E02887980142E0BE016C5E7F4F61
:1044D00002D38C8989878D898A8798014AE0BE0139
:1044E000625F7F4FCE010196BBD38E858B878F8510
:1044F0008C872CE0AE014F5F5F4F6B2DC7010E9490
:104500005B11882309F452C00E94AD114CE251E0C6
:1045100060E070E08091DE0C9091DF0C0E94451706
:10452000813041F08FEC92E00E940D3D0E94BA1163
:1045300080E03CC0BE01635F7F4FCE0101960E94C8
:10454000C51187EA92E00E940D3D88899989AA8960
:10455000BB893C014D01282F372D482D592D60E096
:1045600070E080E090E00E941D3D84E991E00E94AF
:104570000D3D0E94BA1198014D85B701CE010196FB
:1045800048DD882399F08885883079F41E8A98015F
:1045900041E0BE01675F7F4FCE014696B7D281E012
:1045A0009E89943419F080E001C080E066960FB6D1
:1045B000F894DEBF0FBECDBFDF91CF911F910F9159
:1045C000FF90EF90DF90CF90BF90AF909F908F9033
:1045D0007F906F9008954F925F926F927F928F922B
:1045E0009F92AF92BF92CF92DF92EF92FF920F9382
:1045F000CF93DF93CDB7DEB766970FB6F894DEBFE3
:104600000FBECDBF6C01B42E79010E8B188A198AAA
:104610001A8A1B8A8BE089836A83442391F02AE0FB
:1046200031E0F90182E090E05191A1E0B0E0AC0FFF
:10463000BD1FA80FB91F5C9301965E2F521B5B151F
:1046400098F389E08887970141E0BE016C5E7F4F57
:10465000CE01469604D28C898987970149E0BE0134
:10466000625F7F4FCE0101966CD28E858A878F85DF
:104670008B872BE0AE014F5F5F4F6B2DC6010E9411
:104680005B11882309F450C00E94AD114CE251E047
:1046900060E070E08091DE0C9091DF0C0E94451785
:1046A000813041F08DED92E00E940D3D0E94BA11E3
:1046B00080E03AC0BE01635F7F4FCE0101960E9449
:1046C000C51187EA92E00E940D3D488859886A88A2
:1046D0007B88242D352D462D572D60E070E080E03D
:1046E00090E00E941D3D84E991E00E940D3D0E94F2
:1046F000BA1197014D85B601CE0101968ADC882357
:1047000099F088858A3079F41D8A970141E0BE01CD
:10471000675F7F4FCE014596C0D181E09D8994347B
:1047200019F080E001C080E066960FB6F894DEBF15
:104730000FBECDBFDF91CF910F91FF90EF90DF9033
:10474000CF90BF90AF909F908F907F906F905F9031
:104750004F9008952F923F924F925F926F927F9267
:104760008F929F92AF92BF92CF92DF92EF92FF9281
:104770000F931F93CF93DF93CDB7DEB76D970FB62F
:10478000F894DEBF0FBECDBF5C01942E69011A8A7A
:104790001B8A1C8A1D8A8EE089836A83442359F010
:1047A0008AE091E0DE011396FC0121912D932E2FDA
:1047B000281B2915D0F380E18887F80180818E8B32
:1047C00081818F8BF7018081888F8181898F96010C
:1047D00044E0BE01665E7F4FCE01469640D18A8D91
:1047E00089878B8D8A878C8D8B878D8D8C879601A1
:1047F0004CE0BE01605F7F4FCE010196A2D1888957
:104800008D8789898E872EE0AE014F5F5F4F692DBE
:10481000C5010E945B11882309F444C00E94AD11B8
:104820004CE251E060E070E08091DE0C9091DF0C92
:104830000E944517813041F08BEE92E00E940D3DC1
:104840000E94BA1180E02EC0BE01615F7F4FCE0191
:1048500001960E94C51187EA92E00E940D3D8A8967
:104860009B89AC89BD891C012D01282F332D442D36
:10487000552D60E070E080E090E00E941D3D84E9ED
:1048800091E00E940D3D0E94BA1196014F85B5013D
:10489000CE010196BEDB882329F081E09885913115
:1048A00009F080E06D960FB6F894DEBF0FBECDBF65
:1048B000DF91CF911F910F91FF90EF90DF90CF90FC
:1048C000BF90AF909F908F907F906F905F904F9030
:1048D0003F902F9008952F923F924F925F926F9248
:1048E0007F928F929F92AF92BF92CF92DF92EF9280
:1048F000FF920F931F93CF93DF93CDB7DEB76997E6
:104900000FB6F894DEBF0FBECDBF5C01942E6901D7
:104910001A8A1B8A1C8A1D8A8CE089836A83442335
:1049200059F08AE091E0DE011396FC0121912D936C
:104930002E2F281B2915D0F382E18887F80180816A
:104940008E8B81818F8B960142E0BE01685E7F4F26
:10495000CE01469684D0888D8987898D8A87960175
:104960004AE0BE01605F7F4FCE010196EAD08889A0
:104970008B8789898C872CE0AE014F5F5F4F692D53
:10498000C5010E945B11882309F450C00E94AD113B
:104990004CE251E060E070E08091DE0C9091DF0C21
:1049A0000E944517813041F082EC92E00E940D3D5B
:1049B0000E94BA1180E03AC0BE01615F7F4FCE0114
:1049C00001960E94C51187EA92E00E940D3D8A89F6
:1049D0009B89AC89BD891C012D01282F332D442DC5
:1049E000552D60E070E080E090E00E941D3D84E97C
:1049F00091E00E940D3D0E94BA1196014F85B501CC
:104A0000CE01019606DB882389F08885833169F41D
:104A10008985888F8A85898F960142E0BE01685E0C
:104A20007F4FC7013AD081E001C080E069960FB6A0
:104A3000F894DEBF0FBECDBFDF91CF911F910F91D4
:104A4000FF90EF90DF90CF90BF90AF909F908F90AE
:104A50007F906F905F904F903F902F9008950F93AD
:104A60001F93CF93DF93442399F0C82FD92FA62FFC
:104A7000B72F50E06991052F017010E0C901800F38
:104A8000911FFC01808186278D935F5F5413F2CFC5
:104A9000DF91CF911F910F9108950F931F93CF93A3
:104AA000DF93442399F0C62FD72FA82FB92F50E0BA
:104AB0006991052F017010E0C901800F911FFC0161
:104AC000808186278D935F5F5413F2CFDF91CF9162
:104AD0001F910F910895CF93DF93F901442399F02B
:104AE000382FC62FD72FA82FB92F9D9121818081D4
:104AF00082272281822723818227892789938A2FEF
:104B0000831B841790F3DF91CF910895CF93DF93A8
:104B1000F901442399F0362FC82FD92FA62FB72F8C
:104B20009D91218180818227228182272381822772
:104B3000892789938A2F831B841790F3DF91CF9164
:104B400008953F924F925F926F927F928F929F92C1
:104B5000AF92BF92CF92DF92EF92FF920F931F938B
:104B6000CF93DF938C017B01342E6901442309F438
:104B700044C0C0E0812C912C5401839444244A9475
:104B8000542C612C712CF801EC0FF11DA081B0E0C8
:104B9000A50194010E944142A30192010E940A4290
:104BA0004B015C01CE5FC31570F381E0831570F596
:104BB000E80121960D5F1F4F3A943A943694832D65
:104BC00090E0880F991F080F191F61E070E080E0E6
:104BD00090E044244A94542C612C712CA881B0E0BC
:104BE0009B01AC010E944142A30192010E940A4232
:104BF0002296C017D10791F70DC0812C912C54013A
:104C0000839461E070E080E090E004C061E070E0D7
:104C100080E090E0682579258A259B252FEF3FEFDE
:104C200040E050E00E940A42F60180817827F701B7
:104C30007083F60181816827F7016183DF91CF914D
:104C40001F910F91FF90EF90DF90CF90BF90AF90AA
:104C50009F908F907F906F905F904F903F900895BE
:104C60003F924F925F926F927F928F929F92AF92FC
:104C7000BF92CF92DF92EF92FF920F931F93CF9349
:104C8000DF938C016B01342E7901442309F444C075
:104C9000C0E0812C912C5401839444244A94542CD8
:104CA000612C712CF801EC0FF11DA081B0E0A50181
:104CB00094010E944142A30192010E940A424B01C9
:104CC0005C01CE5FC31570F381E0831570F5E801D8
:104CD00021960D5F1F4F3A943A943694832D90E0BD
:104CE000880F991F080F191F61E070E080E090E0C5
:104CF00044244A94542C612C712CA881B0E09B016F
:104D0000AC010E944142A30192010E940A422296F4
:104D1000C017D10791F70DC0812C912C54018394B9
:104D200061E070E080E090E004C061E070E080E06D
:104D300090E0682579258A259B252FEF3FEF40E0FD
:104D400050E00E940A42F7019181808189277827EB
:104D5000F6017083F7019381828189276827F60124
:104D60006183DF91CF911F910F91FF90EF90DF90C2
:104D7000CF90BF90AF909F908F907F906F905F90FB
:104D80004F903F900895CF92DF92EF92FF920E9452
:104D9000261DC0900F01D0901001E0901101F090FD
:104DA0001201A82FB0E0119624E434E444E050E06E
:104DB0000E9441426C0D7D1D8E1D9F1D2FEF3FEF08
:104DC00040E050E00E940A4260930F01709310018E
:104DD000809311019093120180910F019091100125
:104DE000A0911101B0911201FF90EF90DF90CF9050
:104DF00008952F923F924F925F926F927F928F927F
:104E00009F92AF92BF92CF92DF92EF92FF920F9359
:104E10001F93CF93DF9300D000D0CDB7DEB724E14E
:104E20003DE03C832B830F2EFEE0EF2EFEE0FF2EB5
:104E3000F02DA12CB12C412C512C612C712C812CEA
:104E4000912C0F2EF9E13F2EF02D0F2EF4E1CF2EF5
:104E5000F1E0DF2EF02D222423948A2D9B2D8C014E
:104E6000389EF001399EF00D1124ED5EF24F25853C
:104E7000213009F005C1389EF001399EF00D112452
:104E8000ED5EF24F8485813009F0FAC0309EF0016A
:104E9000319EF00D1124ED5EF24F8685813009F4CC
:104EA000EFC0309EF001319EF00D1124ED5EF24F07
:104EB0008785843109F0E4C08FB78F778FBF309E2C
:104EC000C001319E900D1124FC01ED5EF24FFA837A
:104ED000E98317868FB780688FBFF60180810E94B3
:104EE000C01086EF92E00E940D3D83E093E00E94A7
:104EF0000D3DE981FA81218130E040E050E060E041
:104F000070E080E090E00E941D3D80E20E94103D34
:104F1000E981FA81228130E040E050E060E070E019
:104F200080E090E00E941D3D80E20E94103DE981FA
:104F3000FA81238130E040E050E060E070E080E002
:104F400090E00E941D3D80E20E94103DE981FA81BF
:104F5000248130E040E050E060E070E080E090E0EC
:104F60000E941D3D80E20E94103DE981FA81258169
:104F700030E040E050E060E070E080E090E00E94CF
:104F80001D3D84E991E00E940D3D8DE093E00E947B
:104F90000D3DE981FA81268130E040E050E060E09B
:104FA00070E080E090E00E941D3D80E20E94103D94
:104FB000E981FA81278130E040E050E060E070E074
:104FC00080E090E00E941D3D80E20E94103DE9815A
:104FD000FA81208530E040E050E060E070E080E061
:104FE00090E00E941D3D80E20E94103DE981FA811F
:104FF000218530E040E050E060E070E080E090E04B
:105000000E941D3D84E193E00E940D3D2A2D3B2D21
:10501000442D552D662D772D882D992D0E941D3DEF
:105020008AE00E94103DE981FA81408162852B81EE
:105030003C812B5F3F4F8B819C8149D8882301F1B4
:1050400085E393E00E940D3D2A2D3B2D442D552DE7
:10505000662D772D882D992D0E941D3D8AE00E9496
:10506000103D309EF001319EF00D1124ED5EF24FA7
:10507000108E178A2686138A108A148A118A128A39
:105080002A2D3B2D442D552D662D772D882D992DBC
:10509000A22D0E94F942A22EB32E442E552E662E2A
:1050A000772E882E992E2B813C81275E3F4F3C83A3
:1050B0002B832E153F0509F0D0CE0F900F900F9047
:1050C0000F90DF91CF911F910F91FF90EF90DF90A4
:1050D000CF90BF90AF909F908F907F906F905F9098
:1050E0004F903F902F9008953F924F925F926F9212
:1050F0007F928F929F92AF92BF92CF92DF92EF9268
:10510000FF920F931F93CF93DF93C4E1DDE00F2E47
:10511000FEE0EF2EFEE0FF2EF02DA12CB12C412C55
:10512000512C612C712C812C912C0F2EF9E13F2EEA
:10513000F02D8A2D9B2D8C01389EF001399EF00DAB
:105140001124ED5EF24F2585213009F0A8C0389E6C
:10515000F001399EF00D1124ED5EF24F848581300F
:1051600009F09DC0309EF001319EF00D1124ED5EDE
:10517000F24F8685813009F092C0309EF001319E59
:10518000F00D1124ED5EF24F8089883009F087C060
:105190008FB78F778FBF309EF001319EF00D1124B5
:1051A000ED5EF24F108A8FB780688FBF848981309F
:1051B00009F042C06F01E389F0E0EC5EFE4F8081B0
:1051C0000E94C0108EE193E00E940D3D2A2D3B2DE0
:1051D000442D552D662D772D882D992D0E941D3D2E
:1051E0008AE00E94103DF601408162859E012C5E9E
:1051F0003F4FCE019AD88823A1F082E293E00E942B
:105200000D3D2A2D3B2D442D552D662D772D882DB6
:10521000992D0E941D3D8AE00E94103DF601118AE1
:1052200015C0309EF001319EF00D1124ED5EF24F5D
:1052300081898F5F818B0AC0309EF001319EF00D15
:105240001124ED5EF24F81898F5F818B309EF001DA
:10525000319EF00D1124ED5EF24F81898530F9F415
:10526000309EF001319EF00D1124ED5EF24F118A57
:105270001686138A108A1786128A148A8BE293E0A4
:105280000E940D3D2A2D3B2D442D552D662D772D49
:10529000882D992D0E941D3D8AE00E94103D2A2DE7
:1052A0003B2D442D552D662D772D882D992DA1E070
:1052B0000E94F942A22EB32E442E552E662E772E32
:1052C000882E992E6996CE15DF0509F032CFDF9131
:1052D000CF911F910F91FF90EF90DF90CF90BF90F3
:1052E000AF909F908F907F906F905F904F903F9086
:1052F00008952F923F924F925F926F927F928F927A
:105300009F92AF92BF92CF92DF92EF92FF920F9354
:105310001F93CF93DF9300D000D0CDB7DEB70F2E11
:10532000F4E1EF2EFDE0FF2EF02D0F2EFEE0AF2E6C
:10533000FEE0BF2EF02D812C912C212C312C412C04
:10534000512C612C712C882D992D6C0129E1289FFD
:10535000F001299FF00D1124ED5EF24F25852130DB
:1053600009F0A6C0A9E1A89FF001A99FF00D1124A2
:10537000ED5EF24F8485813009F09AC0AC9DF0015A
:10538000AD9DF00D1124ED5EF24F8685813009F060
:105390008FC0AC9DF001AD9DF00D1124ED5EF24F7C
:1053A0008489882359F0AC9DF001AD9DF00D112446
:1053B000ED5EF24F8289883209F07AC0B9E1BC9D76
:1053C0008001BD9D100D11240D5E124FD801539622
:1053D000EC91F0E0EC5EFE4F80810E94C010D3DCC7
:1053E0009C838B838B819C8199838B819C818A8315
:1053F00080E493E00E940D3D282D392D422D532D40
:10540000642D752D862D972D0E941D3D8AE00E94EA
:10541000103DF8014081628587010B5F1F4F9E019F
:105420002F5F3F4FC70120D8882309F441C0F9E11D
:10543000FC9D8001FD9D100D11240D5E124FE1E0D9
:10544000D8015496EC93549752961C9252978981A6
:1054500055968C9355978A8156968C93569751966C
:105460001C9282E593E00E940D3DD80155968C91E7
:10547000559756964C9150E0582B242F352F40E0ED
:1054800050E060E070E080E090E00E941D3D8CE51F
:1054900093E00E940D3D282D392D422D532D642D72
:1054A000752D862D972D0E941D3D8AE00E94103D8E
:1054B000282D392D422D532D642D752D862D972D98
:1054C000A1E00E94F942822E932E242E352E462EE4
:1054D000572E682E792EB9E1EB0EF11CEA14FB046D
:1054E00009F031CF0F900F900F900F90DF91CF9177
:1054F0001F910F91FF90EF90DF90CF90BF90AF90F2
:105500009F908F907F906F905F904F903F902F90E3
:1055100008952F923F924F925F926F927F928F9257
:105520009F92AF92BF92CF92DF92EF92FF920F9332
:105530001F93CF93DF9300D000D0CDB7DEB724E127
:105540003DE03C832B830F2EFEE0CF2EFEE0DF2ECE
:10555000F02D912C10E0312C412C512C612C712C10
:10556000812C0F2EF9E12F2EF02D0F2EF4E1AF2E0E
:10557000F1E0BF2EF02D892D912F7C01289EF001A6
:10558000299EF00D1124ED5EF24F2585213009F0A2
:10559000A2C0289EF001299EF00D1124ED5EF24F6D
:1055A0008485813009F097C02E9CF0012F9CF00D6E
:1055B0001124ED5EF24F8685813009F08CC02E9C5F
:1055C000F0012F9CF00D1124ED5EF24F84898130A3
:1055D00009F081C02E9CF0012F9CF00D1124ED5E8E
:1055E000F24F8389811177C0D5018C910E94C01040
:1055F000CADBFC019C01A3E9B4E20E943242281BF1
:10560000390B36952795820F931FAC015695479518
:1056100056954795CA01880F991F880F991F880FC3
:10562000991F841B950BAF01481B590BFA0131964A
:10563000FA83E98383E693E00E940D3D292D312F03
:10564000432D542D652D762D872D982D0E941D3DBF
:105650008AE00E94103D2E9CF0012F9CF00D112439
:10566000ED5EF24F4081628509812B813C812C5E89
:105670003F4F8B819C810E94EB22882361F12E9CFD
:10568000F0012F9CF00D1124ED5EF24F2981238B48
:10569000118A81E793E00E940D3DE981FA81AF0113
:1056A0002E2F352F40E050E060E070E080E090E089
:1056B0000E941D3D8CE593E00E940D3D292D312F68
:1056C000432D542D652D762D872D982D0E941D3D3F
:1056D0008AE00E94103D292D312F432D542D652D38
:1056E000762D872D982DA1E00E94F942922E132F3E
:1056F000342E452E562E672E782E892E2B813C81F6
:10570000275E3F4F3C832B832C153D0509F033CF9B
:105710000F900F900F900F90DF91CF911F910F91ED
:10572000FF90EF90DF90CF90BF90AF909F908F90C1
:105730007F906F905F904F903F902F9008955F9271
:105740006F927F928F929F92AF92BF92CF92DF9291
:10575000EF92FF920F931F93CF93DF93CDB7DEB7F6
:10576000C354D1090FB6F894DEBF0FBECDBF8091F0
:10577000510C882309F46DC523961FAE23972196FB
:105780001FAE21971BAA1CAA1DAA1EAA1FAA18AEEB
:1057900019AE1AAE23961FAE239723969FAD23977B
:1057A0008091510C981708F052C50F2EF9E17F2E09
:1057B000F02D552453940F2EF1E46F2EF02D2396E7
:1057C0008FAD239790E0FC01EE0FFF1FEE0FFF1F40
:1057D0008E0F9F1FFC01E052F34F808122968FAF06
:1057E00022972296EFAD22977E9EF0011124ED5E66
:1057F000F24F8485882309F4E2C22296EFAD229706
:105800007E9EF0011124ED5EF24F8685882309F417
:10581000D6C22296EFAD22977E9EF0011124ED5E56
:10582000F24F8489882309F4CAC223968FAD239747
:1058300090E0FC01EE0FFF1FEE0FFF1F8E0F9F1F6A
:10584000FC01E052F34F218123968FAD239790E026
:10585000FC01EE0FFF1FEE0FFF1F8E0F9F1FFC01BD
:10586000E052F34F828190E0922B9EAF8DAF239652
:105870008FAD239790E0FC01EE0FFF1FEE0FFF1F8F
:105880008E0F9F1FFC01E052F34F238123968FADB3
:10589000239790E0FC01EE0FFF1FEE0FFF1F8E0F0E
:1058A0009F1FFC01E052F34F848190E0922B9CAF4C
:1058B0008BAF8BE793E00E940D3D8DAC9EAC282D05
:1058C000392D40E050E060E070E080E090E00E9420
:1058D0001D3D81E993E00E940D3D8BAC9CAC282DD1
:1058E000392D40E050E060E070E080E090E00E9400
:1058F0001D3D84E991E00E940D3D2296EFAD229777
:105900007E9EF0011124ED5EF24FE389F0E0EC5E43
:10591000FE4F80810E94C0102396AFAD239723963F
:105920009FAD239722962FAD22972296EFAD229717
:105930007E9EF0011124ED5EF24F40812296EFAD84
:1059400022977E9EF0011124ED5EF24F6285229631
:105950008FAD2297B0E07D01EE0CFF1CEE0CFF1C1A
:10596000AE0DBF1DFD01ED51F34F7F01E92FF0E0BA
:105970008F01000F111F000F111FE00FF11F8F018A
:105980000F51134F729E90011124285D324F789E63
:10599000C00111248C5E924F0E94AA23882309F42F
:1059A0000EC284E991E00E940D3D84E991E00E94DD
:1059B0000D3D84E991E00E940D3D84E991E00E9453
:1059C0000D3D84E991E00E940D3D84E991E00E9443
:1059D0000D3D84E991E00E940D3D84E991E00E9433
:1059E0000D3D86EA93E00E940D3D22962FAD229751
:1059F00030E040E050E060E070E080E090E00E9445
:105A00001D3D84E991E00E940D3D84E991E00E94F2
:105A10000D3D84E991E00E940D3D84E991E00E94F2
:105A20000D3D84E991E00E940D3D84E991E00E94E2
:105A30000D3D84E991E00E940D3D84E991E00E94D2
:105A40000D3D2296EFAD22977E9EF0011124ED5E72
:105A5000F24F118A2296EFAD22977E9EF00111241B
:105A6000ED5EF24F178A21965FAE219769828AE335
:105A70008A832296EFAD22977E9EF0011124ED5E7F
:105A8000F24F80818FAF8FAD882331F12BA93CA9D4
:105A90004DA95EA96FA978AD89AD9AAD2296AFAD3B
:105AA0002297EFADF0E07A9EE00DF11D1124EE5E3D
:105AB000F24FE18108E00E94B942E22BEBAB3CAB34
:105AC0004DAB5EAB6FAB78AF89AF9AAF8FAD815006
:105AD0008FAF8FAD8111DACF0BA91CA92DA93EA9DB
